{"abi":[{"type":"constructor","inputs":[],"stateMutability":"nonpayable"},{"type":"function","name":"BURNER_ROLE","inputs":[],"outputs":[{"name":"","type":"bytes32","internalType":"bytes32"}],"stateMutability":"view"},{"type":"function","name":"DEFAULT_ADMIN_ROLE","inputs":[],"outputs":[{"name":"","type":"bytes32","internalType":"bytes32"}],"stateMutability":"view"},{"type":"function","name":"MINTER_ROLE","inputs":[],"outputs":[{"name":"","type":"bytes32","internalType":"bytes32"}],"stateMutability":"view"},{"type":"function","name":"approve","inputs":[{"name":"to","type":"address","internalType":"address"},{"name":"tokenId","type":"uint256","internalType":"uint256"}],"outputs":[],"stateMutability":"nonpayable"},{"type":"function","name":"balanceOf","inputs":[{"name":"owner","type":"address","internalType":"address"}],"outputs":[{"name":"","type":"uint256","internalType":"uint256"}],"stateMutability":"view"},{"type":"function","name":"burn","inputs":[{"name":"tokenId","type":"uint256","internalType":"uint256"}],"outputs":[],"stateMutability":"nonpayable"},{"type":"function","name":"getApproved","inputs":[{"name":"tokenId","type":"uint256","internalType":"uint256"}],"outputs":[{"name":"","type":"address","internalType":"address"}],"stateMutability":"view"},{"type":"function","name":"getRoleAdmin","inputs":[{"name":"role","type":"bytes32","internalType":"bytes32"}],"outputs":[{"name":"","type":"bytes32","internalType":"bytes32"}],"stateMutability":"view"},{"type":"function","name":"getTokenElement","inputs":[{"name":"tokenId","type":"uint256","internalType":"uint256"}],"outputs":[{"name":"","type":"uint8","internalType":"uint8"}],"stateMutability":"view"},{"type":"function","name":"getTokenTier","inputs":[{"name":"tokenId","type":"uint256","internalType":"uint256"}],"outputs":[{"name":"","type":"uint8","internalType":"uint8"}],"stateMutability":"view"},{"type":"function","name":"grantRole","inputs":[{"name":"role","type":"bytes32","internalType":"bytes32"},{"name":"account","type":"address","internalType":"address"}],"outputs":[],"stateMutability":"nonpayable"},{"type":"function","name":"hasRole","inputs":[{"name":"role","type":"bytes32","internalType":"bytes32"},{"name":"account","type":"address","internalType":"address"}],"outputs":[{"name":"","type":"bool","internalType":"bool"}],"stateMutability":"view"},{"type":"function","name":"isApprovedForAll","inputs":[{"name":"owner","type":"address","internalType":"address"},{"name":"operator","type":"address","internalType":"address"}],"outputs":[{"name":"","type":"bool","internalType":"bool"}],"stateMutability":"view"},{"type":"function","name":"mint","inputs":[{"name":"to","type":"address","internalType":"address"},{"name":"tier","type":"uint8","internalType":"uint8"},{"name":"element","type":"uint8","internalType":"uint8"}],"outputs":[],"stateMutability":"nonpayable"},{"type":"function","name":"name","inputs":[],"outputs":[{"name":"","type":"string","internalType":"string"}],"stateMutability":"view"},{"type":"function","name":"ownerOf","inputs":[{"name":"tokenId","type":"uint256","internalType":"uint256"}],"outputs":[{"name":"","type":"address","internalType":"address"}],"stateMutability":"view"},{"type":"function","name":"publicMint","inputs":[{"name":"element","type":"uint8","internalType":"uint8"}],"outputs":[],"stateMutability":"payable"},{"type":"function","name":"renounceRole","inputs":[{"name":"role","type":"bytes32","internalType":"bytes32"},{"name":"callerConfirmation","type":"address","internalType":"address"}],"outputs":[],"stateMutability":"nonpayable"},{"type":"function","name":"revokeRole","inputs":[{"name":"role","type":"bytes32","internalType":"bytes32"},{"name":"account","type":"address","internalType":"address"}],"outputs":[],"stateMutability":"nonpayable"},{"type":"function","name":"safeTransferFrom","inputs":[{"name":"from","type":"address","internalType":"address"},{"name":"to","type":"address","internalType":"address"},{"name":"tokenId","type":"uint256","internalType":"uint256"}],"outputs":[],"stateMutability":"nonpayable"},{"type":"function","name":"safeTransferFrom","inputs":[{"name":"from","type":"address","internalType":"address"},{"name":"to","type":"address","internalType":"address"},{"name":"tokenId","type":"uint256","internalType":"uint256"},{"name":"data","type":"bytes","internalType":"bytes"}],"outputs":[],"stateMutability":"nonpayable"},{"type":"function","name":"setApprovalForAll","inputs":[{"name":"operator","type":"address","internalType":"address"},{"name":"approved","type":"bool","internalType":"bool"}],"outputs":[],"stateMutability":"nonpayable"},{"type":"function","name":"supportsInterface","inputs":[{"name":"interfaceId","type":"bytes4","internalType":"bytes4"}],"outputs":[{"name":"","type":"bool","internalType":"bool"}],"stateMutability":"view"},{"type":"function","name":"symbol","inputs":[],"outputs":[{"name":"","type":"string","internalType":"string"}],"stateMutability":"view"},{"type":"function","name":"tokenURI","inputs":[{"name":"tokenId","type":"uint256","internalType":"uint256"}],"outputs":[{"name":"","type":"string","internalType":"string"}],"stateMutability":"view"},{"type":"function","name":"transferFrom","inputs":[{"name":"from","type":"address","internalType":"address"},{"name":"to","type":"address","internalType":"address"},{"name":"tokenId","type":"uint256","internalType":"uint256"}],"outputs":[],"stateMutability":"nonpayable"},{"type":"event","name":"Approval","inputs":[{"name":"owner","type":"address","indexed":true,"internalType":"address"},{"name":"approved","type":"address","indexed":true,"internalType":"address"},{"name":"tokenId","type":"uint256","indexed":true,"internalType":"uint256"}],"anonymous":false},{"type":"event","name":"ApprovalForAll","inputs":[{"name":"owner","type":"address","indexed":true,"internalType":"address"},{"name":"operator","type":"address","indexed":true,"internalType":"address"},{"name":"approved","type":"bool","indexed":false,"internalType":"bool"}],"anonymous":false},{"type":"event","name":"RoleAdminChanged","inputs":[{"name":"role","type":"bytes32","indexed":true,"internalType":"bytes32"},{"name":"previousAdminRole","type":"bytes32","indexed":true,"internalType":"bytes32"},{"name":"newAdminRole","type":"bytes32","indexed":true,"internalType":"bytes32"}],"anonymous":false},{"type":"event","name":"RoleGranted","inputs":[{"name":"role","type":"bytes32","indexed":true,"internalType":"bytes32"},{"name":"account","type":"address","indexed":true,"internalType":"address"},{"name":"sender","type":"address","indexed":true,"internalType":"address"}],"anonymous":false},{"type":"event","name":"RoleRevoked","inputs":[{"name":"role","type":"bytes32","indexed":true,"internalType":"bytes32"},{"name":"account","type":"address","indexed":true,"internalType":"address"},{"name":"sender","type":"address","indexed":true,"internalType":"address"}],"anonymous":false},{"type":"event","name":"Transfer","inputs":[{"name":"from","type":"address","indexed":true,"internalType":"address"},{"name":"to","type":"address","indexed":true,"internalType":"address"},{"name":"tokenId","type":"uint256","indexed":true,"internalType":"uint256"}],"anonymous":false},{"type":"error","name":"AccessControlBadConfirmation","inputs":[]},{"type":"error","name":"AccessControlUnauthorizedAccount","inputs":[{"name":"account","type":"address","internalType":"address"},{"name":"neededRole","type":"bytes32","internalType":"bytes32"}]},{"type":"error","name":"ERC721IncorrectOwner","inputs":[{"name":"sender","type":"address","internalType":"address"},{"name":"tokenId","type":"uint256","internalType":"uint256"},{"name":"owner","type":"address","internalType":"address"}]},{"type":"error","name":"ERC721InsufficientApproval","inputs":[{"name":"operator","type":"address","internalType":"address"},{"name":"tokenId","type":"uint256","internalType":"uint256"}]},{"type":"error","name":"ERC721InvalidApprover","inputs":[{"name":"approver","type":"address","internalType":"address"}]},{"type":"error","name":"ERC721InvalidOperator","inputs":[{"name":"operator","type":"address","internalType":"address"}]},{"type":"error","name":"ERC721InvalidOwner","inputs":[{"name":"owner","type":"address","internalType":"address"}]},{"type":"error","name":"ERC721InvalidReceiver","inputs":[{"name":"receiver","type":"address","internalType":"address"}]},{"type":"error","name":"ERC721InvalidSender","inputs":[{"name":"sender","type":"address","internalType":"address"}]},{"type":"error","name":"ERC721NonexistentToken","inputs":[{"name":"tokenId","type":"uint256","internalType":"uint256"}]}],"bytecode":{"object":"0x60806040523461031f57604080519081016001600160401b03811182821017610235576040908152601082526f416c6368656d7920456c656d656e747360801b602083015280519081016001600160401b03811182821017610235576040526004815263454c454d60e01b602082015281516001600160401b038111610235575f54600181811c91168015610315575b602082101461021757601f81116102b3575b50602092601f821160011461025457928192935f92610249575b50508160011b915f199060031b1c1916175f555b80516001600160401b03811161023557600154600181811c9116801561022b575b602082101461021757601f81116101b4575b50602091601f8211600114610154579181925f92610149575b50508160011b915f199060031b1c1916176001555b61013933610323565b506040516112dc90816103ad8239f35b015190505f8061011b565b601f1982169260015f52805f20915f5b85811061019c57508360019510610184575b505050811b01600155610130565b01515f1960f88460031b161c191690555f8080610176565b91926020600181928685015181550194019201610164565b60015f527fb10e2d527612073b26eecdfd717e6a320cf44b4afac2b0732d9fcbe2b7fa0cf6601f830160051c8101916020841061020d575b601f0160051c01905b8181106102025750610102565b5f81556001016101f5565b90915081906101ec565b634e487b7160e01b5f52602260045260245ffd5b90607f16906100f0565b634e487b7160e01b5f52604160045260245ffd5b015190505f806100bb565b601f198216935f8052805f20915f5b86811061029b5750836001959610610283575b505050811b015f556100cf565b01515f1960f88460031b161c191690555f8080610276565b91926020600181928685015181550194019201610263565b5f80527f290decd9548b62a8d60345a988386fc84ba6bc95484008f6362f93160ef3e563601f830160051c8101916020841061030b575b601f0160051c01905b81811061030057506100a1565b5f81556001016102f3565b90915081906102ea565b90607f169061008f565b5f80fd5b6001600160a01b0381165f9081525f5160206116895f395f51905f52602052604090205460ff166103a7576001600160a01b03165f8181525f5160206116895f395f51905f5260205260408120805460ff191660011790553391907f2f8788117e7eff1d82e926ec794901d17c78024a50270940304540a733656f0d8180a4600190565b505f9056fe6080806040526004361015610012575f80fd5b5f905f3560e01c90816301ffc9a714610bfb5750806306fdde0314610b43578063081812fc14610b07578063095ea7b314610a1d57806323b872dd14610a06578063248a9ca3146109d3578063282c51f3146109995780632f2ff15d1461095b578063352926a81461087b57806336568abe1461083757806342842e0e1461080e57806342966c68146106dd5780636352211e146106ad57806370a082311461065c578063852d650c1461062f578063858e83b51461053357806391d14854146104ea57806395d89b41146103e2578063a217fddf146103c8578063a22cb4651461032d578063b88d4fde146102a3578063c26b265f14610276578063c87b56dd14610219578063d5391393146101de578063d547741f146101965763e985e9c51461013c575f80fd5b34610193576040366003190112610193576040610157610ca4565b91610160610cba565b9260018060a01b031681526005602052209060018060a01b03165f52602052602060ff60405f2054166040519015158152f35b80fd5b5034610193576040366003190112610193576101da6004356101b6610cba565b906101d56101d0825f526006602052600160405f20015490565b611080565b611222565b5080f35b503461019357806003193601126101935760206040517f9f2df0fed2c77648de5860a4cc508cd0818c85b8b8a1ab4ceeef8d981c8956a68152f35b346102725760203660031901126102725761023560043561105e565b505f604051610245602082610d0a565b5261026e604051610257602082610d0a565b5f8152604051918291602083526020830190610c80565b0390f35b5f80fd5b34610272576020366003190112610272576004355f526009602052602060ff60405f205416604051908152f35b34610272576080366003190112610272576102bc610ca4565b6102c4610cba565b6064359167ffffffffffffffff83116102725736602384011215610272578260040135916102f183610d40565b926102ff6040519485610d0a565b8084523660248287010111610272576020815f92602461032b9801838801378501015260443591610f1e565b005b3461027257604036600319011261027257610346610ca4565b60243590811515809203610272576001600160a01b03169081156103b557335f52600560205260405f20825f5260205260405f2060ff1981541660ff83161790556040519081527f17307eab39ab6107e8899845ad3d59bd9653f200f220920489ca2b5937696c3160203392a3005b50630b61174360e31b5f5260045260245ffd5b34610272575f3660031901126102725760206040515f8152f35b34610272575f366003190112610272576040515f6001548060011c906001811680156104e0575b6020831081146104cc578285529081156104a8575060011461044a575b61026e8361043681850382610d0a565b604051918291602083526020830190610c80565b91905060015f527fb10e2d527612073b26eecdfd717e6a320cf44b4afac2b0732d9fcbe2b7fa0cf6915f905b80821061048e57509091508101602001610436610426565b919260018160209254838588010152019101909291610476565b60ff191660208086019190915291151560051b840190910191506104369050610426565b634e487b7160e01b5f52602260045260245ffd5b91607f1691610409565b3461027257604036600319011261027257610503610cba565b6004355f52600660205260405f209060018060a01b03165f52602052602060ff60405f2054166040519015158152f35b60203660031901126102725760043560ff81168091036102725766071afd498d000034106105f357600581116105ae5761059e9060075490815f52600960205260405f20600160ff19825416179055815f52600860205260405f209060ff1982541617905533611146565b6105a9600754610efc565b600755005b60405162461bcd60e51b815260206004820152601a60248201527f496e76616c696420656c656d656e7420666f72205469657220310000000000006044820152606490fd5b60405162461bcd60e51b8152602060048201526014602482015273125b9cdd59999a58da595b9d081c185e5b595b9d60621b6044820152606490fd5b34610272576020366003190112610272576004355f526008602052602060ff60405f205416604051908152f35b34610272576020366003190112610272576001600160a01b0361067d610ca4565b16801561069a575f526003602052602060405f2054604051908152f35b6322718ad960e21b5f525f60045260245ffd5b346102725760203660031901126102725760206106cb60043561105e565b6040516001600160a01b039091168152f35b3461027257602036600319011261027257335f9081527f42d20fd6db25ea5a8e33f43724ad72f2ebd9488257fa78c86176b8175fc383fa60205260409020546004359060ff16156107d7575f818152600260205260409020546001600160a01b031680159081156107a4575b5f83815260026020526040812080546001600160a01b03191690558390827fddf252ad1be2c89b69c2b068fc378daa952ba7f163c4a11628f55a4df523b3ef8280a45061079257005b637e27328960e01b5f5260045260245ffd5b5f83815260046020526040902080546001600160a01b0319169055805f52600360205260405f205f198154019055610749565b63e2517d3f60e01b5f52336004527f3c11d16cbaffd01df69ce1c404f6340ee057498f5f00246190ea54220576a84860245260445ffd5b346102725761032b61081f36610cd0565b906040519261082f602085610d0a565b5f8452610f1e565b3461027257604036600319011261027257610850610cba565b336001600160a01b0382160361086c5761032b90600435611222565b63334bd91960e11b5f5260045ffd5b3461027257606036600319011261027257610894610ca4565b60243560ff81168103610272576044359160ff8316830361027257335f9081527f3195c024b2ddd6d9b8f6c836aa52f67fe69376c8903d009b80229b3ce4425f51602052604090205460ff16156109245761059e9260075492835f52600960205260ff60405f20911660ff19825416179055825f52600860205260ff60405f20911660ff19825416179055611146565b63e2517d3f60e01b5f52336004527f9f2df0fed2c77648de5860a4cc508cd0818c85b8b8a1ab4ceeef8d981c8956a660245260445ffd5b346102725760403660031901126102725761032b60043561097a610cba565b906109946101d0825f526006602052600160405f20015490565b6110ba565b34610272575f3660031901126102725760206040517f3c11d16cbaffd01df69ce1c404f6340ee057498f5f00246190ea54220576a8488152f35b346102725760203660031901126102725760206109fe6004355f526006602052600160405f20015490565b604051908152f35b346102725761032b610a1736610cd0565b91610d5c565b3461027257604036600319011261027257610a36610ca4565b602435610a428161105e565b33151580610af4575b80610ac7575b610ab45781906001600160a01b0384811691167f8c5be1e5ebec7d5bd14f71427d1e84f3dd0314c0f7b2291e5b200ac8c7c3b9255f80a45f90815260046020526040902080546001600160a01b0319166001600160a01b03909216919091179055005b63a9fbf51f60e01b5f523360045260245ffd5b506001600160a01b0381165f90815260056020908152604080832033845290915290205460ff1615610a51565b506001600160a01b038116331415610a4b565b3461027257602036600319011261027257600435610b248161105e565b505f526004602052602060018060a01b0360405f205416604051908152f35b34610272575f366003190112610272576040515f5f548060011c90600181168015610bf1575b6020831081146104cc578285529081156104a85750600114610b955761026e8361043681850382610d0a565b5f8080527f290decd9548b62a8d60345a988386fc84ba6bc95484008f6362f93160ef3e563939250905b808210610bd757509091508101602001610436610426565b919260018160209254838588010152019101909291610bbf565b91607f1691610b69565b34610272576020366003190112610272576004359063ffffffff60e01b821680920361027257602091637965db0b60e01b8114908115610c3d575b5015158152f35b6380ac58cd60e01b811491508115610c6f575b8115610c5e575b5083610c36565b6301ffc9a760e01b14905083610c57565b635b5e139f60e01b81149150610c50565b805180835260209291819084018484015e5f828201840152601f01601f1916010190565b600435906001600160a01b038216820361027257565b602435906001600160a01b038216820361027257565b6060906003190112610272576004356001600160a01b038116810361027257906024356001600160a01b0381168103610272579060443590565b90601f8019910116810190811067ffffffffffffffff821117610d2c57604052565b634e487b7160e01b5f52604160045260245ffd5b67ffffffffffffffff8111610d2c57601f01601f191660200190565b6001600160a01b0390911691908215610ee9575f828152600260205260409020546001600160a01b031692829033151580610e54575b5084610e21575b805f52600360205260405f2060018154019055815f52600260205260405f20816bffffffffffffffffffffffff60a01b825416179055847fddf252ad1be2c89b69c2b068fc378daa952ba7f163c4a11628f55a4df523b3ef5f80a46001600160a01b0316808303610e0957505050565b6364283d7b60e01b5f5260045260245260445260645ffd5b5f82815260046020526040902080546001600160a01b0319169055845f52600360205260405f205f198154019055610d99565b90915080610e98575b15610e6a5782905f610d92565b8284610e8257637e27328960e01b5f5260045260245ffd5b63177e802f60e01b5f523360045260245260445ffd5b503384148015610ec7575b80610e5d57505f838152600460205260409020546001600160a01b03163314610e5d565b505f84815260056020908152604080832033845290915290205460ff16610ea3565b633250574960e11b5f525f60045260245ffd5b5f198114610f0a5760010190565b634e487b7160e01b5f52601160045260245ffd5b9291610f2b818386610d5c565b813b610f38575b50505050565b604051630a85bd0160e11b81523360048201526001600160a01b0394851660248201526044810191909152608060648201529216919060209082908190610f83906084830190610c80565b03815f865af15f9181611019575b50610fe657503d15610fdf573d610fa781610d40565b90610fb56040519283610d0a565b81523d5f602083013e5b80519081610fda5782633250574960e11b5f5260045260245ffd5b602001fd5b6060610fbf565b6001600160e01b03191663757a42ff60e11b0161100757505f808080610f32565b633250574960e11b5f5260045260245ffd5b9091506020813d602011611056575b8161103560209383610d0a565b8101031261027257516001600160e01b03198116810361027257905f610f91565b3d9150611028565b5f818152600260205260409020546001600160a01b0316908115610792575090565b5f81815260066020908152604080832033845290915290205460ff16156110a45750565b63e2517d3f60e01b5f523360045260245260445ffd5b5f8181526006602090815260408083206001600160a01b038616845290915290205460ff16611140575f8181526006602090815260408083206001600160a01b0395909516808452949091528120805460ff19166001179055339291907f2f8788117e7eff1d82e926ec794901d17c78024a50270940304540a733656f0d9080a4600190565b50505f90565b6001600160a01b0316908115610ee9575f818152600260205260409020546001600160a01b031680151592909190836111ef575b805f52600360205260405f2060018154019055815f52600260205260405f20816bffffffffffffffffffffffff60a01b825416179055827fddf252ad1be2c89b69c2b068fc378daa952ba7f163c4a11628f55a4df523b3ef5f80a4506111dc57565b6339e3563760e11b5f525f60045260245ffd5b5f82815260046020526040902080546001600160a01b0319169055825f52600360205260405f205f19815401905561117a565b5f8181526006602090815260408083206001600160a01b038616845290915290205460ff1615611140575f8181526006602090815260408083206001600160a01b0395909516808452949091528120805460ff19169055339291907ff6391f5c32d9c69d2a47ea670b442974b53935d1edc7fd64eb21e047a839171b9080a460019056fea2646970667358221220ffe94e318eeb5e247c4e8981461e2fd6826096fa74c33b6240090ade230c660864736f6c634300081e003354cdd369e4e8a8515e52ca72ec816c2101831ad1f18bf44102ed171459c9b4f8","linkReferences":{}},"methodIdentifiers":{"BURNER_ROLE()":"282c51f3","DEFAULT_ADMIN_ROLE()":"a217fddf","MINTER_ROLE()":"d5391393","approve(address,uint256)":"095ea7b3","balanceOf(address)":"70a08231","burn(uint256)":"42966c68","getApproved(uint256)":"081812fc","getRoleAdmin(bytes32)":"248a9ca3","getTokenElement(uint256)":"852d650c","getTokenTier(uint256)":"c26b265f","grantRole(bytes32,address)":"2f2ff15d","hasRole(bytes32,address)":"91d14854","isApprovedForAll(address,address)":"e985e9c5","mint(address,uint8,uint8)":"352926a8","name()":"06fdde03","ownerOf(uint256)":"6352211e","publicMint(uint8)":"858e83b5","renounceRole(bytes32,address)":"36568abe","revokeRole(bytes32,address)":"d547741f","safeTransferFrom(address,address,uint256)":"42842e0e","safeTransferFrom(address,address,uint256,bytes)":"b88d4fde","setApprovalForAll(address,bool)":"a22cb465","supportsInterface(bytes4)":"01ffc9a7","symbol()":"95d89b41","tokenURI(uint256)":"c87b56dd","transferFrom(address,address,uint256)":"23b872dd"},"id":0}