{"abi":[{"type":"constructor","inputs":[],"stateMutability":"nonpayable"},{"type":"receive","stateMutability":"payable"},{"type":"function","name":"owner","inputs":[],"outputs":[{"name":"","type":"address","internalType":"address"}],"stateMutability":"view"},{"type":"function","name":"renounceOwnership","inputs":[],"outputs":[],"stateMutability":"nonpayable"},{"type":"function","name":"transferOwnership","inputs":[{"name":"newOwner","type":"address","internalType":"address"}],"outputs":[],"stateMutability":"nonpayable"},{"type":"function","name":"withdrawEth","inputs":[{"name":"_to","type":"address","internalType":"address payable"},{"name":"_amount","type":"uint256","internalType":"uint256"}],"outputs":[],"stateMutability":"nonpayable"},{"type":"function","name":"withdrawFees","inputs":[{"name":"_token","type":"address","internalType":"address"},{"name":"_to","type":"address","internalType":"address"},{"name":"_amount","type":"uint256","internalType":"uint256"}],"outputs":[],"stateMutability":"nonpayable"},{"type":"event","name":"FeesReceived","inputs":[{"name":"token","type":"address","indexed":true,"internalType":"address"},{"name":"amount","type":"uint256","indexed":false,"internalType":"uint256"}],"anonymous":false},{"type":"event","name":"FeesWithdrawn","inputs":[{"name":"token","type":"address","indexed":true,"internalType":"address"},{"name":"to","type":"address","indexed":true,"internalType":"address"},{"name":"amount","type":"uint256","indexed":false,"internalType":"uint256"}],"anonymous":false},{"type":"event","name":"OwnershipTransferred","inputs":[{"name":"previousOwner","type":"address","indexed":true,"internalType":"address"},{"name":"newOwner","type":"address","indexed":true,"internalType":"address"}],"anonymous":false},{"type":"error","name":"OwnableInvalidOwner","inputs":[{"name":"owner","type":"address","internalType":"address"}]},{"type":"error","name":"OwnableUnauthorizedAccount","inputs":[{"name":"account","type":"address","internalType":"address"}]},{"type":"error","name":"SafeERC20FailedOperation","inputs":[{"name":"token","type":"address","internalType":"address"}]}],"bytecode":{"object":"0x6080604052348015600e575f5ffd5b503380603357604051631e4fbdf760e01b81525f600482015260240160405180910390fd5b603a81603f565b50608e565b5f80546001600160a01b038381166001600160a01b0319831681178455604051919092169283917f8be0079c531659141344cd1fd0a4f28419497f9722a3daafe3b4186f6b6457e09190a35050565b6105bb8061009b5f395ff3fe60806040526004361061004c575f3560e01c80631b9a91a41461008c578063715018a6146100ad5780638da5cb5b146100c1578063e55dc4e6146100eb578063f2fde38b1461010a575f5ffd5b36610088576040513481525f907f2ccfc58c2cef4ee590b5f16be0548cc54afc12e1c66a67b362b7d640fd16bb2d9060200160405180910390a2005b5f5ffd5b348015610097575f5ffd5b506100ab6100a63660046104e4565b610129565b005b3480156100b8575f5ffd5b506100ab610220565b3480156100cc575f5ffd5b505f54604080516001600160a01b039092168252519081900360200190f35b3480156100f6575f5ffd5b506100ab61010536600461050e565b610233565b348015610115575f5ffd5b506100ab61012436600461054c565b610357565b610131610394565b804710156101865760405162461bcd60e51b815260206004820181905260248201527f496e73756666696369656e742062616c616e636520696e20747265617375727960448201526064015b60405180910390fd5b5f826001600160a01b0316826040515f6040518083038185875af1925050503d805f81146101cf576040519150601f19603f3d011682016040523d82523d5f602084013e6101d4565b606091505b505090508061021b5760405162461bcd60e51b8152602060048201526013602482015272115512081d1c985b9cd9995c8819985a5b1959606a1b604482015260640161017d565b505050565b610228610394565b6102315f6103c0565b565b61023b610394565b6040516370a0823160e01b815230600482015281906001600160a01b038516906370a0823190602401602060405180830381865afa15801561027f573d5f5f3e3d5ffd5b505050506040513d601f19601f820116820180604052508101906102a3919061056e565b10156102f15760405162461bcd60e51b815260206004820181905260248201527f496e73756666696369656e742062616c616e636520696e207472656173757279604482015260640161017d565b6103056001600160a01b038416838361040f565b816001600160a01b0316836001600160a01b03167f5e110f8bc8a20b65dcc87f224bdf1cc039346e267118bae2739847f07321ffa88360405161034a91815260200190565b60405180910390a3505050565b61035f610394565b6001600160a01b03811661038857604051631e4fbdf760e01b81525f600482015260240161017d565b610391816103c0565b50565b5f546001600160a01b031633146102315760405163118cdaa760e01b815233600482015260240161017d565b5f80546001600160a01b038381166001600160a01b0319831681178455604051919092169283917f8be0079c531659141344cd1fd0a4f28419497f9722a3daafe3b4186f6b6457e09190a35050565b604080516001600160a01b03841660248201526044808201849052825180830390910181526064909101909152602080820180516001600160e01b031663a9059cbb60e01b178152825161021b93879390925f9283929183919082885af18061047d576040513d5f823e3d81fd5b50505f513d915081156104945780600114156104a1565b6001600160a01b0384163b155b156104ca57604051635274afe760e01b81526001600160a01b038516600482015260240161017d565b50505050565b6001600160a01b0381168114610391575f5ffd5b5f5f604083850312156104f5575f5ffd5b8235610500816104d0565b946020939093013593505050565b5f5f5f60608486031215610520575f5ffd5b833561052b816104d0565b9250602084013561053b816104d0565b929592945050506040919091013590565b5f6020828403121561055c575f5ffd5b8135610567816104d0565b9392505050565b5f6020828403121561057e575f5ffd5b505191905056fea2646970667358221220f657390a724441e2d95627ebd204a58244610a236af86416dc2d2fec302f70da64736f6c634300081e0033","linkReferences":{}},"methodIdentifiers":{"owner()":"8da5cb5b","renounceOwnership()":"715018a6","transferOwnership(address)":"f2fde38b","withdrawEth(address,uint256)":"1b9a91a4","withdrawFees(address,address,uint256)":"e55dc4e6"},"id":57}