{"abi":[{"type":"constructor","inputs":[{"name":"_treasury","type":"address","internalType":"address"}],"stateMutability":"nonpayable"},{"type":"function","name":"BURNER_ROLE","inputs":[],"outputs":[{"name":"","type":"bytes32","internalType":"bytes32"}],"stateMutability":"view"},{"type":"function","name":"DEFAULT_ADMIN_ROLE","inputs":[],"outputs":[{"name":"","type":"bytes32","internalType":"bytes32"}],"stateMutability":"view"},{"type":"function","name":"MINTER_ROLE","inputs":[],"outputs":[{"name":"","type":"bytes32","internalType":"bytes32"}],"stateMutability":"view"},{"type":"function","name":"TREASURY","inputs":[],"outputs":[{"name":"","type":"address","internalType":"address"}],"stateMutability":"view"},{"type":"function","name":"WITHDRAWER_ROLE","inputs":[],"outputs":[{"name":"","type":"bytes32","internalType":"bytes32"}],"stateMutability":"view"},{"type":"function","name":"approve","inputs":[{"name":"to","type":"address","internalType":"address"},{"name":"tokenId","type":"uint256","internalType":"uint256"}],"outputs":[],"stateMutability":"nonpayable"},{"type":"function","name":"balanceOf","inputs":[{"name":"owner","type":"address","internalType":"address"}],"outputs":[{"name":"","type":"uint256","internalType":"uint256"}],"stateMutability":"view"},{"type":"function","name":"burn","inputs":[{"name":"tokenId","type":"uint256","internalType":"uint256"}],"outputs":[],"stateMutability":"nonpayable"},{"type":"function","name":"getApproved","inputs":[{"name":"tokenId","type":"uint256","internalType":"uint256"}],"outputs":[{"name":"","type":"address","internalType":"address"}],"stateMutability":"view"},{"type":"function","name":"getRoleAdmin","inputs":[{"name":"role","type":"bytes32","internalType":"bytes32"}],"outputs":[{"name":"","type":"bytes32","internalType":"bytes32"}],"stateMutability":"view"},{"type":"function","name":"getTokenElement","inputs":[{"name":"tokenId","type":"uint256","internalType":"uint256"}],"outputs":[{"name":"","type":"uint8","internalType":"uint8"}],"stateMutability":"view"},{"type":"function","name":"getTokenTier","inputs":[{"name":"tokenId","type":"uint256","internalType":"uint256"}],"outputs":[{"name":"","type":"uint8","internalType":"uint8"}],"stateMutability":"view"},{"type":"function","name":"grantRole","inputs":[{"name":"role","type":"bytes32","internalType":"bytes32"},{"name":"account","type":"address","internalType":"address"}],"outputs":[],"stateMutability":"nonpayable"},{"type":"function","name":"hasRole","inputs":[{"name":"role","type":"bytes32","internalType":"bytes32"},{"name":"account","type":"address","internalType":"address"}],"outputs":[{"name":"","type":"bool","internalType":"bool"}],"stateMutability":"view"},{"type":"function","name":"isApprovedForAll","inputs":[{"name":"owner","type":"address","internalType":"address"},{"name":"operator","type":"address","internalType":"address"}],"outputs":[{"name":"","type":"bool","internalType":"bool"}],"stateMutability":"view"},{"type":"function","name":"mint","inputs":[{"name":"to","type":"address","internalType":"address"},{"name":"tier","type":"uint8","internalType":"uint8"},{"name":"element","type":"uint8","internalType":"uint8"}],"outputs":[],"stateMutability":"nonpayable"},{"type":"function","name":"name","inputs":[],"outputs":[{"name":"","type":"string","internalType":"string"}],"stateMutability":"view"},{"type":"function","name":"ownerOf","inputs":[{"name":"tokenId","type":"uint256","internalType":"uint256"}],"outputs":[{"name":"","type":"address","internalType":"address"}],"stateMutability":"view"},{"type":"function","name":"publicMint","inputs":[{"name":"element","type":"uint8","internalType":"uint8"}],"outputs":[],"stateMutability":"payable"},{"type":"function","name":"renounceRole","inputs":[{"name":"role","type":"bytes32","internalType":"bytes32"},{"name":"callerConfirmation","type":"address","internalType":"address"}],"outputs":[],"stateMutability":"nonpayable"},{"type":"function","name":"revokeRole","inputs":[{"name":"role","type":"bytes32","internalType":"bytes32"},{"name":"account","type":"address","internalType":"address"}],"outputs":[],"stateMutability":"nonpayable"},{"type":"function","name":"safeTransferFrom","inputs":[{"name":"from","type":"address","internalType":"address"},{"name":"to","type":"address","internalType":"address"},{"name":"tokenId","type":"uint256","internalType":"uint256"}],"outputs":[],"stateMutability":"nonpayable"},{"type":"function","name":"safeTransferFrom","inputs":[{"name":"from","type":"address","internalType":"address"},{"name":"to","type":"address","internalType":"address"},{"name":"tokenId","type":"uint256","internalType":"uint256"},{"name":"data","type":"bytes","internalType":"bytes"}],"outputs":[],"stateMutability":"nonpayable"},{"type":"function","name":"setApprovalForAll","inputs":[{"name":"operator","type":"address","internalType":"address"},{"name":"approved","type":"bool","internalType":"bool"}],"outputs":[],"stateMutability":"nonpayable"},{"type":"function","name":"supportsInterface","inputs":[{"name":"interfaceId","type":"bytes4","internalType":"bytes4"}],"outputs":[{"name":"","type":"bool","internalType":"bool"}],"stateMutability":"view"},{"type":"function","name":"symbol","inputs":[],"outputs":[{"name":"","type":"string","internalType":"string"}],"stateMutability":"view"},{"type":"function","name":"tokenByIndex","inputs":[{"name":"index","type":"uint256","internalType":"uint256"}],"outputs":[{"name":"","type":"uint256","internalType":"uint256"}],"stateMutability":"view"},{"type":"function","name":"tokenOfOwnerByIndex","inputs":[{"name":"owner","type":"address","internalType":"address"},{"name":"index","type":"uint256","internalType":"uint256"}],"outputs":[{"name":"","type":"uint256","internalType":"uint256"}],"stateMutability":"view"},{"type":"function","name":"tokenURI","inputs":[{"name":"tokenId","type":"uint256","internalType":"uint256"}],"outputs":[{"name":"","type":"string","internalType":"string"}],"stateMutability":"view"},{"type":"function","name":"totalSupply","inputs":[],"outputs":[{"name":"","type":"uint256","internalType":"uint256"}],"stateMutability":"view"},{"type":"function","name":"transferFrom","inputs":[{"name":"from","type":"address","internalType":"address"},{"name":"to","type":"address","internalType":"address"},{"name":"tokenId","type":"uint256","internalType":"uint256"}],"outputs":[],"stateMutability":"nonpayable"},{"type":"function","name":"withdrawEth","inputs":[],"outputs":[],"stateMutability":"nonpayable"},{"type":"event","name":"Approval","inputs":[{"name":"owner","type":"address","indexed":true,"internalType":"address"},{"name":"approved","type":"address","indexed":true,"internalType":"address"},{"name":"tokenId","type":"uint256","indexed":true,"internalType":"uint256"}],"anonymous":false},{"type":"event","name":"ApprovalForAll","inputs":[{"name":"owner","type":"address","indexed":true,"internalType":"address"},{"name":"operator","type":"address","indexed":true,"internalType":"address"},{"name":"approved","type":"bool","indexed":false,"internalType":"bool"}],"anonymous":false},{"type":"event","name":"RoleAdminChanged","inputs":[{"name":"role","type":"bytes32","indexed":true,"internalType":"bytes32"},{"name":"previousAdminRole","type":"bytes32","indexed":true,"internalType":"bytes32"},{"name":"newAdminRole","type":"bytes32","indexed":true,"internalType":"bytes32"}],"anonymous":false},{"type":"event","name":"RoleGranted","inputs":[{"name":"role","type":"bytes32","indexed":true,"internalType":"bytes32"},{"name":"account","type":"address","indexed":true,"internalType":"address"},{"name":"sender","type":"address","indexed":true,"internalType":"address"}],"anonymous":false},{"type":"event","name":"RoleRevoked","inputs":[{"name":"role","type":"bytes32","indexed":true,"internalType":"bytes32"},{"name":"account","type":"address","indexed":true,"internalType":"address"},{"name":"sender","type":"address","indexed":true,"internalType":"address"}],"anonymous":false},{"type":"event","name":"Transfer","inputs":[{"name":"from","type":"address","indexed":true,"internalType":"address"},{"name":"to","type":"address","indexed":true,"internalType":"address"},{"name":"tokenId","type":"uint256","indexed":true,"internalType":"uint256"}],"anonymous":false},{"type":"error","name":"AccessControlBadConfirmation","inputs":[]},{"type":"error","name":"AccessControlUnauthorizedAccount","inputs":[{"name":"account","type":"address","internalType":"address"},{"name":"neededRole","type":"bytes32","internalType":"bytes32"}]},{"type":"error","name":"ERC721EnumerableForbiddenBatchMint","inputs":[]},{"type":"error","name":"ERC721IncorrectOwner","inputs":[{"name":"sender","type":"address","internalType":"address"},{"name":"tokenId","type":"uint256","internalType":"uint256"},{"name":"owner","type":"address","internalType":"address"}]},{"type":"error","name":"ERC721InsufficientApproval","inputs":[{"name":"operator","type":"address","internalType":"address"},{"name":"tokenId","type":"uint256","internalType":"uint256"}]},{"type":"error","name":"ERC721InvalidApprover","inputs":[{"name":"approver","type":"address","internalType":"address"}]},{"type":"error","name":"ERC721InvalidOperator","inputs":[{"name":"operator","type":"address","internalType":"address"}]},{"type":"error","name":"ERC721InvalidOwner","inputs":[{"name":"owner","type":"address","internalType":"address"}]},{"type":"error","name":"ERC721InvalidReceiver","inputs":[{"name":"receiver","type":"address","internalType":"address"}]},{"type":"error","name":"ERC721InvalidSender","inputs":[{"name":"sender","type":"address","internalType":"address"}]},{"type":"error","name":"ERC721NonexistentToken","inputs":[{"name":"tokenId","type":"uint256","internalType":"uint256"}]},{"type":"error","name":"ERC721OutOfBoundsIndex","inputs":[{"name":"owner","type":"address","internalType":"address"},{"name":"index","type":"uint256","internalType":"uint256"}]}],"bytecode":{"object":"0x60056102e08181526408ac2e4e8d60db1b6103005260a0908152610320828152642bb0ba32b960d91b6103405260c05260046103608181526315da5b9960e21b6103805260e0526103a0818152634669726560e01b6103c0526101005260036103e08181526249636560e81b61040052610120526009610420908152684c696768746e696e6760b81b6104405261014052600661046081815265506c61736d6160d01b610480526101605260076104a081815266546f726e61646f60c81b6104c0526101805260086104e090815267109b1a5e9e985c9960c21b610500526101a052610520818152665473756e616d6960c81b610540526101c052610560958652645175616b6560d81b610580526101e0959095526105a085815266496e6665726e6f60c81b6105c052610200526105e083815263486f6c7960e01b6106005261022052610620838152634461726b60e01b6106405261024052610660948552664772617669747960c81b61068052610260949094526106a09182526354696d6560e01b6106c052610280919091526106e09081526242696f60e81b610700526102a0526107606040526107209182526514dc1a5c9a5d60d21b610740526102c0919091526101d290600e90601261032c565b503480156101de575f5ffd5b50604051612be0380380612be08339810160408190526101fd916103df565b6040518060400160405280601081526020016f416c6368656d7920456c656d656e747360801b81525060405180604001604052806004815260200163454c454d60e01b815250815f908161025191906104a4565b50600161025e82826104a4565b5061026d91505f90503361027f565b506001600160a01b031660805261055e565b5f828152600a602090815260408083206001600160a01b038516845290915281205460ff16610323575f838152600a602090815260408083206001600160a01b03861684529091529020805460ff191660011790556102db3390565b6001600160a01b0316826001600160a01b0316847f2f8788117e7eff1d82e926ec794901d17c78024a50270940304540a733656f0d60405160405180910390a4506001610326565b505f5b92915050565b8260128101928215610365579160200282015b82811115610365578251829061035590826104a4565b509160200191906001019061033f565b50610371929150610375565b5090565b80821115610371575f6103888282610391565b50600101610375565b50805461039d90610420565b5f825580601f106103ac575050565b601f0160209004905f5260205f20908101906103c891906103cb565b50565b5b80821115610371575f81556001016103cc565b5f602082840312156103ef575f5ffd5b81516001600160a01b0381168114610405575f5ffd5b9392505050565b634e487b7160e01b5f52604160045260245ffd5b600181811c9082168061043457607f821691505b60208210810361045257634e487b7160e01b5f52602260045260245ffd5b50919050565b601f82111561049f57805f5260205f20601f840160051c8101602085101561047d5750805b601f840160051c820191505b8181101561049c575f8155600101610489565b50505b505050565b81516001600160401b038111156104bd576104bd61040c565b6104d1816104cb8454610420565b84610458565b6020601f821160018114610503575f83156104ec5750848201515b5f19600385901b1c1916600184901b17845561049c565b5f84815260208120601f198516915b828110156105325787850151825560209485019460019092019101610512565b508482101561054f57868401515f19600387901b60f8161c191681555b50505050600190811b01905550565b60805161266361057d5f395f818161033b0152610a9101526126635ff3fe6080604052600436106101db575f3560e01c80636352211e116100fd578063a217fddf11610092578063c87b56dd11610062578063c87b56dd146105c0578063d5391393146105df578063d547741f14610612578063e985e9c514610631575f5ffd5b8063a217fddf14610541578063a22cb46514610554578063b88d4fde14610573578063c26b265f14610592575f5ffd5b806385f438c1116100cd57806385f438c1146104c757806391d14854146104fa57806395d89b4114610519578063a0ef91df1461052d575f5ffd5b80636352211e1461043657806370a0823114610455578063852d650c14610474578063858e83b5146104b4575f5ffd5b80632d2c55651161017357806336568abe1161014357806336568abe146103ba57806342842e0e146103d957806342966c68146103f85780634f6ccce714610417575f5ffd5b80632d2c55651461032a5780632f2ff15d1461035d5780632f745c591461037c578063352926a81461039b575f5ffd5b806318160ddd116101ae57806318160ddd1461028c57806323b872dd146102aa578063248a9ca3146102c9578063282c51f3146102f7575f5ffd5b806301ffc9a7146101df57806306fdde0314610213578063081812fc14610234578063095ea7b31461026b575b5f5ffd5b3480156101ea575f5ffd5b506101fe6101f9366004611ce5565b610650565b60405190151581526020015b60405180910390f35b34801561021e575f5ffd5b50610227610660565b60405161020a9190611d2e565b34801561023f575f5ffd5b5061025361024e366004611d40565b6106ef565b6040516001600160a01b03909116815260200161020a565b348015610276575f5ffd5b5061028a610285366004611d72565b610716565b005b348015610297575f5ffd5b506008545b60405190815260200161020a565b3480156102b5575f5ffd5b5061028a6102c4366004611d9a565b610725565b3480156102d4575f5ffd5b5061029c6102e3366004611d40565b5f908152600a602052604090206001015490565b348015610302575f5ffd5b5061029c7f3c11d16cbaffd01df69ce1c404f6340ee057498f5f00246190ea54220576a84881565b348015610335575f5ffd5b506102537f000000000000000000000000000000000000000000000000000000000000000081565b348015610368575f5ffd5b5061028a610377366004611dd4565b6107b3565b348015610387575f5ffd5b5061029c610396366004611d72565b6107d7565b3480156103a6575f5ffd5b5061028a6103b5366004611e0e565b61083a565b3480156103c5575f5ffd5b5061028a6103d4366004611dd4565b6108c3565b3480156103e4575f5ffd5b5061028a6103f3366004611d9a565b6108fb565b348015610403575f5ffd5b5061028a610412366004611d40565b610915565b348015610422575f5ffd5b5061029c610431366004611d40565b610948565b348015610441575f5ffd5b50610253610450366004611d40565b61099d565b348015610460575f5ffd5b5061029c61046f366004611e4e565b6109a7565b34801561047f575f5ffd5b506104a261048e366004611d40565b5f908152600c602052604090205460ff1690565b60405160ff909116815260200161020a565b61028a6104c2366004611e67565b6109ec565b3480156104d2575f5ffd5b5061029c7f10dac8c06a04bec0b551627dad28bc00d6516b0caacd1c7b345fcdb5211334e481565b348015610505575f5ffd5b506101fe610514366004611dd4565b610ba5565b348015610524575f5ffd5b50610227610bcf565b348015610538575f5ffd5b5061028a610bde565b34801561054c575f5ffd5b5061029c5f81565b34801561055f575f5ffd5b5061028a61056e366004611e80565b610c91565b34801561057e575f5ffd5b5061028a61058d366004611ecd565b610c9c565b34801561059d575f5ffd5b506104a26105ac366004611d40565b5f908152600d602052604090205460ff1690565b3480156105cb575f5ffd5b506102276105da366004611d40565b610cb4565b3480156105ea575f5ffd5b5061029c7f9f2df0fed2c77648de5860a4cc508cd0818c85b8b8a1ab4ceeef8d981c8956a681565b34801561061d575f5ffd5b5061028a61062c366004611dd4565b610df8565b34801561063c575f5ffd5b506101fe61064b366004611faa565b610e1c565b5f61065a82610e49565b92915050565b60605f805461066e90611fd2565b80601f016020809104026020016040519081016040528092919081815260200182805461069a90611fd2565b80156106e55780601f106106bc576101008083540402835291602001916106e5565b820191905f5260205f20905b8154815290600101906020018083116106c857829003601f168201915b5050505050905090565b5f6106f982610e6d565b505f828152600460205260409020546001600160a01b031661065a565b610721828233610ea5565b5050565b6001600160a01b03821661075357604051633250574960e11b81525f60048201526024015b60405180910390fd5b5f61075f838333610eb2565b9050836001600160a01b0316816001600160a01b0316146107ad576040516364283d7b60e01b81526001600160a01b038086166004830152602482018490528216604482015260640161074a565b50505050565b5f828152600a60205260409020600101546107cd81610ec8565b6107ad8383610ed5565b5f6107e1836109a7565b82106108125760405163295f44f760e21b81526001600160a01b03841660048201526024810183905260440161074a565b506001600160a01b03919091165f908152600660209081526040808320938352929052205490565b7f9f2df0fed2c77648de5860a4cc508cd0818c85b8b8a1ab4ceeef8d981c8956a661086481610ec8565b600b545f818152600d60209081526040808320805460ff808a1660ff1992831617909255600c90935292208054928616929091169190911790556108a88582610f66565b600b8054905f6108b78361201e565b91905055505050505050565b6001600160a01b03811633146108ec5760405163334bd91960e11b815260040160405180910390fd5b6108f68282610fc7565b505050565b6108f683838360405180602001604052805f815250610c9c565b7f3c11d16cbaffd01df69ce1c404f6340ee057498f5f00246190ea54220576a84861093f81610ec8565b61072182611032565b5f61095260085490565b821061097a5760405163295f44f760e21b81525f60048201526024810183905260440161074a565b6008828154811061098d5761098d612036565b905f5260205f2001549050919050565b5f61065a82610e6d565b5f6001600160a01b0382166109d1576040516322718ad960e21b81525f600482015260240161074a565b506001600160a01b03165f9081526003602052604090205490565b66071afd498d0000341015610a3a5760405162461bcd60e51b8152602060048201526014602482015273125b9cdd59999a58da595b9d081c185e5b595b9d60621b604482015260640161074a565b60058160ff161115610a8e5760405162461bcd60e51b815260206004820152601a60248201527f496e76616c696420656c656d656e7420666f7220546965722031000000000000604482015260640161074a565b5f7f00000000000000000000000000000000000000000000000000000000000000006001600160a01b0316346040515f6040518083038185875af1925050503d805f8114610af7576040519150601f19603f3d011682016040523d82523d5f602084013e610afc565b606091505b5050905080610b4d5760405162461bcd60e51b815260206004820152601860248201527f5472656173757279207472616e73666572206661696c65640000000000000000604482015260640161074a565b600b545f818152600d602090815260408083208054600160ff1991821617909155600c909252909120805490911660ff8516179055610b8c3382610f66565b600b8054905f610b9b8361201e565b9190505550505050565b5f918252600a602090815260408084206001600160a01b0393909316845291905290205460ff1690565b60606001805461066e90611fd2565b7f10dac8c06a04bec0b551627dad28bc00d6516b0caacd1c7b345fcdb5211334e4610c0881610ec8565b6040515f90339047908381818185875af1925050503d805f8114610c47576040519150601f19603f3d011682016040523d82523d5f602084013e610c4c565b606091505b50509050806107215760405162461bcd60e51b815260206004820152601160248201527015da5d1a191c985dd85b0819985a5b1959607a1b604482015260640161074a565b61072133838361106a565b610ca7848484610725565b6107ad3385858585611108565b6060610cbf82610e6d565b505f828152600c6020526040812054600e9060ff1660128110610ce457610ce4612036565b018054610cf090611fd2565b80601f0160208091040260200160405190810160405280929190818152602001828054610d1c90611fd2565b8015610d675780601f10610d3e57610100808354040283529160200191610d67565b820191905f5260205f20905b815481529060010190602001808311610d4a57829003601f168201915b5050505f868152600d602052604081205493945092610d8b925060ff169050611230565b90505f610dcc838385610da5610da08a6112c0565b6114b4565b604051602001610db89493929190612061565b6040516020818303038152906040526114b4565b905080604051602001610ddf9190612205565b6040516020818303038152906040529350505050919050565b5f828152600a6020526040902060010154610e1281610ec8565b6107ad8383610fc7565b6001600160a01b039182165f90815260056020908152604080832093909416825291909152205460ff1690565b5f6001600160e01b03198216637965db0b60e01b148061065a575061065a826114da565b5f818152600260205260408120546001600160a01b03168061065a57604051637e27328960e01b81526004810184905260240161074a565b6108f683838360016114fe565b5f610ebe848484611602565b90505b9392505050565b610ed281336116cd565b50565b5f610ee08383610ba5565b610f5f575f838152600a602090815260408083206001600160a01b03861684529091529020805460ff19166001179055610f173390565b6001600160a01b0316826001600160a01b0316847f2f8788117e7eff1d82e926ec794901d17c78024a50270940304540a733656f0d60405160405180910390a450600161065a565b505f61065a565b6001600160a01b038216610f8f57604051633250574960e11b81525f600482015260240161074a565b5f610f9b83835f610eb2565b90506001600160a01b038116156108f6576040516339e3563760e11b81525f600482015260240161074a565b5f610fd28383610ba5565b15610f5f575f838152600a602090815260408083206001600160a01b0386168085529252808320805460ff1916905551339286917ff6391f5c32d9c69d2a47ea670b442974b53935d1edc7fd64eb21e047a839171b9190a450600161065a565b5f61103e5f835f610eb2565b90506001600160a01b03811661072157604051637e27328960e01b81526004810183905260240161074a565b6001600160a01b03821661109c57604051630b61174360e31b81526001600160a01b038316600482015260240161074a565b6001600160a01b038381165f81815260056020908152604080832094871680845294825291829020805460ff191686151590811790915591519182527f17307eab39ab6107e8899845ad3d59bd9653f200f220920489ca2b5937696c31910160405180910390a3505050565b6001600160a01b0383163b1561122957604051630a85bd0160e11b81526001600160a01b0384169063150b7a029061114a908890889087908790600401612236565b6020604051808303815f875af1925050508015611184575060408051601f3d908101601f1916820190925261118191810190612272565b60015b6111eb573d8080156111b1576040519150601f19603f3d011682016040523d82523d5f602084013e6111b6565b606091505b5080515f036111e357604051633250574960e11b81526001600160a01b038516600482015260240161074a565b805160208201fd5b6001600160e01b03198116630a85bd0160e11b1461122757604051633250574960e11b81526001600160a01b038516600482015260240161074a565b505b5050505050565b60605f61123c83611706565b60010190505f8167ffffffffffffffff81111561125b5761125b611eb9565b6040519080825280601f01601f191660200182016040528015611285576020820181803683370190505b5090508181016020015b5f19016f181899199a1a9b1b9c1cb0b131b232b360811b600a86061a8153600a850494508461128f57509392505050565b5f818152600d6020908152604080832054600c90925282205460609260ff9283169290911690600e82601281106112f9576112f9612036565b01805461130590611fd2565b80601f016020809104026020016040519081016040528092919081815260200182805461133190611fd2565b801561137c5780601f106113535761010080835404028352916020019161137c565b820191905f5260205f20905b81548152906001019060200180831161135f57829003601f168201915b505050505090505f8360ff166003146113e4578360ff166002146113bf576040518060400160405280600781526020016611a1a21ba3199960c91b815250611405565b604051806040016040528060078152602001660234330433043360cc1b815250611405565b604051806040016040528060078152602001660234646443730360cc1b8152505b90505f8460ff16600314611464578460ff1660021461144057604051806040016040528060048152602001631319585960e21b815250611482565b6040518060400160405280600681526020016529b4b63b32b960d11b815250611482565b6040518060400160405280600481526020016311dbdb1960e21b8152505b90508183826040516020016114999392919061228d565b60405160208183030381529060405295505050505050919050565b606061065a826040518060600160405280604081526020016125ee6040913960016117dd565b5f6001600160e01b0319821663780e9d6360e01b148061065a575061065a82611958565b808061151257506001600160a01b03821615155b156115d3575f61152184610e6d565b90506001600160a01b0383161580159061154d5750826001600160a01b0316816001600160a01b031614155b8015611560575061155e8184610e1c565b155b156115895760405163a9fbf51f60e01b81526001600160a01b038416600482015260240161074a565b81156115d15783856001600160a01b0316826001600160a01b03167f8c5be1e5ebec7d5bd14f71427d1e84f3dd0314c0f7b2291e5b200ac8c7c3b92560405160405180910390a45b505b50505f90815260046020526040902080546001600160a01b0319166001600160a01b0392909216919091179055565b5f5f61160f8585856119a7565b90506001600160a01b03811661166b5761166684600880545f838152600960205260408120829055600182018355919091527ff3f7a9fe364faab93b216da50a3214154f22a0a2b415b23a84c8169e8b636ee30155565b61168e565b846001600160a01b0316816001600160a01b03161461168e5761168e8185611a99565b6001600160a01b0385166116aa576116a584611b16565b610ebe565b846001600160a01b0316816001600160a01b031614610ebe57610ebe8585611bbd565b6116d78282610ba5565b6107215760405163e2517d3f60e01b81526001600160a01b03821660048201526024810183905260440161074a565b5f8072184f03e93ff9f4daa797ed6e38ed64bf6a1f0160401b83106117445772184f03e93ff9f4daa797ed6e38ed64bf6a1f0160401b830492506040015b6d04ee2d6d415b85acef81000000008310611770576d04ee2d6d415b85acef8100000000830492506020015b662386f26fc10000831061178e57662386f26fc10000830492506010015b6305f5e10083106117a6576305f5e100830492506008015b61271083106117ba57612710830492506004015b606483106117cc576064830492506002015b600a831061065a5760010192915050565b606083515f036117fb575060408051602081019091525f8152610ec1565b5f8261182b57600385516004611811919061257d565b61181c906002612594565b61182691906125a7565b611850565b60038551600261183b9190612594565b61184591906125a7565b61185090600461257d565b90505f8167ffffffffffffffff81111561186c5761186c611eb9565b6040519080825280601f01601f191660200182016040528015611896576020820181803683370190505b509050600185016020820187885189016020810180515f82525b8284101561190b576003840193508351603f8160121c168701518653600186019550603f81600c1c168701518653600186019550603f8160061c168701518653600186019550603f81168701518653506001850194506118b0565b90525050851561194c5760038851066001811461192f57600281146119425761194a565b603d6001830353603d600283035361194a565b603d60018303535b505b50909695505050505050565b5f6001600160e01b031982166380ac58cd60e01b148061198857506001600160e01b03198216635b5e139f60e01b145b8061065a57506301ffc9a760e01b6001600160e01b031983161461065a565b5f828152600260205260408120546001600160a01b03908116908316156119d3576119d3818486611c0b565b6001600160a01b03811615611a0d576119ee5f855f5f6114fe565b6001600160a01b0381165f90815260036020526040902080545f190190555b6001600160a01b03851615611a3b576001600160a01b0385165f908152600360205260409020805460010190555b5f8481526002602052604080822080546001600160a01b0319166001600160a01b0389811691821790925591518793918516917fddf252ad1be2c89b69c2b068fc378daa952ba7f163c4a11628f55a4df523b3ef91a4949350505050565b5f611aa3836109a7565b5f838152600760209081526040808320546001600160a01b0388168452600690925290912091925090818314611af8575f83815260208281526040808320548584528184208190558352600790915290208290555b5f938452600760209081526040808620869055938552525081205550565b6008545f90611b27906001906125c6565b5f8381526009602052604081205460088054939450909284908110611b4e57611b4e612036565b905f5260205f20015490508060088381548110611b6d57611b6d612036565b5f918252602080832090910192909255828152600990915260408082208490558582528120556008805480611ba457611ba46125d9565b600190038181905f5260205f20015f9055905550505050565b5f6001611bc9846109a7565b611bd391906125c6565b6001600160a01b039093165f908152600660209081526040808320868452825280832085905593825260079052919091209190915550565b611c16838383611c6f565b6108f6576001600160a01b038316611c4457604051637e27328960e01b81526004810182905260240161074a565b60405163177e802f60e01b81526001600160a01b03831660048201526024810182905260440161074a565b5f6001600160a01b03831615801590610ebe5750826001600160a01b0316846001600160a01b03161480611ca85750611ca88484610e1c565b80610ebe5750505f908152600460205260409020546001600160a01b03908116911614919050565b6001600160e01b031981168114610ed2575f5ffd5b5f60208284031215611cf5575f5ffd5b8135610ec181611cd0565b5f81518084528060208401602086015e5f602082860101526020601f19601f83011685010191505092915050565b602081525f610ec16020830184611d00565b5f60208284031215611d50575f5ffd5b5035919050565b80356001600160a01b0381168114611d6d575f5ffd5b919050565b5f5f60408385031215611d83575f5ffd5b611d8c83611d57565b946020939093013593505050565b5f5f5f60608486031215611dac575f5ffd5b611db584611d57565b9250611dc360208501611d57565b929592945050506040919091013590565b5f5f60408385031215611de5575f5ffd5b82359150611df560208401611d57565b90509250929050565b803560ff81168114611d6d575f5ffd5b5f5f5f60608486031215611e20575f5ffd5b611e2984611d57565b9250611e3760208501611dfe565b9150611e4560408501611dfe565b90509250925092565b5f60208284031215611e5e575f5ffd5b610ec182611d57565b5f60208284031215611e77575f5ffd5b610ec182611dfe565b5f5f60408385031215611e91575f5ffd5b611e9a83611d57565b915060208301358015158114611eae575f5ffd5b809150509250929050565b634e487b7160e01b5f52604160045260245ffd5b5f5f5f5f60808587031215611ee0575f5ffd5b611ee985611d57565b9350611ef760208601611d57565b925060408501359150606085013567ffffffffffffffff811115611f19575f5ffd5b8501601f81018713611f29575f5ffd5b803567ffffffffffffffff811115611f4357611f43611eb9565b604051601f8201601f19908116603f0116810167ffffffffffffffff81118282101715611f7257611f72611eb9565b604052818152828201602001891015611f89575f5ffd5b816020840160208301375f6020838301015280935050505092959194509250565b5f5f60408385031215611fbb575f5ffd5b611fc483611d57565b9150611df560208401611d57565b600181811c90821680611fe657607f821691505b60208210810361200457634e487b7160e01b5f52602260045260245ffd5b50919050565b634e487b7160e01b5f52601160045260245ffd5b5f6001820161202f5761202f61200a565b5060010190565b634e487b7160e01b5f52603260045260245ffd5b5f81518060208401855e5f93019283525090919050565b693d913730b6b2911d101160b11b81525f61207f600a83018761204a565b61088b60f21b81527f226465736372697074696f6e223a2022416e20416c6368656d6963616c20456c60028201527f656d656e74207573656420666f72207472616e736d75746174696f6e20696e206022820152701d1a1948165a595b1915985d5b1d0b888b607a1b60428201526e2261747472696275746573223a205b60881b60538201527f7b2274726169745f74797065223a202254696572222c202276616c7565223a206062820152601160f91b6082820152612142608382018761204a565b62089f4b60ea1b81529050600381016121f96121a16121f36121bd6121af8361219b877f7b2274726169745f74797065223a2022456c656d656e74222c202276616c7565815263111d101160e11b602082015260240190565b8c61204a565b61227d60f01b815260020190565b61174b60f21b815260020190565b7f22696d616765223a2022646174613a696d6167652f7376672b786d6c3b626173815263194d8d0b60e21b602082015260240190565b8761204a565b98975050505050505050565b7f646174613a6170706c69636174696f6e2f6a736f6e3b6261736536342c00000081525f610ec1601d83018461204a565b6001600160a01b03858116825284166020820152604081018390526080606082018190525f9061226890830184611d00565b9695505050505050565b5f60208284031215612282575f5ffd5b8151610ec181611cd0565b7f3c73766720786d6c6e733d22687474703a2f2f7777772e77332e6f72672f323081527f30302f73766722207072657365727665417370656374526174696f3d22784d6960208201527f6e594d696e206d656574222076696577426f783d223020302033353020333530604082015261111f60f11b60608201527f3c7374796c653e2e62617365207b2066696c6c3a2077686974653b20666f6e7460628201527f2d66616d696c793a2073657269663b20666f6e742d73697a653a20323470783b608282015269103e9e17b9ba3cb6329f60b11b60a28201527f3c726563742077696474683d223130302522206865696768743d22313030252260ac82015271103334b6361e91119830983098309110179f60711b60cc8201527f3c7265637420783d2231302220793d223130222077696474683d22333330222060de8201527f6865696768743d22333330222066696c6c3d226e6f6e6522207374726f6b653d60fe820152601160f91b61011e8201525f6125746125626124b561255c6124c8826124af61244461242361011f8b018e61204a565b74111039ba3937b5b296bbb4b23a341e911a9110179f60591b815260150190565b7f3c7465787420783d223530252220793d223430252220636c6173733d2262617381527f652220646f6d696e616e742d626173656c696e653d226d6964646c65222074656020820152723c3a16b0b731b437b91e9136b4b2323632911f60691b604082015260530190565b8a61204a565b661e17ba32bc3a1f60c91b815260070190565b7f3c7465787420783d223530252220793d223630252220636c6173733d2262617381527f652220646f6d696e616e742d626173656c696e653d226d6964646c652220746560208201527f78742d616e63686f723d226d6964646c652220666f6e742d73697a653d2231386040820152750383c11103334b6361e91119c1c1c111f2a34b2b91d160551b606082015260760190565b8661204a565b651e17b9bb339f60d11b815260060190565b95945050505050565b808202811582820484141761065a5761065a61200a565b8082018082111561065a5761065a61200a565b5f826125c157634e487b7160e01b5f52601260045260245ffd5b500490565b8181038181111561065a5761065a61200a565b634e487b7160e01b5f52603160045260245ffdfe4142434445464748494a4b4c4d4e4f505152535455565758595a6162636465666768696a6b6c6d6e6f707172737475767778797a303132333435363738392b2fa26469706673582212202a5272a91026f75500dac3d2a7b9e1c3c94473ea509a3a79976c1259b7b4e72164736f6c634300081e0033","linkReferences":{}},"methodIdentifiers":{"BURNER_ROLE()":"282c51f3","DEFAULT_ADMIN_ROLE()":"a217fddf","MINTER_ROLE()":"d5391393","TREASURY()":"2d2c5565","WITHDRAWER_ROLE()":"85f438c1","approve(address,uint256)":"095ea7b3","balanceOf(address)":"70a08231","burn(uint256)":"42966c68","getApproved(uint256)":"081812fc","getRoleAdmin(bytes32)":"248a9ca3","getTokenElement(uint256)":"852d650c","getTokenTier(uint256)":"c26b265f","grantRole(bytes32,address)":"2f2ff15d","hasRole(bytes32,address)":"91d14854","isApprovedForAll(address,address)":"e985e9c5","mint(address,uint8,uint8)":"352926a8","name()":"06fdde03","ownerOf(uint256)":"6352211e","publicMint(uint8)":"858e83b5","renounceRole(bytes32,address)":"36568abe","revokeRole(bytes32,address)":"d547741f","safeTransferFrom(address,address,uint256)":"42842e0e","safeTransferFrom(address,address,uint256,bytes)":"b88d4fde","setApprovalForAll(address,bool)":"a22cb465","supportsInterface(bytes4)":"01ffc9a7","symbol()":"95d89b41","tokenByIndex(uint256)":"4f6ccce7","tokenOfOwnerByIndex(address,uint256)":"2f745c59","tokenURI(uint256)":"c87b56dd","totalSupply()":"18160ddd","transferFrom(address,address,uint256)":"23b872dd","withdrawEth()":"a0ef91df"},"id":59}