{"abi":[{"type":"constructor","inputs":[],"stateMutability":"nonpayable"},{"type":"receive","stateMutability":"payable"},{"type":"function","name":"owner","inputs":[],"outputs":[{"name":"","type":"address","internalType":"address"}],"stateMutability":"view"},{"type":"function","name":"renounceOwnership","inputs":[],"outputs":[],"stateMutability":"nonpayable"},{"type":"function","name":"transferOwnership","inputs":[{"name":"newOwner","type":"address","internalType":"address"}],"outputs":[],"stateMutability":"nonpayable"},{"type":"function","name":"withdrawEth","inputs":[{"name":"_to","type":"address","internalType":"address payable"},{"name":"_amount","type":"uint256","internalType":"uint256"}],"outputs":[],"stateMutability":"nonpayable"},{"type":"function","name":"withdrawFees","inputs":[{"name":"_token","type":"address","internalType":"address"},{"name":"_to","type":"address","internalType":"address"},{"name":"_amount","type":"uint256","internalType":"uint256"}],"outputs":[],"stateMutability":"nonpayable"},{"type":"event","name":"FeesReceived","inputs":[{"name":"token","type":"address","indexed":true,"internalType":"address"},{"name":"amount","type":"uint256","indexed":false,"internalType":"uint256"}],"anonymous":false},{"type":"event","name":"FeesWithdrawn","inputs":[{"name":"token","type":"address","indexed":true,"internalType":"address"},{"name":"to","type":"address","indexed":true,"internalType":"address"},{"name":"amount","type":"uint256","indexed":false,"internalType":"uint256"}],"anonymous":false},{"type":"event","name":"OwnershipTransferred","inputs":[{"name":"previousOwner","type":"address","indexed":true,"internalType":"address"},{"name":"newOwner","type":"address","indexed":true,"internalType":"address"}],"anonymous":false},{"type":"error","name":"OwnableInvalidOwner","inputs":[{"name":"owner","type":"address","internalType":"address"}]},{"type":"error","name":"OwnableUnauthorizedAccount","inputs":[{"name":"account","type":"address","internalType":"address"}]},{"type":"error","name":"SafeERC20FailedOperation","inputs":[{"name":"token","type":"address","internalType":"address"}]}],"bytecode":{"object":"0x608080604052346071573315605e575f8054336001600160a01b0319821681178355916001600160a01b03909116907f8be0079c531659141344cd1fd0a4f28419497f9722a3daafe3b4186f6b6457e09080a361049190816100768239f35b631e4fbdf760e01b5f525f60045260245ffd5b5f80fdfe60806040526004361015610045575b3615610018575f80fd5b5f7f2ccfc58c2cef4ee590b5f16be0548cc54afc12e1c66a67b362b7d640fd16bb2d6020604051348152a2005b5f3560e01c80631b9a91a4146102da578063715018a6146102835780638da5cb5b1461025c578063e55dc4e6146101095763f2fde38b0361000e5734610105576020366003190112610105576100996103b2565b6100a1610435565b6001600160a01b031680156100f2575f80546001600160a01b03198116831782556001600160a01b0316907f8be0079c531659141344cd1fd0a4f28419497f9722a3daafe3b4186f6b6457e09080a3005b631e4fbdf760e01b5f525f60045260245ffd5b5f80fd5b34610105576060366003190112610105576101226103b2565b6024356001600160a01b03811691908290036101055760443590610144610435565b6040516370a0823160e01b81523060048201526001600160a01b03919091169190602081602481865afa80156102515782905f9061021b575b610189925010156103c8565b6040519063a9059cbb60e01b5f52836004528060245260205f60448180875af160015f51148116156101fc575b82604052156101e957816020917f5e110f8bc8a20b65dcc87f224bdf1cc039346e267118bae2739847f07321ffa89352a3005b82635274afe760e01b5f5260045260245ffd5b600181151661021257833b15153d1516166101b6565b823d5f823e3d90fd5b50506020813d602011610249575b8161023660209383610413565b810103126101055781610189915161017d565b3d9150610229565b6040513d5f823e3d90fd5b34610105575f366003190112610105575f546040516001600160a01b039091168152602090f35b34610105575f3660031901126101055761029b610435565b5f80546001600160a01b0319811682556001600160a01b03167f8be0079c531659141344cd1fd0a4f28419497f9722a3daafe3b4186f6b6457e08280a3005b34610105576040366003190112610105576004356001600160a01b03811690819003610105575f8080809360243590610311610435565b61031d824710156103c8565b5af13d156103ad573d67ffffffffffffffff8111610399576040519061034d601f8201601f191660200183610413565b81525f60203d92013e5b1561035e57005b60405162461bcd60e51b8152602060048201526013602482015272115512081d1c985b9cd9995c8819985a5b1959606a1b6044820152606490fd5b634e487b7160e01b5f52604160045260245ffd5b610357565b600435906001600160a01b038216820361010557565b156103cf57565b606460405162461bcd60e51b815260206004820152602060248201527f496e73756666696369656e742062616c616e636520696e2074726561737572796044820152fd5b90601f8019910116810190811067ffffffffffffffff82111761039957604052565b5f546001600160a01b0316330361044857565b63118cdaa760e01b5f523360045260245ffdfea2646970667358221220de6befddfaaf4f79bbb38d365f4c422dc4935e2bc95a6a55ec2eea00f0dfa70964736f6c634300081e0033","linkReferences":{}},"methodIdentifiers":{"owner()":"8da5cb5b","renounceOwnership()":"715018a6","transferOwnership(address)":"f2fde38b","withdrawEth(address,uint256)":"1b9a91a4","withdrawFees(address,address,uint256)":"e55dc4e6"},"id":83}