{"abi":[{"type":"constructor","inputs":[{"name":"_positionManager","type":"address","internalType":"address"},{"name":"_swapRouter","type":"address","internalType":"address"},{"name":"_pool","type":"address","internalType":"address"},{"name":"_elementNFT","type":"address","internalType":"address"},{"name":"_weth","type":"address","internalType":"address"},{"name":"_usdc","type":"address","internalType":"address"},{"name":"_paymaster","type":"address","internalType":"address"}],"stateMutability":"nonpayable"},{"type":"function","name":"I_ELEMENT_NFT","inputs":[],"outputs":[{"name":"","type":"address","internalType":"contract ElementNFT"}],"stateMutability":"view"},{"type":"function","name":"PAYMASTER","inputs":[],"outputs":[{"name":"","type":"address","internalType":"address"}],"stateMutability":"view"},{"type":"function","name":"POOL","inputs":[],"outputs":[{"name":"","type":"address","internalType":"contract IUniswapV3Pool"}],"stateMutability":"view"},{"type":"function","name":"POSITION_MANAGER","inputs":[],"outputs":[{"name":"","type":"address","internalType":"contract INonfungiblePositionManager"}],"stateMutability":"view"},{"type":"function","name":"SWAP_ROUTER","inputs":[],"outputs":[{"name":"","type":"address","internalType":"contract ISwapRouter"}],"stateMutability":"view"},{"type":"function","name":"USDC","inputs":[],"outputs":[{"name":"","type":"address","internalType":"contract IERC20"}],"stateMutability":"view"},{"type":"function","name":"WETH","inputs":[],"outputs":[{"name":"","type":"address","internalType":"contract IERC20"}],"stateMutability":"view"},{"type":"function","name":"_attemptSwap","inputs":[{"name":"wethAmount","type":"uint256","internalType":"uint256"}],"outputs":[{"name":"","type":"uint256","internalType":"uint256"}],"stateMutability":"nonpayable"},{"type":"function","name":"claimYield","inputs":[{"name":"tokenId","type":"uint256","internalType":"uint256"}],"outputs":[],"stateMutability":"nonpayable"},{"type":"function","name":"emergencyWithdraw","inputs":[],"outputs":[],"stateMutability":"nonpayable"},{"type":"function","name":"getPendingReward","inputs":[{"name":"tokenId","type":"uint256","internalType":"uint256"}],"outputs":[{"name":"","type":"uint256","internalType":"uint256"}],"stateMutability":"view"},{"type":"function","name":"getUserStakedTokens","inputs":[{"name":"user","type":"address","internalType":"address"}],"outputs":[{"name":"","type":"uint256[]","internalType":"uint256[]"}],"stateMutability":"view"},{"type":"function","name":"onERC721Received","inputs":[{"name":"","type":"address","internalType":"address"},{"name":"","type":"address","internalType":"address"},{"name":"","type":"uint256","internalType":"uint256"},{"name":"","type":"bytes","internalType":"bytes"}],"outputs":[{"name":"","type":"bytes4","internalType":"bytes4"}],"stateMutability":"pure"},{"type":"function","name":"owner","inputs":[],"outputs":[{"name":"","type":"address","internalType":"address"}],"stateMutability":"view"},{"type":"function","name":"rebalance","inputs":[],"outputs":[],"stateMutability":"nonpayable"},{"type":"function","name":"renounceOwnership","inputs":[],"outputs":[],"stateMutability":"nonpayable"},{"type":"function","name":"sAccRewardPerWeight","inputs":[],"outputs":[{"name":"","type":"uint256","internalType":"uint256"}],"stateMutability":"view"},{"type":"function","name":"sLastPositionId","inputs":[],"outputs":[{"name":"","type":"uint256","internalType":"uint256"}],"stateMutability":"view"},{"type":"function","name":"sNftOwner","inputs":[{"name":"","type":"uint256","internalType":"uint256"}],"outputs":[{"name":"","type":"address","internalType":"address"}],"stateMutability":"view"},{"type":"function","name":"sRewardDebt","inputs":[{"name":"","type":"uint256","internalType":"uint256"}],"outputs":[{"name":"","type":"uint256","internalType":"uint256"}],"stateMutability":"view"},{"type":"function","name":"sStakedTier","inputs":[{"name":"","type":"uint256","internalType":"uint256"}],"outputs":[{"name":"","type":"uint8","internalType":"uint8"}],"stateMutability":"view"},{"type":"function","name":"sTotalUnclaimedYield","inputs":[],"outputs":[{"name":"","type":"uint256","internalType":"uint256"}],"stateMutability":"view"},{"type":"function","name":"sTotalWeight","inputs":[],"outputs":[{"name":"","type":"uint256","internalType":"uint256"}],"stateMutability":"view"},{"type":"function","name":"stake","inputs":[{"name":"tokenId","type":"uint256","internalType":"uint256"},{"name":"tier","type":"uint8","internalType":"uint8"}],"outputs":[],"stateMutability":"nonpayable"},{"type":"function","name":"transferOwnership","inputs":[{"name":"newOwner","type":"address","internalType":"address"}],"outputs":[],"stateMutability":"nonpayable"},{"type":"function","name":"unstake","inputs":[{"name":"tokenId","type":"uint256","internalType":"uint256"}],"outputs":[],"stateMutability":"nonpayable"},{"type":"event","name":"OwnershipTransferred","inputs":[{"name":"previousOwner","type":"address","indexed":true,"internalType":"address"},{"name":"newOwner","type":"address","indexed":true,"internalType":"address"}],"anonymous":false},{"type":"event","name":"Rebalanced","inputs":[{"name":"positionId","type":"uint256","indexed":true,"internalType":"uint256"},{"name":"wethCollected","type":"uint256","indexed":false,"internalType":"uint256"},{"name":"usdcDistributed","type":"uint256","indexed":false,"internalType":"uint256"},{"name":"treasuryTax","type":"uint256","indexed":false,"internalType":"uint256"}],"anonymous":false},{"type":"event","name":"Staked","inputs":[{"name":"user","type":"address","indexed":true,"internalType":"address"},{"name":"tokenId","type":"uint256","indexed":true,"internalType":"uint256"},{"name":"tier","type":"uint8","indexed":false,"internalType":"uint8"},{"name":"weight","type":"uint256","indexed":false,"internalType":"uint256"}],"anonymous":false},{"type":"event","name":"Unstaked","inputs":[{"name":"user","type":"address","indexed":true,"internalType":"address"},{"name":"tokenId","type":"uint256","indexed":true,"internalType":"uint256"},{"name":"reward","type":"uint256","indexed":false,"internalType":"uint256"}],"anonymous":false},{"type":"event","name":"YieldClaimed","inputs":[{"name":"user","type":"address","indexed":true,"internalType":"address"},{"name":"tokenId","type":"uint256","indexed":true,"internalType":"uint256"},{"name":"reward","type":"uint256","indexed":false,"internalType":"uint256"}],"anonymous":false},{"type":"error","name":"OwnableInvalidOwner","inputs":[{"name":"owner","type":"address","internalType":"address"}]},{"type":"error","name":"OwnableUnauthorizedAccount","inputs":[{"name":"account","type":"address","internalType":"address"}]},{"type":"error","name":"ReentrancyGuardReentrantCall","inputs":[]},{"type":"error","name":"SafeERC20FailedOperation","inputs":[{"name":"token","type":"address","internalType":"address"}]}],"bytecode":{"object":"0x6101603461020757601f61265338819003918201601f19168301916001600160401b0383118484101761020b5780849260e094604052833981010312610207576100488161021f565b906100556020820161021f565b906100626040820161021f565b61006e6060830161021f565b61007a6080840161021f565b9161009360c061008c60a0870161021f565b950161021f565b9460017f9b779b17422d0df92223018b32b4d1fa46e071723d6817e2486d003becc55f005533156101f4575f8054336001600160a01b0319821681178355604051999290916001600160a01b0316907f8be0079c531659141344cd1fd0a4f28419497f9722a3daafe3b4186f6b6457e09080a36001600160a01b0390811660805290811660a05290811660c05290811660e0529081166101005216610120526101405261241f90816102348239608051818181610bcc01528181610ef3015281816114ff0152611b9a015260a0518181816103ba0152610625015260c051818181610a0b01526115ec015260e05181818161170a01528181611a690152611cc0015261010051818181610241015281816103ed0152818161078201526108f001526101205181818161029701528181610461015281816107ee01528181610898015281816117f40152611b3901526101405181818161083301526113380152f35b631e4fbdf760e01b5f525f60045260245ffd5b5f80fd5b634e487b7160e01b5f52604160045260245ffd5b51906001600160a01b03821682036102075756fe60806040526004361015610011575f80fd5b5f5f3560e01c806310087fb114611c6e57806314a6610014611c3b578063150b7a0214611bc95780631bea83fe14611b845780632e17de781461198357806340bd2e231461176357806347312f711461173957806355bfd0b0146116f457806362426b00146116d6578063715018a61461167c5780637211bbc91461161b5780637535d246146115d65780637a3b1227146115b85780637d7c2a1c1461086257806382c78fb81461081d57806389a30271146107d85780638da5cb5b146107b1578063ad5c46481461076c578063ae1a01a214610672578063b00b21f214610654578063c60058931461060f578063cbe091d014610386578063db2e21bc1461020b578063dbc7bfb7146101ed578063e3735fde146101c05763f2fde38b14610138575f80fd5b346101bd5760203660031901126101bd57610151611ed6565b610159612246565b6001600160a01b031680156101a95781546001600160a01b03198116821783556001600160a01b03167f8be0079c531659141344cd1fd0a4f28419497f9722a3daafe3b4186f6b6457e08380a380f35b631e4fbdf760e01b82526004829052602482fd5b80fd5b50346101bd5760203660031901126101bd5760ff6040602092600435815260078452205416604051908152f35b50346101bd57806003193601126101bd576020600154604051908152f35b50346101bd57806003193601126101bd57610224612162565b61022c612246565b6040516370a0823160e01b81523060048201527f00000000000000000000000000000000000000000000000000000000000000006020826024816001600160a01b0385165afa91821561037b578392610347575b506040516370a0823160e01b8152306004820152907f0000000000000000000000000000000000000000000000000000000000000000906020836024816001600160a01b0386165afa92831561033c578593610302575b506102ee936102e79133906121c5565b33906121c5565b60015f5160206123ca5f395f51905f525580f35b9092506020813d602011610334575b8161031e60209383611f32565b810103126103305751916102ee6102d7565b5f80fd5b3d9150610311565b6040513d87823e3d90fd5b9091506020813d602011610373575b8161036360209383611f32565b810103126103305751905f610280565b3d9150610356565b6040513d85823e3d90fd5b50346101bd5760203660031901126101bd57600435903033036105da5760405163095ea7b360e01b81526001600160a01b037f00000000000000000000000000000000000000000000000000000000000000008116600483018190526024830185905293917f00000000000000000000000000000000000000000000000000000000000000009091169060208160448187865af180156105cf57610594575b5061012c4201938442116105805760405191610100830183811067ffffffffffffffff82111761056c5760409081529083526001600160a01b037f000000000000000000000000000000000000000000000000000000000000000081166020808601918252610bb88685019081523060608801908152608088019a8b5260a0880198895260c088018a815260e089018b8152965163414bf38960e01b81529851861660048a0152935185166024890152905162ffffff166044880152518316606487015297516084860152945160a4850152935160c48401525190921660e48201529290839061010490829085905af1908115610560579061052d575b602090604051908152f35b506020813d602011610558575b8161054760209383611f32565b810103126103305760209051610522565b3d915061053a565b604051903d90823e3d90fd5b634e487b7160e01b86526041600452602486fd5b634e487b7160e01b84526011600452602484fd5b6020813d6020116105c7575b816105ad60209383611f32565b810103126105c3576105be90612012565b610425565b8380fd5b3d91506105a0565b6040513d86823e3d90fd5b60405162461bcd60e51b815260206004820152600d60248201526c496e7465726e616c206f6e6c7960981b6044820152606490fd5b50346101bd57806003193601126101bd576040517f00000000000000000000000000000000000000000000000000000000000000006001600160a01b03168152602090f35b50346101bd57806003193601126101bd576020600354604051908152f35b50346101bd5760203660031901126101bd576001600160a01b03610694611ed6565b16808252600860205260408220546106ab8161214a565b906106b96040519283611f32565b8082526106c58161214a565b602083019390601f1901368537845b8281106107205750505090604051928392602084019060208552518091526040840192915b818110610707575050500390f35b82518452859450602093840193909201916001016106f9565b8186526008602052610735816040882061226c565b90549060031b1c845182101561075857600582901b8501602001526001016106d4565b634e487b7160e01b87526032600452602487fd5b50346101bd57806003193601126101bd576040517f00000000000000000000000000000000000000000000000000000000000000006001600160a01b03168152602090f35b50346101bd57806003193601126101bd57546040516001600160a01b039091168152602090f35b50346101bd57806003193601126101bd576040517f00000000000000000000000000000000000000000000000000000000000000006001600160a01b03168152602090f35b50346101bd57806003193601126101bd576040517f00000000000000000000000000000000000000000000000000000000000000006001600160a01b03168152602090f35b50346101bd57806003193601126101bd5761087b612162565b610883612246565b6040516370a0823160e01b81523060048201527f00000000000000000000000000000000000000000000000000000000000000006001600160a01b0381169291602081602481875afa90811561037b578391611586575b506040516370a0823160e01b81523060048201527f00000000000000000000000000000000000000000000000000000000000000006001600160a01b0316929091602083602481875afa92831561033c578593611552575b50600354806114e9575b506040516370a0823160e01b8152306004820152906020826024818a5afa8015610ea05786906114b5575b6109719250611fbf565b6040516370a0823160e01b81523060048201529092602082602481885afa8015610ea0578690611481575b6109a69250611fbf565b66038d7ea4c680008111611411575b508391849181611329575b5060607f6f55209924dba11af5ddabda4999b20d0ce3aa1847c56b67240ed1fc3590c1349160035494859460405192835260208301526040820152a2604051633850c7bd60e01b81527f00000000000000000000000000000000000000000000000000000000000000006001600160a01b031660e082600481845afa91821561033c578592611291575b5090602060049392604051948580926334324e9f60e21b82525afa92831561033c578593611251575b5060020b908260020b801561123d57627fffff1983145f19821416610e505783610a9f81838605612043565b91878512908161122e575b5061121f575b610ace610ac882610ac3610ad89461201f565b612043565b8361205a565b94610ac38161201f565b60020b9060020b0191627fffff198312627fffff841317610e5057859082610edd575b50505060035415610b1c575b8360015f5160206123ca5f395f51905f525580f35b6040516370a0823160e01b8152306004820152602081602481895afa90811561033c578591610eab575b506040516370a0823160e01b815230600482015290602082602481885afa918215610ea0578692610e6c575b5060045480821115610e6457610b8791611fbf565b605081029080820460501490151715610e505760649004928315801590610e47575b610bb5575b5050610b07565b60405163095ea7b360e01b81526001600160a01b037f000000000000000000000000000000000000000000000000000000000000000016600482018190526024820186905293906020816044818b8d5af18015610e0557610e10575b5060405163095ea7b360e01b81526001600160a01b0385166004820152602481018490526020816044818b8b5af18015610e0557610dca575b5060405194610160860198868a1067ffffffffffffffff8b1117610db6576040998a52865260208601968752610bb8868a01908152600293840b6060880190815292840b6080880190815260a0880192835260c0880195865260e088018a815261010089018b8152306101208b01908152426101408c019081529d51634418b22b60e11b81529a516001600160a01b0390811660048d01529b518c1660248c0152935162ffffff1660448b01529451860b60648a0152905190940b6084880152905160a4870152925160c4860152905160e48501525161010484015251909216610124820152925161014484015290919082908290815a9361016492608095f1908115610dab578291610d67575b50600355805f80808080610bae565b90506080813d608011610da3575b81610d8260809383611f32565b81010312610d9f57610d9860208251920161208b565b505f610d58565b5080fd5b3d9150610d75565b6040513d84823e3d90fd5b634e487b7160e01b89526041600452602489fd5b6020813d602011610dfd575b81610de360209383611f32565b81010312610df957610df490612012565b610c4a565b8780fd5b3d9150610dd6565b6040513d8a823e3d90fd5b6020813d602011610e3f575b81610e2960209383611f32565b81010312610df957610e3a90612012565b610c11565b3d9150610e1c565b50811515610ba9565b634e487b7160e01b86526011600452602486fd5b505084610b87565b9091506020813d602011610e98575b81610e8860209383611f32565b810103126103305751905f610b72565b3d9150610e7b565b6040513d88823e3d90fd5b90506020813d602011610ed5575b81610ec660209383611f32565b8101031261033057515f610b46565b3d9150610eb9565b60405163133f757160e31b8152600481018490527f00000000000000000000000000000000000000000000000000000000000000006001600160a01b0316939061018081602481885afa9081156112145789916111e9575b5060405163133f757160e31b8152600481018390529261018084602481895afa9182156111de578a948b93611195575b506001600160801b03169384610fe45750505050505060015b610f8a575b8080610afb565b600354813b15610fe0578591602483926040519485938492630852cd8d60e31b845260048401525af1801561033c57908591610fcb575b506003555f610f83565b81610fd591611f32565b6105c357835f610fc1565b8580fd5b60020b8112918215611188575b5050610fff575b5050610f7e565b60405160019350919060a0830167ffffffffffffffff811184821017611174576040528252602082019081526040820188815260608301908982526001600160801b03608085019342855260405195630624e65f60e11b87525160048701525116602485015251604484015251606483015251608482015260408160a4818a875af1801561114b57611156575b5061110660406003548151906110a182611f02565b815230602082019081526001600160801b0383830181905260608301818152845163fc6f786560e01b81528451600482015292516001600160a01b03166024840152604090930151811660448301529151909116606482015291829081906084820190565b03818a875af1801561114b5761111d575b80610ff8565b61113e9060403d604011611144575b6111368183611f32565b810190611fdf565b50611117565b503d61112c565b6040513d89823e3d90fd5b61116e9060403d604011611144576111368183611f32565b5061108c565b634e487b7160e01b8a52604160045260248afd5b60020b1290505f80610ff1565b6001600160801b0395506111c29193506101803d81116111d7575b6111ba8183611f32565b81019061209f565b50505050509995509350505050949290610f65565b503d6111b0565b6040513d8c823e3d90fd5b61120291506101803d81116111d7576111ba8183611f32565b5050505096505050505050505f610f35565b6040513d8b823e3d90fd5b6112289161205a565b83610ab0565b9050840760020b15155f610aaa565b634e487b7160e01b86526012600452602486fd5b9092506020813d602011611289575b8161126d60209383611f32565b810103126112855761127e90611ff5565b915f610a73565b8480fd5b3d9150611260565b90915060e0813d60e011611321575b816112ad60e09383611f32565b810103126112855780516001600160a01b03811603611285579060208261131860c06112dd846004989701611ff5565b926112ea60408201612003565b506112f760608201612003565b5061130460808201612003565b5061131160a08201611f54565b5001612012565b50929350610a4a565b3d91506112a0565b9250905061135d600a820480937f0000000000000000000000000000000000000000000000000000000000000000906121c5565b6113678282611fbf565b906001548015801561137a575b506109c0565b670de0b6b3a7640000840290848204670de0b6b3a764000014851517156113fd576113e957916113d16060927f6f55209924dba11af5ddabda4999b20d0ce3aa1847c56b67240ed1fc3590c1349404600254611f62565b6002556113e084600454611f62565b60045591611374565b634e487b7160e01b87526012600452602487fd5b634e487b7160e01b88526011600452602488fd5b60405190630cbe091d60e41b8252600482015260208160248188305af185918161144d575b50156109b5576114469192611f62565b905f6109b5565b9091506020813d602011611479575b8161146960209383611f32565b810103126103305751905f611436565b3d915061145c565b506020823d6020116114ad575b8161149b60209383611f32565b81010312610330576109a6915161099c565b3d915061148e565b506020823d6020116114e1575b816114cf60209383611f32565b81010312610330576109719151610967565b3d91506114c2565b604080516114fa926110a182611f02565b0381897f00000000000000000000000000000000000000000000000000000000000000006001600160a01b03165af18015610ea0571561093c5761154c9060403d604011611144576111368183611f32565b5061093c565b9092506020813d60201161157e575b8161156e60209383611f32565b810103126103305751915f610932565b3d9150611561565b90506020813d6020116115b0575b816115a160209383611f32565b8101031261033057515f6108da565b3d9150611594565b50346101bd57806003193601126101bd576020600454604051908152f35b50346101bd57806003193601126101bd576040517f00000000000000000000000000000000000000000000000000000000000000006001600160a01b03168152602090f35b50346101bd5760203660031901126101bd57670de0b6b3a764000061167360209261166d60043580835260078652604061165a60ff828620541661219a565b9360025492815260068852205490611fbf565b90611fcc565b04604051908152f35b50346101bd57806003193601126101bd57611695612246565b80546001600160a01b03198116825581906001600160a01b03167f8be0079c531659141344cd1fd0a4f28419497f9722a3daafe3b4186f6b6457e08280a380f35b50346101bd57806003193601126101bd576020600254604051908152f35b50346101bd57806003193601126101bd576040517f00000000000000000000000000000000000000000000000000000000000000006001600160a01b03168152602090f35b50346101bd5760203660031901126101bd5760406020916004358152600683522054604051908152f35b50346101bd5760203660031901126101bd57600435611780612162565b808252600560205261179f60018060a01b036040842054163314611f83565b80825260076020526117b760ff60408420541661219a565b670de0b6b3a76400006117dd60025492848652600660205261166d604087205485611fbf565b0490811561194857828452600660205260408420557f000000000000000000000000000000000000000000000000000000000000000090604051906370a0823160e01b825230600483015260208260248160018060a01b0387165afa91821561033c578592611914575b508181111561190c5750905b81156118c75760045461187e91839182116118be5761187482600454611fbf565b60045533906121c5565b6040519081527f10d8dedfc0745b8c25ba10b06e304138b251c18dcaadf2d71c7f3214719dc4d160203392a360015f5160206123ca5f395f51905f525580f35b856004556102e7565b60405162461bcd60e51b815260206004820152601a60248201527f4e6f205553444320617661696c61626c6520696e207661756c740000000000006044820152606490fd5b905090611853565b9091506020813d602011611940575b8161193060209383611f32565b810103126103305751905f611847565b3d9150611923565b60405162461bcd60e51b81526020600482015260136024820152724e6f207265776172647320746f20636c61696d60681b6044820152606490fd5b50346101bd5760203660031901126101bd576004356119a0612162565b80825260056020526119bf60018060a01b036040842054163314611f83565b80825260076020526119d760ff60408420541661219a565b611a0f670de0b6b3a7640000611a056119ff6002548688526006602052604088205490611fbf565b84611fcc565b0491600154611fbf565b6001558183526005602052604083206001600160601b0360a01b8154169055818352600660205282604081205581835260076020526040832060ff1981541690553383526008602052611a658260408520612304565b50827f00000000000000000000000000000000000000000000000000000000000000006001600160a01b0316803b15610d9f57604051632142170760e11b8152306004820152336024820152604481018590529082908290606490829084905af18015610dab57611b6b575b505080611b19575b6040519081527f7fc4727e062e336010f2c282598ef5f14facb3de68cf8195c2f23e1454b2b74e60203392a360015f5160206123ca5f395f51905f525580f35b6004548111611b6257611b2e81600454611fbf565b6004555b611b5d81337f00000000000000000000000000000000000000000000000000000000000000006121c5565b611ad9565b82600455611b32565b81611b7591611f32565b611b8057825f611ad1565b8280fd5b50346101bd57806003193601126101bd576040517f00000000000000000000000000000000000000000000000000000000000000006001600160a01b03168152602090f35b50346101bd5760803660031901126101bd57611be3611ed6565b50611bec611eec565b5060643567ffffffffffffffff8111610d9f5736602382011215610d9f57806004013567ffffffffffffffff8111611b8057369101602401116101bd57604051630a85bd0160e11b8152602090f35b50346101bd5760203660031901126101bd57602090600435815260058252604060018060a01b0391205416604051908152f35b50346103305760403660031901126103305760043560243560ff81169081810361033057611c9a612162565b600182101580611ecb575b15611e975760405163c26b265f60e01b8152600481018490527f00000000000000000000000000000000000000000000000000000000000000006001600160a01b031690602081602481855afa8015611e195784915f91611e59575b5060ff1603611e2457803b1561033057604051632142170760e11b815233600482015230602482015260448101859052905f908290606490829084905af18015611e1957611e02575b50611d64906002548486526006602052604086205561219a565b611d7081600154611f62565b600155828452600560205260408420336001600160601b0360a01b8254161790558284526007602052604084208260ff198254161790553384526008602052611dbc8360408620612295565b5060405191825260208201527fbde7f0ba1630d25515c7ab99ba47d5640b7ffb4c673b2a5464ae67919558929860403392a360015f5160206123ca5f395f51905f525580f35b611e0f9194505f90611f32565b5f92611d64611d4a565b6040513d5f823e3d90fd5b60405162461bcd60e51b815260206004820152600d60248201526c0a8d2cae440dad2e6dac2e8c6d609b1b6044820152606490fd5b9150506020813d602011611e8f575b81611e7560209383611f32565b810103126103305760ff611e898592611f54565b90611d01565b3d9150611e68565b60405162461bcd60e51b815260206004820152600c60248201526b24b73b30b634b2103a34b2b960a11b6044820152606490fd5b506003821115611ca5565b600435906001600160a01b038216820361033057565b602435906001600160a01b038216820361033057565b6080810190811067ffffffffffffffff821117611f1e57604052565b634e487b7160e01b5f52604160045260245ffd5b90601f8019910116810190811067ffffffffffffffff821117611f1e57604052565b519060ff8216820361033057565b91908201809211611f6f57565b634e487b7160e01b5f52601160045260245ffd5b15611f8a57565b60405162461bcd60e51b815260206004820152600d60248201526c2737ba103a34329037bbb732b960991b6044820152606490fd5b91908203918211611f6f57565b81810292918115918404141715611f6f57565b9190826040910312610330576020825192015190565b51908160020b820361033057565b519061ffff8216820361033057565b5190811515820361033057565b60020b801561202f576101f40590565b634e487b7160e01b5f52601260045260245ffd5b9060020b9060020b02908160020b918203611f6f57565b600291820b910b0390627fffff198212627fffff831317611f6f57565b51906001600160a01b038216820361033057565b51906001600160801b038216820361033057565b9190826101809103126103305781516001600160601b038116810361033057916120cb60208201612077565b916120d860408301612077565b916120e560608201612077565b91608082015162ffffff81168103610330579161210460a08201611ff5565b9161211160c08301611ff5565b9161211e60e0820161208b565b916101008201519161012081015191612147610160612140610140850161208b565b930161208b565b90565b67ffffffffffffffff8111611f1e5760051b60200190565b60025f5160206123ca5f395f51905f52541461218b5760025f5160206123ca5f395f51905f5255565b633ee5aeb560e01b5f5260045ffd5b60ff16600181036121ab5750606490565b600281036121b95750608790565b600303611e975760af90565b916040519163a9059cbb60e01b5f5260018060a01b031660045260245260205f60448180865af19060015f5114821615612225575b604052156122055750565b635274afe760e01b5f9081526001600160a01b0391909116600452602490fd5b90600181151661223d57823b15153d151616906121fa565b503d5f823e3d90fd5b5f546001600160a01b0316330361225957565b63118cdaa760e01b5f523360045260245ffd5b8054821015612281575f5260205f2001905f90565b634e487b7160e01b5f52603260045260245ffd5b6001810190825f528160205260405f2054155f146122fd57805468010000000000000000811015611f1e576122ea6122d482600187940185558461226c565b819391549060031b91821b915f19901b19161790565b905554915f5260205260405f2055600190565b5050505f90565b906001820191815f528260205260405f20548015155f146123c1575f198101818111611f6f5782545f19810191908211611f6f5781810361238c575b50505080548015612378575f190190612359828261226c565b8154905f199060031b1b19169055555f526020525f6040812055600190565b634e487b7160e01b5f52603160045260245ffd5b6123ac61239c6122d4938661226c565b90549060031b1c9283928661226c565b90555f528360205260405f20555f8080612340565b505050505f9056fe9b779b17422d0df92223018b32b4d1fa46e071723d6817e2486d003becc55f00a264697066735822122090f4093efa1eb161a1617998bc5612dc1eefa656d2f4d4a6cfcdddd69380009664736f6c634300081e0033","linkReferences":{}},"methodIdentifiers":{"I_ELEMENT_NFT()":"55bfd0b0","PAYMASTER()":"82c78fb8","POOL()":"7535d246","POSITION_MANAGER()":"1bea83fe","SWAP_ROUTER()":"c6005893","USDC()":"89a30271","WETH()":"ad5c4648","_attemptSwap(uint256)":"cbe091d0","claimYield(uint256)":"40bd2e23","emergencyWithdraw()":"db2e21bc","getPendingReward(uint256)":"7211bbc9","getUserStakedTokens(address)":"ae1a01a2","onERC721Received(address,address,uint256,bytes)":"150b7a02","owner()":"8da5cb5b","rebalance()":"7d7c2a1c","renounceOwnership()":"715018a6","sAccRewardPerWeight()":"62426b00","sLastPositionId()":"b00b21f2","sNftOwner(uint256)":"14a66100","sRewardDebt(uint256)":"47312f71","sStakedTier(uint256)":"e3735fde","sTotalUnclaimedYield()":"7a3b1227","sTotalWeight()":"dbc7bfb7","stake(uint256,uint8)":"10087fb1","transferOwnership(address)":"f2fde38b","unstake(uint256)":"2e17de78"},"id":86}