{"abi":[{"type":"constructor","inputs":[{"name":"_positionManager","type":"address","internalType":"address"},{"name":"_swapRouter","type":"address","internalType":"address"},{"name":"_pool","type":"address","internalType":"address"},{"name":"_elementNFT","type":"address","internalType":"address"},{"name":"_weth","type":"address","internalType":"address"},{"name":"_usdc","type":"address","internalType":"address"},{"name":"_paymaster","type":"address","internalType":"address"}],"stateMutability":"nonpayable"},{"type":"function","name":"I_ELEMENT_NFT","inputs":[],"outputs":[{"name":"","type":"address","internalType":"contract ElementNFT"}],"stateMutability":"view"},{"type":"function","name":"PAYMASTER","inputs":[],"outputs":[{"name":"","type":"address","internalType":"address"}],"stateMutability":"view"},{"type":"function","name":"POOL","inputs":[],"outputs":[{"name":"","type":"address","internalType":"contract IUniswapV3Pool"}],"stateMutability":"view"},{"type":"function","name":"POSITION_MANAGER","inputs":[],"outputs":[{"name":"","type":"address","internalType":"contract INonfungiblePositionManager"}],"stateMutability":"view"},{"type":"function","name":"SWAP_ROUTER","inputs":[],"outputs":[{"name":"","type":"address","internalType":"contract ISwapRouter"}],"stateMutability":"view"},{"type":"function","name":"USDC","inputs":[],"outputs":[{"name":"","type":"address","internalType":"contract IERC20"}],"stateMutability":"view"},{"type":"function","name":"WETH","inputs":[],"outputs":[{"name":"","type":"address","internalType":"contract IERC20"}],"stateMutability":"view"},{"type":"function","name":"claimYield","inputs":[{"name":"tokenId","type":"uint256","internalType":"uint256"}],"outputs":[],"stateMutability":"nonpayable"},{"type":"function","name":"emergencyWithdraw","inputs":[],"outputs":[],"stateMutability":"nonpayable"},{"type":"function","name":"getPendingReward","inputs":[{"name":"tokenId","type":"uint256","internalType":"uint256"}],"outputs":[{"name":"","type":"uint256","internalType":"uint256"}],"stateMutability":"view"},{"type":"function","name":"getUserStakedTokens","inputs":[{"name":"user","type":"address","internalType":"address"}],"outputs":[{"name":"","type":"uint256[]","internalType":"uint256[]"}],"stateMutability":"view"},{"type":"function","name":"onERC721Received","inputs":[{"name":"","type":"address","internalType":"address"},{"name":"","type":"address","internalType":"address"},{"name":"","type":"uint256","internalType":"uint256"},{"name":"","type":"bytes","internalType":"bytes"}],"outputs":[{"name":"","type":"bytes4","internalType":"bytes4"}],"stateMutability":"pure"},{"type":"function","name":"owner","inputs":[],"outputs":[{"name":"","type":"address","internalType":"address"}],"stateMutability":"view"},{"type":"function","name":"rebalance","inputs":[],"outputs":[],"stateMutability":"nonpayable"},{"type":"function","name":"renounceOwnership","inputs":[],"outputs":[],"stateMutability":"nonpayable"},{"type":"function","name":"sAccRewardPerWeight","inputs":[],"outputs":[{"name":"","type":"uint256","internalType":"uint256"}],"stateMutability":"view"},{"type":"function","name":"sLastPositionId","inputs":[],"outputs":[{"name":"","type":"uint256","internalType":"uint256"}],"stateMutability":"view"},{"type":"function","name":"sNftOwner","inputs":[{"name":"","type":"uint256","internalType":"uint256"}],"outputs":[{"name":"","type":"address","internalType":"address"}],"stateMutability":"view"},{"type":"function","name":"sRewardDebt","inputs":[{"name":"","type":"uint256","internalType":"uint256"}],"outputs":[{"name":"","type":"uint256","internalType":"uint256"}],"stateMutability":"view"},{"type":"function","name":"sStakedTier","inputs":[{"name":"","type":"uint256","internalType":"uint256"}],"outputs":[{"name":"","type":"uint8","internalType":"uint8"}],"stateMutability":"view"},{"type":"function","name":"sTotalWeight","inputs":[],"outputs":[{"name":"","type":"uint256","internalType":"uint256"}],"stateMutability":"view"},{"type":"function","name":"stake","inputs":[{"name":"tokenId","type":"uint256","internalType":"uint256"},{"name":"tier","type":"uint8","internalType":"uint8"}],"outputs":[],"stateMutability":"nonpayable"},{"type":"function","name":"transferOwnership","inputs":[{"name":"newOwner","type":"address","internalType":"address"}],"outputs":[],"stateMutability":"nonpayable"},{"type":"function","name":"unstake","inputs":[{"name":"tokenId","type":"uint256","internalType":"uint256"}],"outputs":[],"stateMutability":"nonpayable"},{"type":"event","name":"OwnershipTransferred","inputs":[{"name":"previousOwner","type":"address","indexed":true,"internalType":"address"},{"name":"newOwner","type":"address","indexed":true,"internalType":"address"}],"anonymous":false},{"type":"event","name":"Rebalanced","inputs":[{"name":"positionId","type":"uint256","indexed":true,"internalType":"uint256"},{"name":"wethCollected","type":"uint256","indexed":false,"internalType":"uint256"},{"name":"usdcDistributed","type":"uint256","indexed":false,"internalType":"uint256"},{"name":"treasuryTax","type":"uint256","indexed":false,"internalType":"uint256"}],"anonymous":false},{"type":"event","name":"Staked","inputs":[{"name":"user","type":"address","indexed":true,"internalType":"address"},{"name":"tokenId","type":"uint256","indexed":true,"internalType":"uint256"},{"name":"tier","type":"uint8","indexed":false,"internalType":"uint8"},{"name":"weight","type":"uint256","indexed":false,"internalType":"uint256"}],"anonymous":false},{"type":"event","name":"Unstaked","inputs":[{"name":"user","type":"address","indexed":true,"internalType":"address"},{"name":"tokenId","type":"uint256","indexed":true,"internalType":"uint256"},{"name":"reward","type":"uint256","indexed":false,"internalType":"uint256"}],"anonymous":false},{"type":"event","name":"YieldClaimed","inputs":[{"name":"user","type":"address","indexed":true,"internalType":"address"},{"name":"tokenId","type":"uint256","indexed":true,"internalType":"uint256"},{"name":"reward","type":"uint256","indexed":false,"internalType":"uint256"}],"anonymous":false},{"type":"error","name":"OwnableInvalidOwner","inputs":[{"name":"owner","type":"address","internalType":"address"}]},{"type":"error","name":"OwnableUnauthorizedAccount","inputs":[{"name":"account","type":"address","internalType":"address"}]},{"type":"error","name":"ReentrancyGuardReentrantCall","inputs":[]},{"type":"error","name":"SafeERC20FailedOperation","inputs":[{"name":"token","type":"address","internalType":"address"}]}],"bytecode":{"object":"0x6101603461020057601f61220c38819003918201601f19168301916001600160401b038311848410176102045780849260e0946040528339810103126102005761004881610218565b9061005560208201610218565b9061006260408201610218565b61006e60608301610218565b61007a60808401610218565b9161009360c061008c60a08701610218565b9501610218565b9460017f9b779b17422d0df92223018b32b4d1fa46e071723d6817e2486d003becc55f005533156101ed575f8054336001600160a01b0319821681178355604051999290916001600160a01b0316907f8be0079c531659141344cd1fd0a4f28419497f9722a3daafe3b4186f6b6457e09080a36001600160a01b0390811660805290811660a05290811660c05290811660e05290811661010052166101205261014052611fdf908161022d823960805181818161087e015281816108d701528181610a2801528181610f320152611821015260a0518181816103860152610ceb015260c0518181816106a1015261137c015260e05181818161149a0152818161170e015261194701526101005181818161022b015281816104e301526105f90152610120518181816102810152818161054f015281816106500152818161158901526117c50152610140518181816105940152610c3a0152f35b631e4fbdf760e01b5f525f60045260245ffd5b5f80fd5b634e487b7160e01b5f52604160045260245ffd5b51906001600160a01b03821682036102005756fe60806040526004361015610011575f80fd5b5f5f3560e01c806310087fb1146118f557806314a66100146118c2578063150b7a02146118505780631bea83fe1461180b5780632e17de781461162857806340bd2e23146114f357806347312f71146114c957806355bfd0b01461148457806362426b0014611466578063715018a61461140c5780637211bbc9146113ab5780637535d246146113665780637d7c2a1c146105c357806382c78fb81461057e57806389a30271146105395780638da5cb5b14610512578063ad5c4648146104cd578063ae1a01a2146103d3578063b00b21f2146103b5578063c600589314610370578063db2e21bc146101f5578063dbc7bfb7146101d7578063e3735fde146101aa5763f2fde38b14610122575f80fd5b346101a75760203660031901126101a75761013b611b5d565b610143611e06565b6001600160a01b031680156101935781546001600160a01b03198116821783556001600160a01b03167f8be0079c531659141344cd1fd0a4f28419497f9722a3daafe3b4186f6b6457e08380a380f35b631e4fbdf760e01b82526004829052602482fd5b80fd5b50346101a75760203660031901126101a75760ff6040602092600435815260068452205416604051908152f35b50346101a757806003193601126101a7576020600154604051908152f35b50346101a757806003193601126101a75761020e611d22565b610216611e06565b6040516370a0823160e01b81523060048201527f00000000000000000000000000000000000000000000000000000000000000006020826024816001600160a01b0385165afa918215610365578392610331575b506040516370a0823160e01b8152306004820152907f0000000000000000000000000000000000000000000000000000000000000000906020836024816001600160a01b0386165afa9283156103265785936102ec575b506102d8936102d1913390611d85565b3390611d85565b60015f516020611f8a5f395f51905f525580f35b9092506020813d60201161031e575b8161030860209383611b89565b8101031261031a5751916102d86102c1565b5f80fd5b3d91506102fb565b6040513d87823e3d90fd5b9091506020813d60201161035d575b8161034d60209383611b89565b8101031261031a5751905f61026a565b3d9150610340565b6040513d85823e3d90fd5b50346101a757806003193601126101a7576040517f00000000000000000000000000000000000000000000000000000000000000006001600160a01b03168152602090f35b50346101a757806003193601126101a7576020600354604051908152f35b50346101a75760203660031901126101a7576001600160a01b036103f5611b5d565b168082526007602052604082205461040c81611d0a565b9061041a6040519283611b89565b80825261042681611d0a565b602083019390601f1901368537845b8281106104815750505090604051928392602084019060208552518091526040840192915b818110610468575050500390f35b825184528594506020938401939092019160010161045a565b81865260076020526104968160408820611e2c565b90549060031b1c84518210156104b957600582901b850160200152600101610435565b634e487b7160e01b87526032600452602487fd5b50346101a757806003193601126101a7576040517f00000000000000000000000000000000000000000000000000000000000000006001600160a01b03168152602090f35b50346101a757806003193601126101a757546040516001600160a01b039091168152602090f35b50346101a757806003193601126101a7576040517f00000000000000000000000000000000000000000000000000000000000000006001600160a01b03168152602090f35b50346101a757806003193601126101a7576040517f00000000000000000000000000000000000000000000000000000000000000006001600160a01b03168152602090f35b50346101a757806003193601126101a7576105dc611d22565b6105e4611e06565b6040516370a0823160e01b81523060048201527f00000000000000000000000000000000000000000000000000000000000000006001600160a01b03169190602081602481865afa90811561135b578291611329575b506040516370a0823160e01b81523060048201527f00000000000000000000000000000000000000000000000000000000000000006001600160a01b03811692602083602481875afa9283156103265785936112f5575b50604051633850c7bd60e01b81527f00000000000000000000000000000000000000000000000000000000000000006001600160a01b03169060e081600481855afa908115610e5a57879161125f575b506020600492604051938480926334324e9f60e21b82525afa918215610e5a57879261121f575b5060020b8160020b90811561120b57627fffff1981145f198314166111f757806107358484819405611c98565b9289821291826111e8575b50506111d9575b61076561075f8261075a61076f94611c74565b611c98565b83611caf565b9261075a81611c74565b60020b9060020b0191627fffff198312627fffff8413176111c55760035480610f1c575b506040516370a0823160e01b8152306004820152906020826024818c5afa8015610c1a578890610ee8575b6107c89250611c2a565b6040516370a0823160e01b815230600482015290946020826024818a5afa8015610c1a578890610eb4575b6107fd9250611c2a565b9184610cd4575b8693879380610c25575b50506040516370a0823160e01b81523060048201526020816024818c5afa908115610c1a578891610be8575b506040516370a0823160e01b8152306004820152916020836024818b5afa928315610bdd578993610ba9575b5060405163095ea7b360e01b81526001600160a01b037f0000000000000000000000000000000000000000000000000000000000000000166004820152602481018390526020816044818d8f5af18015610b6757610b72575b5060405163095ea7b360e01b81526001600160a01b037f0000000000000000000000000000000000000000000000000000000000000000166004820152602481018490526020816044818d8d5af18015610b6757610b2c575b506040519361016085019a858c1067ffffffffffffffff8d1117610b1857610140969798999a9b604052855260208501998a5262ffffff60408601610bb88152606087019260020b8352608087019360020b845260a0870194855260c087019586528c60e08801528c6101008801523061012088015242888801526040519b634418b22b60e11b8d528c600460018060a01b038a511691015260018060a01b0390511660248d0152511660448b01525160020b60648a01525160020b60848901525160a48801525160c487015260e081015160e487015261010081015161010487015260018060a01b03610120820151166101248701520151610144850152608084610164818860018060a01b037f0000000000000000000000000000000000000000000000000000000000000000165af1938415610326578594610aa8575b50916060917f6f55209924dba11af5ddabda4999b20d0ce3aa1847c56b67240ed1fc3590c134938560035560405192835260208301526040820152a260015f516020611f8a5f395f51905f525580f35b91929093506080823d608011610b10575b81610ac660809383611b89565b81010312610b0c577f6f55209924dba11af5ddabda4999b20d0ce3aa1847c56b67240ed1fc3590c1349282610b016020606095519201611ce0565b509491935091610a58565b8480fd5b3d9150610ab9565b634e487b7160e01b8b52604160045260248bfd5b6020813d602011610b5f575b81610b4560209383611b89565b81010312610b5b57610b5690611c67565b610918565b8980fd5b3d9150610b38565b6040513d8c823e3d90fd5b6020813d602011610ba1575b81610b8b60209383611b89565b81010312610b5b57610b9c90611c67565b6108bf565b3d9150610b7e565b9092506020813d602011610bd5575b81610bc560209383611b89565b8101031261031a5751915f610866565b3d9150610bb8565b6040513d8b823e3d90fd5b90506020813d602011610c12575b81610c0360209383611b89565b8101031261031a57515f61083a565b3d9150610bf6565b6040513d8a823e3d90fd5b610c5f9550610c64929450600a8104958680937f000000000000000000000000000000000000000000000000000000000000000090611d85565b611c2a565b9160015480158061080e57670de0b6b3a7640000850290858204670de0b6b3a76400001486151715610cc057610cac5790610ca29104600254611bcd565b6002555f8061080e565b634e487b7160e01b89526012600452602489fd5b634e487b7160e01b8a52601160045260248afd5b60405163095ea7b360e01b81526001600160a01b037f00000000000000000000000000000000000000000000000000000000000000001660048201819052602482018790529195929391906020816044818c8e5af18015610bdd57610e79575b50604051610100810181811067ffffffffffffffff821117610e655760209291610104916040528b81528a848201938b85526040830197610bb889526060840190308252608085019042825260a0860190815260c086019185835260e087019386855262ffffff6040519d8e9b8c9a63414bf38960e01b8c5260018060a01b0390511660048c015260018060a01b0390511660248b01525116604489015260018060a01b0390511660648801525160848701525160a48601525160c485015260018060a01b0390511660e48401525af1908115610e5a578791610e24575b610e1c9250611bcd565b908593610804565b90506020823d602011610e52575b81610e3f60209383611b89565b8101031261031a57610e1c915190610e12565b3d9150610e32565b6040513d89823e3d90fd5b634e487b7160e01b8a52604160045260248afd5b6020813d602011610eac575b81610e9260209383611b89565b81010312610ea857610ea390611c67565b610d34565b8880fd5b3d9150610e85565b506020823d602011610ee0575b81610ece60209383611b89565b8101031261031a576107fd91516107f3565b3d9150610ec1565b506020823d602011610f14575b81610f0260209383611b89565b8101031261031a576107c891516107be565b3d9150610ef5565b60405163133f757160e31b8152600481018290527f00000000000000000000000000000000000000000000000000000000000000006001600160a01b0316919061018081602481865afa8015610b67578a90611102575b6001600160801b0391501680611042575b5050600354604051906080820182811067ffffffffffffffff821117610b1857604090815290825230602083019081526001600160801b0383830181815260608501828152845163fc6f786560e01b81529551600487015292516001600160a01b03166024860152518116604485015290511660648301529091829060849082908c905af18015610c1a5715610793576110359060403d60401161103b575b61102d8183611b89565b810190611cf4565b50610793565b503d611023565b6040519160a0830183811067ffffffffffffffff8211176110ee57604052825260208201908152604082018a815260608301908b82526001600160801b03608085019342855260405195630624e65f60e11b87525160048701525116602485015251604484015251606483015251608482015260408160a4818c865af18015610bdd576110d0575b80610f84565b6110e89060403d60401161103b5761102d8183611b89565b506110ca565b634e487b7160e01b8c52604160045260248cfd5b50610180813d82116111bd575b8161111d6101809383611b89565b81010312610b5b5780516001600160601b03811603610b5b5761114260208201611ccc565b5061114f60408201611ccc565b5061115c60608201611ccc565b50608081015162ffffff811603610b5b578061118260a06001600160801b039301611c4a565b5061118f60c08201611c4a565b506111b76101606111a260e08401611ce0565b926111b06101408201611ce0565b5001611ce0565b50610f73565b3d915061110f565b634e487b7160e01b87526011600452602487fd5b6111e291611caf565b81610747565b0760020b151590505f80610740565b634e487b7160e01b88526011600452602488fd5b634e487b7160e01b88526012600452602488fd5b9091506020813d602011611257575b8161123b60209383611b89565b810103126112535761124c90611c4a565b905f610708565b8680fd5b3d915061122e565b905060e0813d60e0116112ed575b8161127a60e09383611b89565b810103126112535780516001600160a01b0381160361125357906020826112e460c06112a98460049701611c4a565b926112b660408201611c58565b506112c360608201611c58565b506112d060808201611c58565b506112dd60a08201611bbf565b5001611c67565b509192506106e1565b3d915061126d565b9092506020813d602011611321575b8161131160209383611b89565b8101031261031a5751915f610691565b3d9150611304565b90506020813d602011611353575b8161134460209383611b89565b8101031261031a57515f61063a565b3d9150611337565b6040513d84823e3d90fd5b50346101a757806003193601126101a7576040517f00000000000000000000000000000000000000000000000000000000000000006001600160a01b03168152602090f35b50346101a75760203660031901126101a757670de0b6b3a76400006114036020926113fd6004358083526006865260406113ea60ff8286205416611d5a565b9360025492815260058852205490611c2a565b90611c37565b04604051908152f35b50346101a757806003193601126101a757611425611e06565b80546001600160a01b03198116825581906001600160a01b03167f8be0079c531659141344cd1fd0a4f28419497f9722a3daafe3b4186f6b6457e08280a380f35b50346101a757806003193601126101a7576020600254604051908152f35b50346101a757806003193601126101a7576040517f00000000000000000000000000000000000000000000000000000000000000006001600160a01b03168152602090f35b50346101a75760203660031901126101a75760406020916004358152600583522054604051908152f35b50346101a75760203660031901126101a757600435611510611d22565b808252600460205261152f60018060a01b036040842054163314611bee565b808252600660205261154760ff604084205416611d5a565b670de0b6b3a764000061156d6002549284865260056020526113fd604087205485611c2a565b049081156115ed57828452600560205260408420556115ad81337f0000000000000000000000000000000000000000000000000000000000000000611d85565b6040519081527f10d8dedfc0745b8c25ba10b06e304138b251c18dcaadf2d71c7f3214719dc4d160203392a360015f516020611f8a5f395f51905f525580f35b60405162461bcd60e51b81526020600482015260136024820152724e6f207265776172647320746f20636c61696d60681b6044820152606490fd5b50346101a75760203660031901126101a757600435611645611d22565b808252600460205261166460018060a01b036040842054163314611bee565b808252600660205261167c60ff604084205416611d5a565b6116b4670de0b6b3a76400006116aa6116a46002548688526005602052604088205490611c2a565b84611c37565b0491600154611c2a565b6001558183526004602052604083206001600160601b0360a01b8154169055818352600560205282604081205581835260066020526040832060ff198154169055338352600760205261170a8260408520611ec4565b50827f00000000000000000000000000000000000000000000000000000000000000006001600160a01b0316803b1561180757604051632142170760e11b8152306004820152336024820152604481018590529082908290606490829084905af1801561135b576117ee575b5050806117be575b6040519081527f7fc4727e062e336010f2c282598ef5f14facb3de68cf8195c2f23e1454b2b74e60203392a360015f516020611f8a5f395f51905f525580f35b6117e981337f0000000000000000000000000000000000000000000000000000000000000000611d85565b61177e565b816117f891611b89565b61180357825f611776565b8280fd5b5080fd5b50346101a757806003193601126101a7576040517f00000000000000000000000000000000000000000000000000000000000000006001600160a01b03168152602090f35b50346101a75760803660031901126101a75761186a611b5d565b50611873611b73565b5060643567ffffffffffffffff8111611807573660238201121561180757806004013567ffffffffffffffff811161180357369101602401116101a757604051630a85bd0160e11b8152602090f35b50346101a75760203660031901126101a757602090600435815260048252604060018060a01b0391205416604051908152f35b503461031a57604036600319011261031a5760043560243560ff81169081810361031a57611921611d22565b600182101580611b52575b15611b1e5760405163c26b265f60e01b8152600481018490527f00000000000000000000000000000000000000000000000000000000000000006001600160a01b031690602081602481855afa8015611aa05784915f91611ae0575b5060ff1603611aab57803b1561031a57604051632142170760e11b815233600482015230602482015260448101859052905f908290606490829084905af18015611aa057611a89575b506119eb9060025484865260056020526040862055611d5a565b6119f781600154611bcd565b600155828452600460205260408420336001600160601b0360a01b8254161790558284526006602052604084208260ff198254161790553384526007602052611a438360408620611e55565b5060405191825260208201527fbde7f0ba1630d25515c7ab99ba47d5640b7ffb4c673b2a5464ae67919558929860403392a360015f516020611f8a5f395f51905f525580f35b611a969194505f90611b89565b5f926119eb6119d1565b6040513d5f823e3d90fd5b60405162461bcd60e51b815260206004820152600d60248201526c0a8d2cae440dad2e6dac2e8c6d609b1b6044820152606490fd5b9150506020813d602011611b16575b81611afc60209383611b89565b8101031261031a5760ff611b108592611bbf565b90611988565b3d9150611aef565b60405162461bcd60e51b815260206004820152600c60248201526b24b73b30b634b2103a34b2b960a11b6044820152606490fd5b50600382111561192c565b600435906001600160a01b038216820361031a57565b602435906001600160a01b038216820361031a57565b90601f8019910116810190811067ffffffffffffffff821117611bab57604052565b634e487b7160e01b5f52604160045260245ffd5b519060ff8216820361031a57565b91908201809211611bda57565b634e487b7160e01b5f52601160045260245ffd5b15611bf557565b60405162461bcd60e51b815260206004820152600d60248201526c2737ba103a34329037bbb732b960991b6044820152606490fd5b91908203918211611bda57565b81810292918115918404141715611bda57565b51908160020b820361031a57565b519061ffff8216820361031a57565b5190811515820361031a57565b60020b8015611c84576101f40590565b634e487b7160e01b5f52601260045260245ffd5b9060020b9060020b02908160020b918203611bda57565b600291820b910b0390627fffff198212627fffff831317611bda57565b51906001600160a01b038216820361031a57565b51906001600160801b038216820361031a57565b919082604091031261031a576020825192015190565b67ffffffffffffffff8111611bab5760051b60200190565b60025f516020611f8a5f395f51905f525414611d4b5760025f516020611f8a5f395f51905f5255565b633ee5aeb560e01b5f5260045ffd5b60ff1660018103611d6b5750606490565b60028103611d795750608790565b600303611b1e5760af90565b916040519163a9059cbb60e01b5f5260018060a01b031660045260245260205f60448180865af19060015f5114821615611de5575b60405215611dc55750565b635274afe760e01b5f9081526001600160a01b0391909116600452602490fd5b906001811516611dfd57823b15153d15161690611dba565b503d5f823e3d90fd5b5f546001600160a01b03163303611e1957565b63118cdaa760e01b5f523360045260245ffd5b8054821015611e41575f5260205f2001905f90565b634e487b7160e01b5f52603260045260245ffd5b6001810190825f528160205260405f2054155f14611ebd57805468010000000000000000811015611bab57611eaa611e94826001879401855584611e2c565b819391549060031b91821b915f19901b19161790565b905554915f5260205260405f2055600190565b5050505f90565b906001820191815f528260205260405f20548015155f14611f81575f198101818111611bda5782545f19810191908211611bda57818103611f4c575b50505080548015611f38575f190190611f198282611e2c565b8154905f199060031b1b19169055555f526020525f6040812055600190565b634e487b7160e01b5f52603160045260245ffd5b611f6c611f5c611e949386611e2c565b90549060031b1c92839286611e2c565b90555f528360205260405f20555f8080611f00565b505050505f9056fe9b779b17422d0df92223018b32b4d1fa46e071723d6817e2486d003becc55f00a26469706673582212207cc288664b5a3376389b1f4b0857fa59f4a74adefdd1ae7c49a7a19a3123371164736f6c634300081e0033","linkReferences":{}},"methodIdentifiers":{"I_ELEMENT_NFT()":"55bfd0b0","PAYMASTER()":"82c78fb8","POOL()":"7535d246","POSITION_MANAGER()":"1bea83fe","SWAP_ROUTER()":"c6005893","USDC()":"89a30271","WETH()":"ad5c4648","claimYield(uint256)":"40bd2e23","emergencyWithdraw()":"db2e21bc","getPendingReward(uint256)":"7211bbc9","getUserStakedTokens(address)":"ae1a01a2","onERC721Received(address,address,uint256,bytes)":"150b7a02","owner()":"8da5cb5b","rebalance()":"7d7c2a1c","renounceOwnership()":"715018a6","sAccRewardPerWeight()":"62426b00","sLastPositionId()":"b00b21f2","sNftOwner(uint256)":"14a66100","sRewardDebt(uint256)":"47312f71","sStakedTier(uint256)":"e3735fde","sTotalWeight()":"dbc7bfb7","stake(uint256,uint8)":"10087fb1","transferOwnership(address)":"f2fde38b","unstake(uint256)":"2e17de78"},"id":67}