{"abi":[{"type":"constructor","inputs":[{"name":"_positionManager","type":"address","internalType":"address"},{"name":"_swapRouter","type":"address","internalType":"address"},{"name":"_pool","type":"address","internalType":"address"},{"name":"_elementNFT","type":"address","internalType":"address"},{"name":"_weth","type":"address","internalType":"address"},{"name":"_usdc","type":"address","internalType":"address"},{"name":"_paymaster","type":"address","internalType":"address"}],"stateMutability":"nonpayable"},{"type":"function","name":"I_ELEMENT_NFT","inputs":[],"outputs":[{"name":"","type":"address","internalType":"contract ElementNFT"}],"stateMutability":"view"},{"type":"function","name":"PAYMASTER","inputs":[],"outputs":[{"name":"","type":"address","internalType":"address"}],"stateMutability":"view"},{"type":"function","name":"POOL","inputs":[],"outputs":[{"name":"","type":"address","internalType":"contract IUniswapV3Pool"}],"stateMutability":"view"},{"type":"function","name":"POSITION_MANAGER","inputs":[],"outputs":[{"name":"","type":"address","internalType":"contract INonfungiblePositionManager"}],"stateMutability":"view"},{"type":"function","name":"SWAP_ROUTER","inputs":[],"outputs":[{"name":"","type":"address","internalType":"contract ISwapRouter"}],"stateMutability":"view"},{"type":"function","name":"USDC","inputs":[],"outputs":[{"name":"","type":"address","internalType":"contract IERC20"}],"stateMutability":"view"},{"type":"function","name":"WETH","inputs":[],"outputs":[{"name":"","type":"address","internalType":"contract IERC20"}],"stateMutability":"view"},{"type":"function","name":"claimYield","inputs":[{"name":"tokenId","type":"uint256","internalType":"uint256"}],"outputs":[],"stateMutability":"nonpayable"},{"type":"function","name":"emergencyWithdraw","inputs":[],"outputs":[],"stateMutability":"nonpayable"},{"type":"function","name":"getPendingReward","inputs":[{"name":"tokenId","type":"uint256","internalType":"uint256"}],"outputs":[{"name":"","type":"uint256","internalType":"uint256"}],"stateMutability":"view"},{"type":"function","name":"getUserStakedTokens","inputs":[{"name":"user","type":"address","internalType":"address"}],"outputs":[{"name":"","type":"uint256[]","internalType":"uint256[]"}],"stateMutability":"view"},{"type":"function","name":"onERC721Received","inputs":[{"name":"","type":"address","internalType":"address"},{"name":"","type":"address","internalType":"address"},{"name":"","type":"uint256","internalType":"uint256"},{"name":"","type":"bytes","internalType":"bytes"}],"outputs":[{"name":"","type":"bytes4","internalType":"bytes4"}],"stateMutability":"pure"},{"type":"function","name":"owner","inputs":[],"outputs":[{"name":"","type":"address","internalType":"address"}],"stateMutability":"view"},{"type":"function","name":"rebalance","inputs":[],"outputs":[],"stateMutability":"nonpayable"},{"type":"function","name":"renounceOwnership","inputs":[],"outputs":[],"stateMutability":"nonpayable"},{"type":"function","name":"sAccRewardPerWeight","inputs":[],"outputs":[{"name":"","type":"uint256","internalType":"uint256"}],"stateMutability":"view"},{"type":"function","name":"sLastPositionId","inputs":[],"outputs":[{"name":"","type":"uint256","internalType":"uint256"}],"stateMutability":"view"},{"type":"function","name":"sNftOwner","inputs":[{"name":"","type":"uint256","internalType":"uint256"}],"outputs":[{"name":"","type":"address","internalType":"address"}],"stateMutability":"view"},{"type":"function","name":"sRewardDebt","inputs":[{"name":"","type":"uint256","internalType":"uint256"}],"outputs":[{"name":"","type":"uint256","internalType":"uint256"}],"stateMutability":"view"},{"type":"function","name":"sStakedTier","inputs":[{"name":"","type":"uint256","internalType":"uint256"}],"outputs":[{"name":"","type":"uint8","internalType":"uint8"}],"stateMutability":"view"},{"type":"function","name":"sTotalWeight","inputs":[],"outputs":[{"name":"","type":"uint256","internalType":"uint256"}],"stateMutability":"view"},{"type":"function","name":"stake","inputs":[{"name":"tokenId","type":"uint256","internalType":"uint256"},{"name":"tier","type":"uint8","internalType":"uint8"}],"outputs":[],"stateMutability":"nonpayable"},{"type":"function","name":"transferOwnership","inputs":[{"name":"newOwner","type":"address","internalType":"address"}],"outputs":[],"stateMutability":"nonpayable"},{"type":"function","name":"unstake","inputs":[{"name":"tokenId","type":"uint256","internalType":"uint256"}],"outputs":[],"stateMutability":"nonpayable"},{"type":"event","name":"OwnershipTransferred","inputs":[{"name":"previousOwner","type":"address","indexed":true,"internalType":"address"},{"name":"newOwner","type":"address","indexed":true,"internalType":"address"}],"anonymous":false},{"type":"event","name":"Rebalanced","inputs":[{"name":"positionId","type":"uint256","indexed":true,"internalType":"uint256"},{"name":"wethCollected","type":"uint256","indexed":false,"internalType":"uint256"},{"name":"usdcDistributed","type":"uint256","indexed":false,"internalType":"uint256"},{"name":"treasuryTax","type":"uint256","indexed":false,"internalType":"uint256"}],"anonymous":false},{"type":"event","name":"Staked","inputs":[{"name":"user","type":"address","indexed":true,"internalType":"address"},{"name":"tokenId","type":"uint256","indexed":true,"internalType":"uint256"},{"name":"tier","type":"uint8","indexed":false,"internalType":"uint8"},{"name":"weight","type":"uint256","indexed":false,"internalType":"uint256"}],"anonymous":false},{"type":"event","name":"Unstaked","inputs":[{"name":"user","type":"address","indexed":true,"internalType":"address"},{"name":"tokenId","type":"uint256","indexed":true,"internalType":"uint256"},{"name":"reward","type":"uint256","indexed":false,"internalType":"uint256"}],"anonymous":false},{"type":"event","name":"YieldClaimed","inputs":[{"name":"user","type":"address","indexed":true,"internalType":"address"},{"name":"tokenId","type":"uint256","indexed":true,"internalType":"uint256"},{"name":"reward","type":"uint256","indexed":false,"internalType":"uint256"}],"anonymous":false},{"type":"error","name":"OwnableInvalidOwner","inputs":[{"name":"owner","type":"address","internalType":"address"}]},{"type":"error","name":"OwnableUnauthorizedAccount","inputs":[{"name":"account","type":"address","internalType":"address"}]},{"type":"error","name":"ReentrancyGuardReentrantCall","inputs":[]},{"type":"error","name":"SafeERC20FailedOperation","inputs":[{"name":"token","type":"address","internalType":"address"}]}],"bytecode":{"object":"0x6101603461020057601f61221e38819003918201601f19168301916001600160401b038311848410176102045780849260e0946040528339810103126102005761004881610218565b9061005560208201610218565b9061006260408201610218565b61006e60608301610218565b61007a60808401610218565b9161009360c061008c60a08701610218565b9501610218565b9460017f9b779b17422d0df92223018b32b4d1fa46e071723d6817e2486d003becc55f005533156101ed575f8054336001600160a01b0319821681178355604051999290916001600160a01b0316907f8be0079c531659141344cd1fd0a4f28419497f9722a3daafe3b4186f6b6457e09080a36001600160a01b0390811660805290811660a05290811660c05290811660e05290811661010052166101205261014052611ff1908161022d8239608051818181610889015281816108e201528181610a3301528181610f420152611833015260a0518181816103860152610cfd015260c0518181816106a40152611383015260e0518181816114a101528181611715015261195901526101005181818161022b015281816104e301526106520152610120518181816102810152818161054f015281816105f90152818161159001526117cc0152610140518181816105940152610c3f0152f35b631e4fbdf760e01b5f525f60045260245ffd5b5f80fd5b634e487b7160e01b5f52604160045260245ffd5b51906001600160a01b03821682036102005756fe60806040526004361015610011575f80fd5b5f5f3560e01c806310087fb11461190757806314a66100146118d4578063150b7a02146118625780631bea83fe1461181d5780632e17de781461162f57806340bd2e23146114fa57806347312f71146114d057806355bfd0b01461148b57806362426b001461146d578063715018a6146114135780637211bbc9146113b25780637535d2461461136d5780637d7c2a1c146105c357806382c78fb81461057e57806389a30271146105395780638da5cb5b14610512578063ad5c4648146104cd578063ae1a01a2146103d3578063b00b21f2146103b5578063c600589314610370578063db2e21bc146101f5578063dbc7bfb7146101d7578063e3735fde146101aa5763f2fde38b14610122575f80fd5b346101a75760203660031901126101a75761013b611b6f565b610143611e18565b6001600160a01b031680156101935781546001600160a01b03198116821783556001600160a01b03167f8be0079c531659141344cd1fd0a4f28419497f9722a3daafe3b4186f6b6457e08380a380f35b631e4fbdf760e01b82526004829052602482fd5b80fd5b50346101a75760203660031901126101a75760ff6040602092600435815260068452205416604051908152f35b50346101a757806003193601126101a7576020600154604051908152f35b50346101a757806003193601126101a75761020e611d34565b610216611e18565b6040516370a0823160e01b81523060048201527f00000000000000000000000000000000000000000000000000000000000000006020826024816001600160a01b0385165afa918215610365578392610331575b506040516370a0823160e01b8152306004820152907f0000000000000000000000000000000000000000000000000000000000000000906020836024816001600160a01b0386165afa9283156103265785936102ec575b506102d8936102d1913390611d97565b3390611d97565b60015f516020611f9c5f395f51905f525580f35b9092506020813d60201161031e575b8161030860209383611b9b565b8101031261031a5751916102d86102c1565b5f80fd5b3d91506102fb565b6040513d87823e3d90fd5b9091506020813d60201161035d575b8161034d60209383611b9b565b8101031261031a5751905f61026a565b3d9150610340565b6040513d85823e3d90fd5b50346101a757806003193601126101a7576040517f00000000000000000000000000000000000000000000000000000000000000006001600160a01b03168152602090f35b50346101a757806003193601126101a7576020600354604051908152f35b50346101a75760203660031901126101a7576001600160a01b036103f5611b6f565b168082526007602052604082205461040c81611d1c565b9061041a6040519283611b9b565b80825261042681611d1c565b602083019390601f1901368537845b8281106104815750505090604051928392602084019060208552518091526040840192915b818110610468575050500390f35b825184528594506020938401939092019160010161045a565b81865260076020526104968160408820611e3e565b90549060031b1c84518210156104b957600582901b850160200152600101610435565b634e487b7160e01b87526032600452602487fd5b50346101a757806003193601126101a7576040517f00000000000000000000000000000000000000000000000000000000000000006001600160a01b03168152602090f35b50346101a757806003193601126101a757546040516001600160a01b039091168152602090f35b50346101a757806003193601126101a7576040517f00000000000000000000000000000000000000000000000000000000000000006001600160a01b03168152602090f35b50346101a757806003193601126101a7576040517f00000000000000000000000000000000000000000000000000000000000000006001600160a01b03168152602090f35b50346101a757806003193601126101a7576105dc611d34565b6105e4611e18565b6040516370a0823160e01b81523060048201527f00000000000000000000000000000000000000000000000000000000000000006001600160a01b038116929190602082602481875afa918215610365578392611339575b506040516370a0823160e01b81523060048201527f00000000000000000000000000000000000000000000000000000000000000006001600160a01b0316929091602083602481875afa928315610326578593611305575b50604051633850c7bd60e01b81527f00000000000000000000000000000000000000000000000000000000000000006001600160a01b03169060e081600481855afa908115610e6a57879161126f575b506020600492604051938480926334324e9f60e21b82525afa918215610e6a57879261122f575b5060020b8160020b90811561121b57627fffff1981145f1983141661120757806107388484819405611caa565b9289821291826111f8575b50506111e9575b6107686107628261075d61077294611c86565b611caa565b83611cc1565b9261075d81611c86565b60020b9060020b0192627fffff198412627fffff8513176111d55760035480610f2c575b506040516370a0823160e01b8152306004820152906020826024818c5afa8015610c25578890610ef8575b6107cb9250611c3c565b6040516370a0823160e01b815230600482015290946020826024818a5afa8015610c25578890610ec4575b6108009250611c3c565b66038d7ea4c680008111610ce6575b508592869285610c30575b506040516370a0823160e01b81523060048201526020816024818c5afa908115610c25578891610bf3575b506040516370a0823160e01b8152306004820152916020836024818b5afa928315610be8578993610bb4575b5060405163095ea7b360e01b81526001600160a01b037f0000000000000000000000000000000000000000000000000000000000000000166004820152602481018390526020816044818d8f5af18015610b7257610b7d575b5060405163095ea7b360e01b81526001600160a01b037f0000000000000000000000000000000000000000000000000000000000000000166004820152602481018490526020816044818d8d5af18015610b7257610b37575b506040519361016085019a858c1067ffffffffffffffff8d1117610b2357610140969798999a9b604052855260208501998a5262ffffff60408601610bb88152606087019260020b8352608087019360020b845260a0870194855260c087019586528c60e08801528c6101008801523061012088015242888801526040519b634418b22b60e11b8d528c600460018060a01b038a511691015260018060a01b0390511660248d0152511660448b01525160020b60648a01525160020b60848901525160a48801525160c487015260e081015160e487015261010081015161010487015260018060a01b03610120820151166101248701520151610144850152608084610164818860018060a01b037f0000000000000000000000000000000000000000000000000000000000000000165af1938415610326578594610ab3575b50916060917f6f55209924dba11af5ddabda4999b20d0ce3aa1847c56b67240ed1fc3590c134938560035560405192835260208301526040820152a260015f516020611f9c5f395f51905f525580f35b91929093506080823d608011610b1b575b81610ad160809383611b9b565b81010312610b17577f6f55209924dba11af5ddabda4999b20d0ce3aa1847c56b67240ed1fc3590c1349282610b0c6020606095519201611cf2565b509491935091610a63565b8480fd5b3d9150610ac4565b634e487b7160e01b8b52604160045260248bfd5b6020813d602011610b6a575b81610b5060209383611b9b565b81010312610b6657610b6190611c79565b610923565b8980fd5b3d9150610b43565b6040513d8c823e3d90fd5b6020813d602011610bac575b81610b9660209383611b9b565b81010312610b6657610ba790611c79565b6108ca565b3d9150610b89565b9092506020813d602011610be0575b81610bd060209383611b9b565b8101031261031a5751915f610871565b3d9150610bc3565b6040513d8b823e3d90fd5b90506020813d602011610c1d575b81610c0e60209383611b9b565b8101031261031a57515f610845565b3d9150610c01565b6040513d8a823e3d90fd5b93509150610c64600a850480947f000000000000000000000000000000000000000000000000000000000000000090611d97565b610c6e8385611c3c565b9160015480158015610c81575b5061081a565b670de0b6b3a7640000850290858204670de0b6b3a76400001486151715610cd257610cbe5790610cb49104600254611bdf565b6002555f80610c7b565b634e487b7160e01b89526012600452602489fd5b634e487b7160e01b8a52601160045260248afd5b60405163095ea7b360e01b81526001600160a01b037f000000000000000000000000000000000000000000000000000000000000000016600482018190526024820183905292959192906020816044818c8c5af18015610be857610e89575b50604051610100810181811067ffffffffffffffff821117610e755760209291610104916040528981528a848201938d85526040830197610bb889526060840190308252608085019042825260a0860190815260c086019185835260e087019386855262ffffff6040519d8e9b8c9a63414bf38960e01b8c5260018060a01b0390511660048c015260018060a01b0390511660248b01525116604489015260018060a01b0390511660648801525160848701525160a48601525160c485015260018060a01b0390511660e48401525af1908115610e6a578791610e34575b610e2d9250611bdf565b925f61080f565b90506020823d602011610e62575b81610e4f60209383611b9b565b8101031261031a57610e2d915190610e23565b3d9150610e42565b6040513d89823e3d90fd5b634e487b7160e01b8a52604160045260248afd5b6020813d602011610ebc575b81610ea260209383611b9b565b81010312610eb857610eb390611c79565b610d45565b8880fd5b3d9150610e95565b506020823d602011610ef0575b81610ede60209383611b9b565b8101031261031a5761080091516107f6565b3d9150610ed1565b506020823d602011610f24575b81610f1260209383611b9b565b8101031261031a576107cb91516107c1565b3d9150610f05565b60405163133f757160e31b8152600481018290527f00000000000000000000000000000000000000000000000000000000000000006001600160a01b0316919061018081602481865afa8015610b72578a90611112575b6001600160801b0391501680611052575b5050600354604051906080820182811067ffffffffffffffff821117610b2357604090815290825230602083019081526001600160801b0383830181815260608501828152845163fc6f786560e01b81529551600487015292516001600160a01b03166024860152518116604485015290511660648301529091829060849082908c905af18015610c255715610796576110459060403d60401161104b575b61103d8183611b9b565b810190611d06565b50610796565b503d611033565b6040519160a0830183811067ffffffffffffffff8211176110fe57604052825260208201908152604082018a815260608301908b82526001600160801b03608085019342855260405195630624e65f60e11b87525160048701525116602485015251604484015251606483015251608482015260408160a4818c865af18015610be8576110e0575b80610f94565b6110f89060403d60401161104b5761103d8183611b9b565b506110da565b634e487b7160e01b8c52604160045260248cfd5b50610180813d82116111cd575b8161112d6101809383611b9b565b81010312610b665780516001600160601b03811603610b665761115260208201611cde565b5061115f60408201611cde565b5061116c60608201611cde565b50608081015162ffffff811603610b66578061119260a06001600160801b039301611c5c565b5061119f60c08201611c5c565b506111c76101606111b260e08401611cf2565b926111c06101408201611cf2565b5001611cf2565b50610f83565b3d915061111f565b634e487b7160e01b87526011600452602487fd5b6111f291611cc1565b8161074a565b0760020b151590505f80610743565b634e487b7160e01b88526011600452602488fd5b634e487b7160e01b88526012600452602488fd5b9091506020813d602011611267575b8161124b60209383611b9b565b810103126112635761125c90611c5c565b905f61070b565b8680fd5b3d915061123e565b905060e0813d60e0116112fd575b8161128a60e09383611b9b565b810103126112635780516001600160a01b0381160361126357906020826112f460c06112b98460049701611c5c565b926112c660408201611c6a565b506112d360608201611c6a565b506112e060808201611c6a565b506112ed60a08201611bd1565b5001611c79565b509192506106e4565b3d915061127d565b9092506020813d602011611331575b8161132160209383611b9b565b8101031261031a5751915f610694565b3d9150611314565b9091506020813d602011611365575b8161135560209383611b9b565b8101031261031a5751905f61063c565b3d9150611348565b50346101a757806003193601126101a7576040517f00000000000000000000000000000000000000000000000000000000000000006001600160a01b03168152602090f35b50346101a75760203660031901126101a757670de0b6b3a764000061140a6020926114046004358083526006865260406113f160ff8286205416611d6c565b9360025492815260058852205490611c3c565b90611c49565b04604051908152f35b50346101a757806003193601126101a75761142c611e18565b80546001600160a01b03198116825581906001600160a01b03167f8be0079c531659141344cd1fd0a4f28419497f9722a3daafe3b4186f6b6457e08280a380f35b50346101a757806003193601126101a7576020600254604051908152f35b50346101a757806003193601126101a7576040517f00000000000000000000000000000000000000000000000000000000000000006001600160a01b03168152602090f35b50346101a75760203660031901126101a75760406020916004358152600583522054604051908152f35b50346101a75760203660031901126101a757600435611517611d34565b808252600460205261153660018060a01b036040842054163314611c00565b808252600660205261154e60ff604084205416611d6c565b670de0b6b3a7640000611574600254928486526005602052611404604087205485611c3c565b049081156115f457828452600560205260408420556115b481337f0000000000000000000000000000000000000000000000000000000000000000611d97565b6040519081527f10d8dedfc0745b8c25ba10b06e304138b251c18dcaadf2d71c7f3214719dc4d160203392a360015f516020611f9c5f395f51905f525580f35b60405162461bcd60e51b81526020600482015260136024820152724e6f207265776172647320746f20636c61696d60681b6044820152606490fd5b50346101a75760203660031901126101a75760043561164c611d34565b808252600460205261166b60018060a01b036040842054163314611c00565b808252600660205261168360ff604084205416611d6c565b6116bb670de0b6b3a76400006116b16116ab6002548688526005602052604088205490611c3c565b84611c49565b0491600154611c3c565b6001558183526004602052604083206001600160601b0360a01b8154169055818352600560205282604081205581835260066020526040832060ff19815416905533835260076020526117118260408520611ed6565b50827f00000000000000000000000000000000000000000000000000000000000000006001600160a01b0316803b1561181957604051632142170760e11b8152306004820152336024820152604481018590529082908290606490829084905af1801561180e576117f5575b5050806117c5575b6040519081527f7fc4727e062e336010f2c282598ef5f14facb3de68cf8195c2f23e1454b2b74e60203392a360015f516020611f9c5f395f51905f525580f35b6117f081337f0000000000000000000000000000000000000000000000000000000000000000611d97565b611785565b816117ff91611b9b565b61180a57825f61177d565b8280fd5b6040513d84823e3d90fd5b5080fd5b50346101a757806003193601126101a7576040517f00000000000000000000000000000000000000000000000000000000000000006001600160a01b03168152602090f35b50346101a75760803660031901126101a75761187c611b6f565b50611885611b85565b5060643567ffffffffffffffff8111611819573660238201121561181957806004013567ffffffffffffffff811161180a57369101602401116101a757604051630a85bd0160e11b8152602090f35b50346101a75760203660031901126101a757602090600435815260048252604060018060a01b0391205416604051908152f35b503461031a57604036600319011261031a5760043560243560ff81169081810361031a57611933611d34565b600182101580611b64575b15611b305760405163c26b265f60e01b8152600481018490527f00000000000000000000000000000000000000000000000000000000000000006001600160a01b031690602081602481855afa8015611ab25784915f91611af2575b5060ff1603611abd57803b1561031a57604051632142170760e11b815233600482015230602482015260448101859052905f908290606490829084905af18015611ab257611a9b575b506119fd9060025484865260056020526040862055611d6c565b611a0981600154611bdf565b600155828452600460205260408420336001600160601b0360a01b8254161790558284526006602052604084208260ff198254161790553384526007602052611a558360408620611e67565b5060405191825260208201527fbde7f0ba1630d25515c7ab99ba47d5640b7ffb4c673b2a5464ae67919558929860403392a360015f516020611f9c5f395f51905f525580f35b611aa89194505f90611b9b565b5f926119fd6119e3565b6040513d5f823e3d90fd5b60405162461bcd60e51b815260206004820152600d60248201526c0a8d2cae440dad2e6dac2e8c6d609b1b6044820152606490fd5b9150506020813d602011611b28575b81611b0e60209383611b9b565b8101031261031a5760ff611b228592611bd1565b9061199a565b3d9150611b01565b60405162461bcd60e51b815260206004820152600c60248201526b24b73b30b634b2103a34b2b960a11b6044820152606490fd5b50600382111561193e565b600435906001600160a01b038216820361031a57565b602435906001600160a01b038216820361031a57565b90601f8019910116810190811067ffffffffffffffff821117611bbd57604052565b634e487b7160e01b5f52604160045260245ffd5b519060ff8216820361031a57565b91908201809211611bec57565b634e487b7160e01b5f52601160045260245ffd5b15611c0757565b60405162461bcd60e51b815260206004820152600d60248201526c2737ba103a34329037bbb732b960991b6044820152606490fd5b91908203918211611bec57565b81810292918115918404141715611bec57565b51908160020b820361031a57565b519061ffff8216820361031a57565b5190811515820361031a57565b60020b8015611c96576101f40590565b634e487b7160e01b5f52601260045260245ffd5b9060020b9060020b02908160020b918203611bec57565b600291820b910b0390627fffff198212627fffff831317611bec57565b51906001600160a01b038216820361031a57565b51906001600160801b038216820361031a57565b919082604091031261031a576020825192015190565b67ffffffffffffffff8111611bbd5760051b60200190565b60025f516020611f9c5f395f51905f525414611d5d5760025f516020611f9c5f395f51905f5255565b633ee5aeb560e01b5f5260045ffd5b60ff1660018103611d7d5750606490565b60028103611d8b5750608790565b600303611b305760af90565b916040519163a9059cbb60e01b5f5260018060a01b031660045260245260205f60448180865af19060015f5114821615611df7575b60405215611dd75750565b635274afe760e01b5f9081526001600160a01b0391909116600452602490fd5b906001811516611e0f57823b15153d15161690611dcc565b503d5f823e3d90fd5b5f546001600160a01b03163303611e2b57565b63118cdaa760e01b5f523360045260245ffd5b8054821015611e53575f5260205f2001905f90565b634e487b7160e01b5f52603260045260245ffd5b6001810190825f528160205260405f2054155f14611ecf57805468010000000000000000811015611bbd57611ebc611ea6826001879401855584611e3e565b819391549060031b91821b915f19901b19161790565b905554915f5260205260405f2055600190565b5050505f90565b906001820191815f528260205260405f20548015155f14611f93575f198101818111611bec5782545f19810191908211611bec57818103611f5e575b50505080548015611f4a575f190190611f2b8282611e3e565b8154905f199060031b1b19169055555f526020525f6040812055600190565b634e487b7160e01b5f52603160045260245ffd5b611f7e611f6e611ea69386611e3e565b90549060031b1c92839286611e3e565b90555f528360205260405f20555f8080611f12565b505050505f9056fe9b779b17422d0df92223018b32b4d1fa46e071723d6817e2486d003becc55f00a264697066735822122047c1d3e81d3dfb0964c767bb2fafed60559d1324b1c8c3105037b7e0473341b064736f6c634300081e0033","linkReferences":{}},"methodIdentifiers":{"I_ELEMENT_NFT()":"55bfd0b0","PAYMASTER()":"82c78fb8","POOL()":"7535d246","POSITION_MANAGER()":"1bea83fe","SWAP_ROUTER()":"c6005893","USDC()":"89a30271","WETH()":"ad5c4648","claimYield(uint256)":"40bd2e23","emergencyWithdraw()":"db2e21bc","getPendingReward(uint256)":"7211bbc9","getUserStakedTokens(address)":"ae1a01a2","onERC721Received(address,address,uint256,bytes)":"150b7a02","owner()":"8da5cb5b","rebalance()":"7d7c2a1c","renounceOwnership()":"715018a6","sAccRewardPerWeight()":"62426b00","sLastPositionId()":"b00b21f2","sNftOwner(uint256)":"14a66100","sRewardDebt(uint256)":"47312f71","sStakedTier(uint256)":"e3735fde","sTotalWeight()":"dbc7bfb7","stake(uint256,uint8)":"10087fb1","transferOwnership(address)":"f2fde38b","unstake(uint256)":"2e17de78"},"id":72}