{"abi":[{"type":"constructor","inputs":[{"name":"_positionManager","type":"address","internalType":"address"},{"name":"_swapRouter","type":"address","internalType":"address"},{"name":"_pool","type":"address","internalType":"address"},{"name":"_weth","type":"address","internalType":"address"},{"name":"_usdc","type":"address","internalType":"address"},{"name":"_paymaster","type":"address","internalType":"address"}],"stateMutability":"nonpayable"},{"type":"receive","stateMutability":"payable"},{"type":"function","name":"I_ELEMENT_NFT","inputs":[],"outputs":[{"name":"","type":"address","internalType":"contract ElementNFT"}],"stateMutability":"view"},{"type":"function","name":"PAYMASTER","inputs":[],"outputs":[{"name":"","type":"address","internalType":"address"}],"stateMutability":"view"},{"type":"function","name":"POOL","inputs":[],"outputs":[{"name":"","type":"address","internalType":"contract IUniswapV3Pool"}],"stateMutability":"view"},{"type":"function","name":"POSITION_MANAGER","inputs":[],"outputs":[{"name":"","type":"address","internalType":"contract INonfungiblePositionManager"}],"stateMutability":"view"},{"type":"function","name":"SWAP_ROUTER","inputs":[],"outputs":[{"name":"","type":"address","internalType":"contract ISwapRouter"}],"stateMutability":"view"},{"type":"function","name":"USDC","inputs":[],"outputs":[{"name":"","type":"address","internalType":"contract IERC20"}],"stateMutability":"view"},{"type":"function","name":"WETH","inputs":[],"outputs":[{"name":"","type":"address","internalType":"contract IERC20"}],"stateMutability":"view"},{"type":"function","name":"_attemptSwap","inputs":[{"name":"wethAmount","type":"uint256","internalType":"uint256"}],"outputs":[{"name":"","type":"uint256","internalType":"uint256"}],"stateMutability":"nonpayable"},{"type":"function","name":"claimYield","inputs":[{"name":"tokenId","type":"uint256","internalType":"uint256"}],"outputs":[],"stateMutability":"nonpayable"},{"type":"function","name":"emergencyWithdraw","inputs":[],"outputs":[],"stateMutability":"nonpayable"},{"type":"function","name":"getPendingReward","inputs":[{"name":"tokenId","type":"uint256","internalType":"uint256"}],"outputs":[{"name":"","type":"uint256","internalType":"uint256"}],"stateMutability":"view"},{"type":"function","name":"getUserStakedTokens","inputs":[{"name":"user","type":"address","internalType":"address"}],"outputs":[{"name":"","type":"uint256[]","internalType":"uint256[]"}],"stateMutability":"view"},{"type":"function","name":"onERC721Received","inputs":[{"name":"","type":"address","internalType":"address"},{"name":"","type":"address","internalType":"address"},{"name":"","type":"uint256","internalType":"uint256"},{"name":"","type":"bytes","internalType":"bytes"}],"outputs":[{"name":"","type":"bytes4","internalType":"bytes4"}],"stateMutability":"pure"},{"type":"function","name":"owner","inputs":[],"outputs":[{"name":"","type":"address","internalType":"address"}],"stateMutability":"view"},{"type":"function","name":"rebalance","inputs":[],"outputs":[],"stateMutability":"nonpayable"},{"type":"function","name":"renounceOwnership","inputs":[],"outputs":[],"stateMutability":"nonpayable"},{"type":"function","name":"sAccRewardPerWeight","inputs":[],"outputs":[{"name":"","type":"uint256","internalType":"uint256"}],"stateMutability":"view"},{"type":"function","name":"sLastPositionId","inputs":[],"outputs":[{"name":"","type":"uint256","internalType":"uint256"}],"stateMutability":"view"},{"type":"function","name":"sNftOwner","inputs":[{"name":"","type":"uint256","internalType":"uint256"}],"outputs":[{"name":"","type":"address","internalType":"address"}],"stateMutability":"view"},{"type":"function","name":"sRewardDebt","inputs":[{"name":"","type":"uint256","internalType":"uint256"}],"outputs":[{"name":"","type":"uint256","internalType":"uint256"}],"stateMutability":"view"},{"type":"function","name":"sStakedTier","inputs":[{"name":"","type":"uint256","internalType":"uint256"}],"outputs":[{"name":"","type":"uint8","internalType":"uint8"}],"stateMutability":"view"},{"type":"function","name":"sTotalUnclaimedYield","inputs":[],"outputs":[{"name":"","type":"uint256","internalType":"uint256"}],"stateMutability":"view"},{"type":"function","name":"sTotalWeight","inputs":[],"outputs":[{"name":"","type":"uint256","internalType":"uint256"}],"stateMutability":"view"},{"type":"function","name":"setElementNFT","inputs":[{"name":"_elementNFT","type":"address","internalType":"address"}],"outputs":[],"stateMutability":"nonpayable"},{"type":"function","name":"stake","inputs":[{"name":"tokenId","type":"uint256","internalType":"uint256"},{"name":"tier","type":"uint8","internalType":"uint8"}],"outputs":[],"stateMutability":"nonpayable"},{"type":"function","name":"transferOwnership","inputs":[{"name":"newOwner","type":"address","internalType":"address"}],"outputs":[],"stateMutability":"nonpayable"},{"type":"function","name":"unstake","inputs":[{"name":"tokenId","type":"uint256","internalType":"uint256"}],"outputs":[],"stateMutability":"nonpayable"},{"type":"event","name":"ElementNFTSet","inputs":[{"name":"elementNFT","type":"address","indexed":true,"internalType":"address"}],"anonymous":false},{"type":"event","name":"OwnershipTransferred","inputs":[{"name":"previousOwner","type":"address","indexed":true,"internalType":"address"},{"name":"newOwner","type":"address","indexed":true,"internalType":"address"}],"anonymous":false},{"type":"event","name":"Rebalanced","inputs":[{"name":"positionId","type":"uint256","indexed":true,"internalType":"uint256"},{"name":"wethCollected","type":"uint256","indexed":false,"internalType":"uint256"},{"name":"usdcDistributed","type":"uint256","indexed":false,"internalType":"uint256"},{"name":"treasuryTax","type":"uint256","indexed":false,"internalType":"uint256"}],"anonymous":false},{"type":"event","name":"Staked","inputs":[{"name":"user","type":"address","indexed":true,"internalType":"address"},{"name":"tokenId","type":"uint256","indexed":true,"internalType":"uint256"},{"name":"tier","type":"uint8","indexed":false,"internalType":"uint8"},{"name":"weight","type":"uint256","indexed":false,"internalType":"uint256"}],"anonymous":false},{"type":"event","name":"Unstaked","inputs":[{"name":"user","type":"address","indexed":true,"internalType":"address"},{"name":"tokenId","type":"uint256","indexed":true,"internalType":"uint256"},{"name":"reward","type":"uint256","indexed":false,"internalType":"uint256"}],"anonymous":false},{"type":"event","name":"YieldClaimed","inputs":[{"name":"user","type":"address","indexed":true,"internalType":"address"},{"name":"tokenId","type":"uint256","indexed":true,"internalType":"uint256"},{"name":"reward","type":"uint256","indexed":false,"internalType":"uint256"}],"anonymous":false},{"type":"error","name":"OwnableInvalidOwner","inputs":[{"name":"owner","type":"address","internalType":"address"}]},{"type":"error","name":"OwnableUnauthorizedAccount","inputs":[{"name":"account","type":"address","internalType":"address"}]},{"type":"error","name":"ReentrancyGuardReentrantCall","inputs":[]}],"bytecode":{"object":"0x610140604052348015610010575f5ffd5b50604051612e6b380380612e6b83398101604081905261002f916100fd565b60015f55338061005857604051631e4fbdf760e01b81525f600482015260240160405180910390fd5b61006181610091565b506001600160a01b0395861660805293851660a05291841660c052831660e052821661010052166101205261016d565b600180546001600160a01b038381166001600160a01b0319831681179093556040519116919082907f8be0079c531659141344cd1fd0a4f28419497f9722a3daafe3b4186f6b6457e0905f90a35050565b80516001600160a01b03811681146100f8575f5ffd5b919050565b5f5f5f5f5f5f60c08789031215610112575f5ffd5b61011b876100e2565b9550610129602088016100e2565b9450610137604088016100e2565b9350610145606088016100e2565b9250610153608088016100e2565b915061016160a088016100e2565b90509295509295509295565b60805160a05160c05160e0516101005161012051612bbb6102b05f395f818161046b015261121201525f818161049e01528181610a2b01528181610bbf01528181610cca01528181610e6c0152818161103e015281816111f0015281816117fc0152818161198b01528181611abc01528181611de001528181611f8d015261203901525f81816101a5015281816104ee01528181610eff015281816110db0152818161188f01528181611a3c01528181611ae101528181611d3b01528181611dbb01528181611efa015261200501525f81816103f0015281816112e0015261136901525f818161056201528181611d0c0152611e4f01525f81816102df01528181610fb101528181611465015281816114ed0152818161162d015281816116de015281816117740152818161195c01528181611a0d0152611b5a0152612bbb5ff3fe608060405260043610610198575f3560e01c80637cd545e0116100e7578063b00b21f211610087578063db2e21bc11610062578063db2e21bc146105a3578063dbc7bfb7146105b7578063e3735fde146105cc578063f2fde38b1461060c575f5ffd5b8063b00b21f21461053c578063c600589314610551578063cbe091d014610584575f5ffd5b806389a30271116100c257806389a302711461048d5780638da5cb5b146104c0578063ad5c4648146104dd578063ae1a01a214610510575f5ffd5b80637cd545e0146104275780637d7c2a1c1461044657806382c78fb81461045a575f5ffd5b806347312f7111610152578063715018a61161012d578063715018a6146103ac5780637211bbc9146103c05780637535d246146103df5780637a3b122714610412575f5ffd5b806347312f711461033f57806355bfd0b01461037857806362426b0014610397575f5ffd5b806310087fb11461021a57806314a6610014610239578063150b7a021461028a5780631bea83fe146102ce5780632e17de781461030157806340bd2e2314610320575f5ffd5b36610216573415610214577f00000000000000000000000000000000000000000000000000000000000000006001600160a01b031663d0e30db0346040518263ffffffff1660e01b81526004015f604051808303818588803b1580156101fc575f5ffd5b505af115801561020e573d5f5f3e3d5ffd5b50505050505b005b5f5ffd5b348015610225575f5ffd5b506102146102343660046124ab565b61062b565b348015610244575f5ffd5b5061026d6102533660046124d9565b60076020525f90815260409020546001600160a01b031681565b6040516001600160a01b0390911681526020015b60405180910390f35b348015610295575f5ffd5b506102b56102a4366004612504565b630a85bd0160e11b95945050505050565b6040516001600160e01b03199091168152602001610281565b3480156102d9575f5ffd5b5061026d7f000000000000000000000000000000000000000000000000000000000000000081565b34801561030c575f5ffd5b5061021461031b3660046124d9565b61086f565b34801561032b575f5ffd5b5061021461033a3660046124d9565b610a97565b34801561034a575f5ffd5b5061036a6103593660046124d9565b60086020525f908152604090205481565b604051908152602001610281565b348015610383575f5ffd5b5060025461026d906001600160a01b031681565b3480156103a2575f5ffd5b5061036a60045481565b3480156103b7575f5ffd5b50610214610d35565b3480156103cb575f5ffd5b5061036a6103da3660046124d9565b610d48565b3480156103ea575f5ffd5b5061026d7f000000000000000000000000000000000000000000000000000000000000000081565b34801561041d575f5ffd5b5061036a60065481565b348015610432575f5ffd5b5061021461044136600461259d565b610da9565b348015610451575f5ffd5b50610214610e41565b348015610465575f5ffd5b5061026d7f000000000000000000000000000000000000000000000000000000000000000081565b348015610498575f5ffd5b5061026d7f000000000000000000000000000000000000000000000000000000000000000081565b3480156104cb575f5ffd5b506001546001600160a01b031661026d565b3480156104e8575f5ffd5b5061026d7f000000000000000000000000000000000000000000000000000000000000000081565b34801561051b575f5ffd5b5061052f61052a36600461259d565b611bf1565b60405161028191906125b8565b348015610547575f5ffd5b5061036a60055481565b34801561055c575f5ffd5b5061026d7f000000000000000000000000000000000000000000000000000000000000000081565b34801561058f575f5ffd5b5061036a61059e3660046124d9565b611cb5565b3480156105ae575f5ffd5b50610214611ed3565b3480156105c2575f5ffd5b5061036a60035481565b3480156105d7575f5ffd5b506105fa6105e63660046124d9565b60096020525f908152604090205460ff1681565b60405160ff9091168152602001610281565b348015610617575f5ffd5b5061021461062636600461259d565b61206b565b6106336120a5565b60018160ff161015801561064b575060038160ff1611155b61068b5760405162461bcd60e51b815260206004820152600c60248201526b24b73b30b634b2103a34b2b960a11b60448201526064015b60405180910390fd5b60025460405163c26b265f60e01b81526004810184905260ff8316916001600160a01b03169063c26b265f90602401602060405180830381865afa1580156106d5573d5f5f3e3d5ffd5b505050506040513d601f19601f820116820180604052508101906106f991906125fa565b60ff16146107395760405162461bcd60e51b815260206004820152600d60248201526c0a8d2cae440dad2e6dac2e8c6d609b1b6044820152606401610682565b600254604051632142170760e11b8152336004820152306024820152604481018490526001600160a01b03909116906342842e0e906064015f604051808303815f87803b158015610788575f5ffd5b505af115801561079a573d5f5f3e3d5ffd5b50506004545f8581526008602052604081209190915591506107bd9050826120cd565b90508060035f8282546107d09190612629565b90915550505f8381526007602090815260408083208054336001600160a01b0319909116811790915560098352818420805460ff191660ff88161790558352600a90915290206108209084612143565b506040805160ff8416815260208101839052849133917fbde7f0ba1630d25515c7ab99ba47d5640b7ffb4c673b2a5464ae679195589298910160405180910390a35061086b60015f55565b5050565b6108776120a5565b5f818152600760205260409020546001600160a01b031633146108cc5760405162461bcd60e51b815260206004820152600d60248201526c2737ba103a34329037bbb732b960991b6044820152606401610682565b5f818152600960205260408120546108e69060ff166120cd565b5f838152600860205260408120546004549293509091670de0b6b3a76400009161090f9161263c565b610919908461264f565b610923919061267a565b90508160035f828254610936919061263c565b90915550505f83815260076020908152604080832080546001600160a01b03191690556008825280832083905560098252808320805460ff19169055338352600a90915290206109869084612157565b50600254604051632142170760e11b8152306004820152336024820152604481018590526001600160a01b03909116906342842e0e906064015f604051808303815f87803b1580156109d6575f5ffd5b505af11580156109e8573d5f5f3e3d5ffd5b505050505f811115610a52578060065410610a19578060065f828254610a0e919061263c565b90915550610a1e9050565b5f6006555b610a526001600160a01b037f0000000000000000000000000000000000000000000000000000000000000000163383612162565b604051818152839033907f7fc4727e062e336010f2c282598ef5f14facb3de68cf8195c2f23e1454b2b74e9060200160405180910390a35050610a9460015f55565b50565b610a9f6120a5565b5f818152600760205260409020546001600160a01b03163314610af45760405162461bcd60e51b815260206004820152600d60248201526c2737ba103a34329037bbb732b960991b6044820152606401610682565b5f81815260096020526040812054610b0e9060ff166120cd565b5f838152600860205260408120546004549293509091670de0b6b3a764000091610b379161263c565b610b41908461264f565b610b4b919061267a565b90505f8111610b925760405162461bcd60e51b81526020600482015260136024820152724e6f207265776172647320746f20636c61696d60681b6044820152606401610682565b600480545f858152600860205260408082209290925590516370a0823160e01b81523092810192909252907f00000000000000000000000000000000000000000000000000000000000000006001600160a01b0316906370a0823190602401602060405180830381865afa158015610c0c573d5f5f3e3d5ffd5b505050506040513d601f19601f82011682018060405250810190610c30919061268d565b90505f818311610c405782610c42565b815b90505f8111610c935760405162461bcd60e51b815260206004820152601a60248201527f4e6f205553444320617661696c61626c6520696e207661756c740000000000006044820152606401610682565b8060065410610cb8578060065f828254610cad919061263c565b90915550610cbd9050565b5f6006555b610cf16001600160a01b037f0000000000000000000000000000000000000000000000000000000000000000163383612162565b604051818152859033907f10d8dedfc0745b8c25ba10b06e304138b251c18dcaadf2d71c7f3214719dc4d19060200160405180910390a350505050610a9460015f55565b610d3d61226a565b610d465f612297565b565b5f818152600960205260408120548190610d649060ff166120cd565b5f848152600860205260408120546004549293509091670de0b6b3a764000091610d8d9161263c565b610d97908461264f565b610da1919061267a565b949350505050565b610db161226a565b6002546001600160a01b031615610df85760405162461bcd60e51b815260206004820152600b60248201526a105b1c9958591e481cd95d60aa1b6044820152606401610682565b600280546001600160a01b0319166001600160a01b0383169081179091556040517fc9013312b13916c6abb6188e730f47b46758d0d4f15e84fcfa19d77db8758dfc905f90a250565b610e496120a5565b610e5161226a565b6040516370a0823160e01b81523060048201525f90819081907f00000000000000000000000000000000000000000000000000000000000000006001600160a01b0316906370a0823190602401602060405180830381865afa158015610eb9573d5f5f3e3d5ffd5b505050506040513d601f19601f82011682018060405250810190610edd919061268d565b6040516370a0823160e01b81523060048201529091505f906001600160a01b037f000000000000000000000000000000000000000000000000000000000000000016906370a0823190602401602060405180830381865afa158015610f44573d5f5f3e3d5ffd5b505050506040513d601f19601f82011682018060405250810190610f68919061268d565b90506005545f14611027576040805160808101825260055481523060208201526001600160801b038183018190526060820152905163fc6f786560e01b81526001600160a01b037f0000000000000000000000000000000000000000000000000000000000000000169163fc6f786591610fe591906004016126a4565b60408051808303815f875af1158015611000573d5f5f3e3d5ffd5b505050506040513d601f19601f8201168201806040525081019061102491906126e7565b50505b6040516370a0823160e01b815230600482015282907f00000000000000000000000000000000000000000000000000000000000000006001600160a01b0316906370a0823190602401602060405180830381865afa15801561108b573d5f5f3e3d5ffd5b505050506040513d601f19601f820116820180604052508101906110af919061268d565b6110b9919061263c565b6040516370a0823160e01b815230600482015290945081906001600160a01b037f000000000000000000000000000000000000000000000000000000000000000016906370a0823190602401602060405180830381865afa158015611120573d5f5f3e3d5ffd5b505050506040513d601f19601f82011682018060405250810190611144919061268d565b61114e919061263c565b925066038d7ea4c680008311156111ce57604051630cbe091d60e41b815260048101849052309063cbe091d0906024016020604051808303815f875af19250505080156111b8575060408051601f3d908101601f191682019092526111b59181019061268d565b60015b156111ce576111c78186612629565b94505f9350505b5f808515611299576111e1600a8761267a565b91506112376001600160a01b037f0000000000000000000000000000000000000000000000000000000000000000167f000000000000000000000000000000000000000000000000000000000000000084612162565b611241828761263c565b6003549091501561129957600354611261670de0b6b3a76400008361264f565b61126b919061267a565b60045f82825461127b9190612629565b925050819055508060065f8282546112939190612629565b90915550505b60055460408051888152602081018490529081018490527f6f55209924dba11af5ddabda4999b20d0ce3aa1847c56b67240ed1fc3590c1349060600160405180910390a25f7f00000000000000000000000000000000000000000000000000000000000000006001600160a01b0316633850c7bd6040518163ffffffff1660e01b815260040160e060405180830381865afa15801561133a573d5f5f3e3d5ffd5b505050506040513d601f19601f8201168201806040525081019061135e919061273a565b50505050509150505f7f00000000000000000000000000000000000000000000000000000000000000006001600160a01b031663d0c93a7c6040518163ffffffff1660e01b8152600401602060405180830381865afa1580156113c3573d5f5f3e3d5ffd5b505050506040513d601f19601f820116820180604052508101906113e791906127bf565b90505f6113f483836122e8565b90505f82611404816101f46127d8565b61140e9190612810565b611418908361282f565b90505f83611428816101f46127d8565b6114329190612810565b61143c9084612854565b6005549091505f90156117dc5760055460405163133f757160e31b81525f916001600160a01b037f000000000000000000000000000000000000000000000000000000000000000016916399fbab889161149c9160040190815260200190565b61018060405180830381865afa1580156114b8573d5f5f3e3d5ffd5b505050506040513d601f19601f820116820180604052508101906114dc91906128ac565b505050509750505050505050505f5f7f00000000000000000000000000000000000000000000000000000000000000006001600160a01b03166399fbab886005546040518263ffffffff1660e01b815260040161153b91815260200190565b61018060405180830381865afa158015611557573d5f5f3e3d5ffd5b505050506040513d601f19601f8201168201806040525081019061157b91906128ac565b5050505050965096505050505050826001600160801b03165f036115a25760019350611754565b8160020b8960020b12806115bb57508060020b8960020b135b15611754576040805160a08101825260055481526001600160801b03858116602083019081525f8385018181526060850191825242608086019081529551630624e65f60e11b8152945160048601529151909216602484015251604483015251606482015290516084820152600194507f00000000000000000000000000000000000000000000000000000000000000006001600160a01b031690630c49ccbe9060a40160408051808303815f875af115801561167a573d5f5f3e3d5ffd5b505050506040513d601f19601f8201168201806040525081019061169e91906126e7565b50506040805160808101825260055481523060208201526001600160801b038183018190526060820152905163fc6f786560e01b81526001600160a01b037f0000000000000000000000000000000000000000000000000000000000000000169163fc6f78659161171291906004016126a4565b60408051808303815f875af115801561172d573d5f5f3e3d5ffd5b505050506040513d601f19601f8201168201806040525081019061175191906126e7565b50505b83156117d857600554604051630852cd8d60e31b815260048101919091527f00000000000000000000000000000000000000000000000000000000000000006001600160a01b0316906342966c68906024015f604051808303815f87803b1580156117bd575f5ffd5b505af11580156117cf573d5f5f3e3d5ffd5b50505f60055550505b5050505b6005545f03611bdc576040516370a0823160e01b81523060048201525f907f00000000000000000000000000000000000000000000000000000000000000006001600160a01b0316906370a0823190602401602060405180830381865afa158015611849573d5f5f3e3d5ffd5b505050506040513d601f19601f8201168201806040525081019061186d919061268d565b6040516370a0823160e01b81523060048201529091505f906001600160a01b037f000000000000000000000000000000000000000000000000000000000000000016906370a0823190602401602060405180830381865afa1580156118d4573d5f5f3e3d5ffd5b505050506040513d601f19601f820116820180604052508101906118f8919061268d565b90505f600654831161190a575f611917565b600654611917908461263c565b90505f606461192783605061264f565b611931919061267a565b90505f81118061194057505f83115b15611bd75760405163095ea7b360e01b81526001600160a01b037f000000000000000000000000000000000000000000000000000000000000000081166004830152602482018390527f0000000000000000000000000000000000000000000000000000000000000000169063095ea7b3906044016020604051808303815f875af11580156119d1573d5f5f3e3d5ffd5b505050506040513d601f19601f820116820180604052508101906119f59190612986565b5060405163095ea7b360e01b81526001600160a01b037f000000000000000000000000000000000000000000000000000000000000000081166004830152602482018590527f0000000000000000000000000000000000000000000000000000000000000000169063095ea7b3906044016020604051808303815f875af1158015611a82573d5f5f3e3d5ffd5b505050506040513d601f19601f82011682018060405250810190611aa69190612986565b5060408051610160810182526001600160a01b037f0000000000000000000000000000000000000000000000000000000000000000811682527f000000000000000000000000000000000000000000000000000000000000000081166020830152610bb88284015260028a810b606084015289900b608083015260a0820184905260c082018690525f60e0830181905261010083015230610120830152426101408301529151634418b22b60e11b815290917f00000000000000000000000000000000000000000000000000000000000000001690638831645690611b8f90849060040161299f565b6080604051808303815f875af1158015611bab573d5f5f3e3d5ffd5b505050506040513d601f19601f82011682018060405250810190611bcf9190612a63565b505050600555505b505050505b505050505050505050505050610d4660015f55565b6001600160a01b0381165f908152600a6020526040812060609190611c159061232d565b90505f8167ffffffffffffffff811115611c3157611c31612a9c565b604051908082528060200260200182016040528015611c5a578160200160208202803683370190505b5090505f5b82811015611cad576001600160a01b0385165f908152600a60205260409020611c889082612336565b828281518110611c9a57611c9a612ab0565b6020908102919091010152600101611c5f565b509392505050565b5f333014611cf55760405162461bcd60e51b815260206004820152600d60248201526c496e7465726e616c206f6e6c7960981b6044820152606401610682565b60405163095ea7b360e01b81526001600160a01b037f000000000000000000000000000000000000000000000000000000000000000081166004830152602482018490527f0000000000000000000000000000000000000000000000000000000000000000169063095ea7b3906044016020604051808303815f875af1158015611d81573d5f5f3e3d5ffd5b505050506040513d601f19601f82011682018060405250810190611da59190612986565b5060408051610100810182526001600160a01b037f0000000000000000000000000000000000000000000000000000000000000000811682527f0000000000000000000000000000000000000000000000000000000000000000166020820152610bb8918101919091523060608201525f9060808101611e274261012c612629565b8152602081018590525f60408083018290526060909201525163414bf38960e01b81529091507f00000000000000000000000000000000000000000000000000000000000000006001600160a01b03169063414bf38990611e8c908490600401612ac4565b6020604051808303815f875af1158015611ea8573d5f5f3e3d5ffd5b505050506040513d601f19601f82011682018060405250810190611ecc919061268d565b9392505050565b611edb6120a5565b611ee361226a565b6040516370a0823160e01b81523060048201525f907f00000000000000000000000000000000000000000000000000000000000000006001600160a01b0316906370a0823190602401602060405180830381865afa158015611f47573d5f5f3e3d5ffd5b505050506040513d601f19601f82011682018060405250810190611f6b919061268d565b6040516370a0823160e01b81523060048201529091505f906001600160a01b037f000000000000000000000000000000000000000000000000000000000000000016906370a0823190602401602060405180830381865afa158015611fd2573d5f5f3e3d5ffd5b505050506040513d601f19601f82011682018060405250810190611ff6919061268d565b905061202c6001600160a01b037f0000000000000000000000000000000000000000000000000000000000000000163384612162565b6120606001600160a01b037f0000000000000000000000000000000000000000000000000000000000000000163383612162565b5050610d4660015f55565b61207361226a565b6001600160a01b03811661209c57604051631e4fbdf760e01b81525f6004820152602401610682565b610a9481612297565b60025f54036120c757604051633ee5aeb560e01b815260040160405180910390fd5b60025f55565b5f8160ff166001036120e157506064919050565b8160ff166002036120f457506087919050565b8160ff16600303612107575060af919050565b60405162461bcd60e51b815260206004820152600c60248201526b24b73b30b634b2103a34b2b960a11b6044820152606401610682565b919050565b5f61214e8383612341565b90505b92915050565b5f61214e838361238d565b604080516001600160a01b038481166024830152604480830185905283518084039091018152606490920183526020820180516001600160e01b031663a9059cbb60e01b17905291515f928392908716916121bd9190612b3a565b5f604051808303815f865af19150503d805f81146121f6576040519150601f19603f3d011682016040523d82523d5f602084013e6121fb565b606091505b50915091508180156122255750805115806122255750808060200190518101906122259190612986565b6122635760405162461bcd60e51b815260206004820152600f60248201526e151c985b9cd9995c8819985a5b1959608a1b6044820152606401610682565b5050505050565b6001546001600160a01b03163314610d465760405163118cdaa760e01b8152336004820152602401610682565b600180546001600160a01b038381166001600160a01b0319831681179093556040519116919082907f8be0079c531659141344cd1fd0a4f28419497f9722a3daafe3b4186f6b6457e0905f90a35050565b5f80826122f581866127d8565b6122ff9190612810565b90505f8460020b12801561231e57506123188385612b50565b60020b15155b1561214e57610da1838261282f565b5f612151825490565b5f61214e8383612477565b5f81815260018301602052604081205461238657508154600181810184555f848152602080822090930184905584548482528286019093526040902091909155612151565b505f612151565b5f8181526001830160205260408120548015612467575f6123af60018361263c565b85549091505f906123c29060019061263c565b9050808214612421575f865f0182815481106123e0576123e0612ab0565b905f5260205f200154905080875f01848154811061240057612400612ab0565b5f918252602080832090910192909255918252600188019052604090208390555b855486908061243257612432612b71565b600190038181905f5260205f20015f90559055856001015f8681526020019081526020015f205f905560019350505050612151565b5f915050612151565b5092915050565b5f825f01828154811061248c5761248c612ab0565b905f5260205f200154905092915050565b60ff81168114610a94575f5ffd5b5f5f604083850312156124bc575f5ffd5b8235915060208301356124ce8161249d565b809150509250929050565b5f602082840312156124e9575f5ffd5b5035919050565b6001600160a01b0381168114610a94575f5ffd5b5f5f5f5f5f60808688031215612518575f5ffd5b8535612523816124f0565b94506020860135612533816124f0565b935060408601359250606086013567ffffffffffffffff811115612555575f5ffd5b8601601f81018813612565575f5ffd5b803567ffffffffffffffff81111561257b575f5ffd5b88602082840101111561258c575f5ffd5b959894975092955050506020019190565b5f602082840312156125ad575f5ffd5b813561214e816124f0565b602080825282518282018190525f918401906040840190835b818110156125ef5783518352602093840193909201916001016125d1565b509095945050505050565b5f6020828403121561260a575f5ffd5b815161214e8161249d565b634e487b7160e01b5f52601160045260245ffd5b8082018082111561215157612151612615565b8181038181111561215157612151612615565b808202811582820484141761215157612151612615565b634e487b7160e01b5f52601260045260245ffd5b5f8261268857612688612666565b500490565b5f6020828403121561269d575f5ffd5b5051919050565b815181526020808301516001600160a01b0316908201526040808301516001600160801b0390811691830191909152606092830151169181019190915260800190565b5f5f604083850312156126f8575f5ffd5b505080516020909101519092909150565b8051600281900b811461213e575f5ffd5b805161ffff8116811461213e575f5ffd5b8051801515811461213e575f5ffd5b5f5f5f5f5f5f5f60e0888a031215612750575f5ffd5b875161275b816124f0565b965061276960208901612709565b95506127776040890161271a565b94506127856060890161271a565b93506127936080890161271a565b925060a08801516127a38161249d565b91506127b160c0890161272b565b905092959891949750929550565b5f602082840312156127cf575f5ffd5b61214e82612709565b5f8160020b8360020b806127ee576127ee612666565b627fffff1982145f198214161561280757612807612615565b90059392505050565b5f8260020b8260020b028060020b915080821461247057612470612615565b600282810b9082900b03627fffff198112627fffff8213171561215157612151612615565b600281810b9083900b01627fffff8113627fffff198212171561215157612151612615565b805161213e816124f0565b805162ffffff8116811461213e575f5ffd5b80516001600160801b038116811461213e575f5ffd5b5f5f5f5f5f5f5f5f5f5f5f5f6101808d8f0312156128c8575f5ffd5b8c516bffffffffffffffffffffffff811681146128e3575f5ffd5b9b506128f160208e01612879565b9a506128ff60408e01612879565b995061290d60608e01612879565b985061291b60808e01612884565b975061292960a08e01612709565b965061293760c08e01612709565b955061294560e08e01612896565b6101008e01516101208f0151919650945092506129656101408e01612896565b91506129746101608e01612896565b90509295989b509295989b509295989b565b5f60208284031215612996575f5ffd5b61214e8261272b565b81516001600160a01b03168152610160810160208301516129cb60208401826001600160a01b03169052565b5060408301516129e2604084018262ffffff169052565b5060608301516129f7606084018260020b9052565b506080830151612a0c608084018260020b9052565b5060a083015160a083015260c083015160c083015260e083015160e0830152610100830151610100830152610120830151612a536101208401826001600160a01b03169052565b5061014092830151919092015290565b5f5f5f5f60808587031215612a76575f5ffd5b84519350612a8660208601612896565b6040860151606090960151949790965092505050565b634e487b7160e01b5f52604160045260245ffd5b634e487b7160e01b5f52603260045260245ffd5b81516001600160a01b03908116825260208084015182169083015260408084015162ffffff169083015260608084015191821690830152610100820190506080830151608083015260a083015160a083015260c083015160c083015260e083015161247060e08401826001600160a01b03169052565b5f82518060208501845e5f920191825250919050565b5f8260020b80612b6257612b62612666565b808360020b0791505092915050565b634e487b7160e01b5f52603160045260245ffdfea26469706673582212207b3655139dcad997d85baafb3cd9e34a86f08d98b36b3ba4cf195d0789d60f7e64736f6c634300081e0033","linkReferences":{}},"methodIdentifiers":{"I_ELEMENT_NFT()":"55bfd0b0","PAYMASTER()":"82c78fb8","POOL()":"7535d246","POSITION_MANAGER()":"1bea83fe","SWAP_ROUTER()":"c6005893","USDC()":"89a30271","WETH()":"ad5c4648","_attemptSwap(uint256)":"cbe091d0","claimYield(uint256)":"40bd2e23","emergencyWithdraw()":"db2e21bc","getPendingReward(uint256)":"7211bbc9","getUserStakedTokens(address)":"ae1a01a2","onERC721Received(address,address,uint256,bytes)":"150b7a02","owner()":"8da5cb5b","rebalance()":"7d7c2a1c","renounceOwnership()":"715018a6","sAccRewardPerWeight()":"62426b00","sLastPositionId()":"b00b21f2","sNftOwner(uint256)":"14a66100","sRewardDebt(uint256)":"47312f71","sStakedTier(uint256)":"e3735fde","sTotalUnclaimedYield()":"7a3b1227","sTotalWeight()":"dbc7bfb7","setElementNFT(address)":"7cd545e0","stake(uint256,uint8)":"10087fb1","transferOwnership(address)":"f2fde38b","unstake(uint256)":"2e17de78"},"id":61}