{"abi":[{"type":"constructor","inputs":[{"name":"nftAddress","type":"address","internalType":"address"},{"name":"_treasury","type":"address","internalType":"address"}],"stateMutability":"nonpayable"},{"type":"function","name":"DEFAULT_ADMIN_ROLE","inputs":[],"outputs":[{"name":"","type":"bytes32","internalType":"bytes32"}],"stateMutability":"view"},{"type":"function","name":"I_ELEMENT_NFT","inputs":[],"outputs":[{"name":"","type":"address","internalType":"contract ElementNFT"}],"stateMutability":"view"},{"type":"function","name":"TREASURY","inputs":[],"outputs":[{"name":"","type":"address","internalType":"address"}],"stateMutability":"view"},{"type":"function","name":"WITHDRAWER_ROLE","inputs":[],"outputs":[{"name":"","type":"bytes32","internalType":"bytes32"}],"stateMutability":"view"},{"type":"function","name":"craft","inputs":[{"name":"tokenIds","type":"uint256[3]","internalType":"uint256[3]"}],"outputs":[],"stateMutability":"payable"},{"type":"function","name":"getRoleAdmin","inputs":[{"name":"role","type":"bytes32","internalType":"bytes32"}],"outputs":[{"name":"","type":"bytes32","internalType":"bytes32"}],"stateMutability":"view"},{"type":"function","name":"grantRole","inputs":[{"name":"role","type":"bytes32","internalType":"bytes32"},{"name":"account","type":"address","internalType":"address"}],"outputs":[],"stateMutability":"nonpayable"},{"type":"function","name":"hasRole","inputs":[{"name":"role","type":"bytes32","internalType":"bytes32"},{"name":"account","type":"address","internalType":"address"}],"outputs":[{"name":"","type":"bool","internalType":"bool"}],"stateMutability":"view"},{"type":"function","name":"recepies","inputs":[{"name":"","type":"bytes32","internalType":"bytes32"}],"outputs":[{"name":"resultElement","type":"uint8","internalType":"enum AlchemistContract.ElementType"},{"name":"resultTier","type":"uint8","internalType":"uint8"}],"stateMutability":"view"},{"type":"function","name":"renounceRole","inputs":[{"name":"role","type":"bytes32","internalType":"bytes32"},{"name":"callerConfirmation","type":"address","internalType":"address"}],"outputs":[],"stateMutability":"nonpayable"},{"type":"function","name":"revokeRole","inputs":[{"name":"role","type":"bytes32","internalType":"bytes32"},{"name":"account","type":"address","internalType":"address"}],"outputs":[],"stateMutability":"nonpayable"},{"type":"function","name":"supportsInterface","inputs":[{"name":"interfaceId","type":"bytes4","internalType":"bytes4"}],"outputs":[{"name":"","type":"bool","internalType":"bool"}],"stateMutability":"view"},{"type":"function","name":"withdrawEth","inputs":[],"outputs":[],"stateMutability":"nonpayable"},{"type":"event","name":"RoleAdminChanged","inputs":[{"name":"role","type":"bytes32","indexed":true,"internalType":"bytes32"},{"name":"previousAdminRole","type":"bytes32","indexed":true,"internalType":"bytes32"},{"name":"newAdminRole","type":"bytes32","indexed":true,"internalType":"bytes32"}],"anonymous":false},{"type":"event","name":"RoleGranted","inputs":[{"name":"role","type":"bytes32","indexed":true,"internalType":"bytes32"},{"name":"account","type":"address","indexed":true,"internalType":"address"},{"name":"sender","type":"address","indexed":true,"internalType":"address"}],"anonymous":false},{"type":"event","name":"RoleRevoked","inputs":[{"name":"role","type":"bytes32","indexed":true,"internalType":"bytes32"},{"name":"account","type":"address","indexed":true,"internalType":"address"},{"name":"sender","type":"address","indexed":true,"internalType":"address"}],"anonymous":false},{"type":"error","name":"AccessControlBadConfirmation","inputs":[]},{"type":"error","name":"AccessControlUnauthorizedAccount","inputs":[{"name":"account","type":"address","internalType":"address"},{"name":"neededRole","type":"bytes32","internalType":"bytes32"}]},{"type":"error","name":"Alchemist__InsufficientETHSent","inputs":[]},{"type":"error","name":"Alchemist__InvalidRecepie","inputs":[]},{"type":"error","name":"Alchemist__NotTokenOwner","inputs":[]}],"bytecode":{"object":"0x60c060405234801561000f575f5ffd5b506040516115cc3803806115cc83398101604081905261002e91610842565b6100385f3361077e565b506001600160a01b03828116608090815290821660a0526040805160016020820152600591810182905260608101919091525f910160408051808303601f1901815282825280516020918201208383018352600684526002828501525f818152600192839052929092208351815493955090929091839160ff1916908360118111156100c6576100c6610873565b0217905550602091820151815460ff9091166101000261ff001990911617905560408051600292810183905290810191909152600560608201525f9060800160408051808303601f1901815282825280516020918201208383018352600784526002828501525f818152600192839052929092208351815493955090929091839160ff19169083601181111561015e5761015e610873565b0217905550602091820151815460ff9091166101000261ff001990911617905560408051600292810192909252600490820181905260608201525f9060800160408051808303601f1901815282825280516020918201208383018352600884526002828501525f818152600192839052929092208351815493955090929091839160ff1916908360118111156101f6576101f6610873565b0217905550602091820151815460ff9091166101000261ff001990911617905560408051600192810183905290810191909152600260608201525f9060800160408051808303601f1901815282825280516020918201208383018352600984526002828501525f818152600192839052929092208351815493955090929091839160ff19169083601181111561028e5761028e610873565b0217905550602091820151815460ff9091166101000261ff0019909116179055604080515f9281018390529081018290526003606082015260800160408051808303601f1901815282825280516020918201208383018352600a84526002828501525f818152600192839052929092208351815493955090929091839160ff19169083601181111561032257610322610873565b0217905550602091820151815460ff9091166101000261ff001990911617905560408051600292810192909252600390820181905260608201525f9060800160408051808303601f1901815282825280516020918201208383018352600b84526002828501525f818152600192839052929092208351815493955090929091839160ff1916908360118111156103ba576103ba610873565b0217905550602091820151815460ff9091166101000261ff001990911617905560408051600592810192909252600690820181905260608201525f9060800160408051808303601f1901815282825280516020918201208383018352600c84526003828501525f818152600192839052929092208351815493955090929091839160ff19169083601181111561045257610452610873565b0217905550602091820151815460ff9091166101000261ff001990911617905560408051600192810192909252600990820181905260608201525f9060800160408051808303601f1901815282825280516020918201208383018352600d84526003828501525f818152600192839052929092208351815493955090929091839160ff1916908360118111156104ea576104ea610873565b0217905550602091820151815460ff9091166101000261ff0019909116179055604080515f928101839052600a918101829052606081019190915260800160408051808303601f1901815282825280516020918201208383018352600e84526003828501525f818152600192839052929092208351815493955090929091839160ff19169083601181111561058157610581610873565b0217905550602091820151815460ff9091166101000261ff001990911617905560408051600292810192909252600790820181905260608201525f9060800160408051808303601f1901815282825280516020918201208383018352600f84526003828501525f818152600192839052929092208351815493955090929091839160ff19169083601181111561061957610619610873565b0217905550602091820151815460ff9091166101000261ff001990911617905560408051600492810192909252600890820181905260608201525f9060800160408051808303601f1901815282825280516020918201208383018352601084526003828501525f818152600192839052929092208351815493955090929091839160ff1916908360118111156106b1576106b1610873565b0217905550602091820151815460ff9091166101000261ff001990911617905560408051600392810192909252600b90820181905260608201525f9060800160408051808303601f190181528282528051602091820120838301835260118085526003838601525f828152600193849052939093208451815492965090939092849260ff191691849081111561074957610749610873565b021790555060209190910151815460ff9091166101000261ff0019909116179055506108879c50505050505050505050505050565b5f828152602081815260408083206001600160a01b038516845290915281205460ff1661081e575f838152602081815260408083206001600160a01b03861684529091529020805460ff191660011790556107d63390565b6001600160a01b0316826001600160a01b0316847f2f8788117e7eff1d82e926ec794901d17c78024a50270940304540a733656f0d60405160405180910390a4506001610821565b505f5b92915050565b80516001600160a01b038116811461083d575f5ffd5b919050565b5f5f60408385031215610853575f5ffd5b61085c83610827565b915061086a60208401610827565b90509250929050565b634e487b7160e01b5f52602160045260245ffd5b60805160a051610cf36108d95f395f8181610144015261048801525f81816102140152818161055c015281816105eb0152818161067a015281816106fb015281816108c701526109650152610cf35ff3fe6080604052600436106100bf575f3560e01c806355bfd0b01161007c578063a0ef91df11610057578063a0ef91df14610288578063a217fddf1461029c578063b0ff1b5b146102af578063d547741f146102c2575f5ffd5b806355bfd0b01461020357806385f438c11461023657806391d1485414610269575f5ffd5b806301ffc9a7146100c3578063248a9ca3146100f75780632d2c5565146101335780632f2ff15d1461017e57806336568abe1461019f578063406c0d34146101be575b5f5ffd5b3480156100ce575f5ffd5b506100e26100dd366004610b7c565b6102e1565b60405190151581526020015b60405180910390f35b348015610102575f5ffd5b50610125610111366004610baa565b5f9081526020819052604090206001015490565b6040519081526020016100ee565b34801561013e575f5ffd5b506101667f000000000000000000000000000000000000000000000000000000000000000081565b6040516001600160a01b0390911681526020016100ee565b348015610189575f5ffd5b5061019d610198366004610bd5565b610317565b005b3480156101aa575f5ffd5b5061019d6101b9366004610bd5565b610341565b3480156101c9575f5ffd5b506101f56101d8366004610baa565b60016020525f908152604090205460ff8082169161010090041682565b6040516100ee929190610c17565b34801561020e575f5ffd5b506101667f000000000000000000000000000000000000000000000000000000000000000081565b348015610241575f5ffd5b506101257f10dac8c06a04bec0b551627dad28bc00d6516b0caacd1c7b345fcdb5211334e481565b348015610274575f5ffd5b506100e2610283366004610bd5565b610379565b348015610293575f5ffd5b5061019d6103a1565b3480156102a7575f5ffd5b506101255f81565b61019d6102bd366004610c49565b61045d565b3480156102cd575f5ffd5b5061019d6102dc366004610bd5565b610a1a565b5f6001600160e01b03198216637965db0b60e01b148061031157506301ffc9a760e01b6001600160e01b03198316145b92915050565b5f8281526020819052604090206001015461033181610a3e565b61033b8383610a4b565b50505050565b6001600160a01b038116331461036a5760405163334bd91960e11b815260040160405180910390fd5b6103748282610ada565b505050565b5f918252602082815260408084206001600160a01b0393909316845291905290205460ff1690565b7f10dac8c06a04bec0b551627dad28bc00d6516b0caacd1c7b345fcdb5211334e46103cb81610a3e565b6040515f90339047908381818185875af1925050503d805f811461040a576040519150601f19603f3d011682016040523d82523d5f602084013e61040f565b606091505b50509050806104595760405162461bcd60e51b815260206004820152601160248201527015da5d1a191c985dd85b0819985a5b1959607a1b60448201526064015b60405180910390fd5b5050565b66071afd498d0000341015610485576040516357bfbdf160e11b815260040160405180910390fd5b5f7f00000000000000000000000000000000000000000000000000000000000000006001600160a01b0316346040515f6040518083038185875af1925050503d805f81146104ee576040519150601f19603f3d011682016040523d82523d5f602084013e6104f3565b606091505b50509050806105445760405162461bcd60e51b815260206004820152601860248201527f5472656173757279207472616e73666572206661696c656400000000000000006044820152606401610450565b60405163214b594360e21b8152823560048201525f907f00000000000000000000000000000000000000000000000000000000000000006001600160a01b03169063852d650c90602401602060405180830381865afa1580156105a9573d5f5f3e3d5ffd5b505050506040513d601f19601f820116820180604052508101906105cd9190610c82565b60405163214b594360e21b8152602085013560048201529091505f907f00000000000000000000000000000000000000000000000000000000000000006001600160a01b03169063852d650c90602401602060405180830381865afa158015610638573d5f5f3e3d5ffd5b505050506040513d601f19601f8201168201806040525081019061065c9190610c82565b6040805163214b594360e21b81529086013560048201529091505f907f00000000000000000000000000000000000000000000000000000000000000006001600160a01b03169063852d650c90602401602060405180830381865afa1580156106c7573d5f5f3e3d5ffd5b505050506040513d601f19601f820116820180604052508101906106eb9190610c82565b90505f5b60038110156107cb57337f00000000000000000000000000000000000000000000000000000000000000006001600160a01b0316636352211e88846003811061073a5761073a610c6e565b60200201356040518263ffffffff1660e01b815260040161075d91815260200190565b602060405180830381865afa158015610778573d5f5f3e3d5ffd5b505050506040513d601f19601f8201168201806040525081019061079c9190610ca2565b6001600160a01b0316146107c35760405163d8032c2160e01b815260040160405180910390fd5b6001016106ef565b508160ff168360ff1611156107de579091905b8060ff168260ff1611156107ee57905b8160ff168360ff161115610800579091905b6040805160ff80861660208301528085169282019290925290821660608201525f9060800160408051601f1981840301815282825280516020918201205f8181526001909252828220848401909352825490945090929190829060ff16601181111561086e5761086e610c03565b601181111561087f5761087f610c03565b8152905460ff610100909104811660209283015290820151919250165f036108ba57604051631a1f40ed60e11b815260040160405180910390fd5b5f5b6003811015610962577f00000000000000000000000000000000000000000000000000000000000000006001600160a01b03166342966c6889836003811061090657610906610c6e565b60200201356040518263ffffffff1660e01b815260040161092991815260200190565b5f604051808303815f87803b158015610940575f5ffd5b505af1158015610952573d5f5f3e3d5ffd5b5050600190920191506108bc9050565b507f00000000000000000000000000000000000000000000000000000000000000006001600160a01b031663352926a8338360200151845f015160118111156109ad576109ad610c03565b6040516001600160e01b031960e086901b1681526001600160a01b03909316600484015260ff91821660248401521660448201526064015f604051808303815f87803b1580156109fb575f5ffd5b505af1158015610a0d573d5f5f3e3d5ffd5b5050505050505050505050565b5f82815260208190526040902060010154610a3481610a3e565b61033b8383610ada565b610a488133610b43565b50565b5f610a568383610379565b610ad3575f838152602081815260408083206001600160a01b03861684529091529020805460ff19166001179055610a8b3390565b6001600160a01b0316826001600160a01b0316847f2f8788117e7eff1d82e926ec794901d17c78024a50270940304540a733656f0d60405160405180910390a4506001610311565b505f610311565b5f610ae58383610379565b15610ad3575f838152602081815260408083206001600160a01b0386168085529252808320805460ff1916905551339286917ff6391f5c32d9c69d2a47ea670b442974b53935d1edc7fd64eb21e047a839171b9190a4506001610311565b610b4d8282610379565b6104595760405163e2517d3f60e01b81526001600160a01b038216600482015260248101839052604401610450565b5f60208284031215610b8c575f5ffd5b81356001600160e01b031981168114610ba3575f5ffd5b9392505050565b5f60208284031215610bba575f5ffd5b5035919050565b6001600160a01b0381168114610a48575f5ffd5b5f5f60408385031215610be6575f5ffd5b823591506020830135610bf881610bc1565b809150509250929050565b634e487b7160e01b5f52602160045260245ffd5b6040810160128410610c3757634e487b7160e01b5f52602160045260245ffd5b92815260ff9190911660209091015290565b5f60608284031215610c59575f5ffd5b82606083011115610c68575f5ffd5b50919050565b634e487b7160e01b5f52603260045260245ffd5b5f60208284031215610c92575f5ffd5b815160ff81168114610ba3575f5ffd5b5f60208284031215610cb2575f5ffd5b8151610ba381610bc156fea2646970667358221220594ebf501ae0bbca7ad7c4ad85bf2ca18375dcc6464093e34d0a63518d958aeb64736f6c634300081e0033","linkReferences":{}},"methodIdentifiers":{"DEFAULT_ADMIN_ROLE()":"a217fddf","I_ELEMENT_NFT()":"55bfd0b0","TREASURY()":"2d2c5565","WITHDRAWER_ROLE()":"85f438c1","craft(uint256[3])":"b0ff1b5b","getRoleAdmin(bytes32)":"248a9ca3","grantRole(bytes32,address)":"2f2ff15d","hasRole(bytes32,address)":"91d14854","recepies(bytes32)":"406c0d34","renounceRole(bytes32,address)":"36568abe","revokeRole(bytes32,address)":"d547741f","supportsInterface(bytes4)":"01ffc9a7","withdrawEth()":"a0ef91df"},"id":56}