{"abi":[{"type":"constructor","inputs":[],"stateMutability":"nonpayable"},{"type":"function","name":"BURNER_ROLE","inputs":[],"outputs":[{"name":"","type":"bytes32","internalType":"bytes32"}],"stateMutability":"view"},{"type":"function","name":"DEFAULT_ADMIN_ROLE","inputs":[],"outputs":[{"name":"","type":"bytes32","internalType":"bytes32"}],"stateMutability":"view"},{"type":"function","name":"MINTER_ROLE","inputs":[],"outputs":[{"name":"","type":"bytes32","internalType":"bytes32"}],"stateMutability":"view"},{"type":"function","name":"WITHDRAWER_ROLE","inputs":[],"outputs":[{"name":"","type":"bytes32","internalType":"bytes32"}],"stateMutability":"view"},{"type":"function","name":"approve","inputs":[{"name":"to","type":"address","internalType":"address"},{"name":"tokenId","type":"uint256","internalType":"uint256"}],"outputs":[],"stateMutability":"nonpayable"},{"type":"function","name":"balanceOf","inputs":[{"name":"owner","type":"address","internalType":"address"}],"outputs":[{"name":"","type":"uint256","internalType":"uint256"}],"stateMutability":"view"},{"type":"function","name":"burn","inputs":[{"name":"tokenId","type":"uint256","internalType":"uint256"}],"outputs":[],"stateMutability":"nonpayable"},{"type":"function","name":"getApproved","inputs":[{"name":"tokenId","type":"uint256","internalType":"uint256"}],"outputs":[{"name":"","type":"address","internalType":"address"}],"stateMutability":"view"},{"type":"function","name":"getRoleAdmin","inputs":[{"name":"role","type":"bytes32","internalType":"bytes32"}],"outputs":[{"name":"","type":"bytes32","internalType":"bytes32"}],"stateMutability":"view"},{"type":"function","name":"getTokenElement","inputs":[{"name":"tokenId","type":"uint256","internalType":"uint256"}],"outputs":[{"name":"","type":"uint8","internalType":"uint8"}],"stateMutability":"view"},{"type":"function","name":"getTokenTier","inputs":[{"name":"tokenId","type":"uint256","internalType":"uint256"}],"outputs":[{"name":"","type":"uint8","internalType":"uint8"}],"stateMutability":"view"},{"type":"function","name":"grantRole","inputs":[{"name":"role","type":"bytes32","internalType":"bytes32"},{"name":"account","type":"address","internalType":"address"}],"outputs":[],"stateMutability":"nonpayable"},{"type":"function","name":"hasRole","inputs":[{"name":"role","type":"bytes32","internalType":"bytes32"},{"name":"account","type":"address","internalType":"address"}],"outputs":[{"name":"","type":"bool","internalType":"bool"}],"stateMutability":"view"},{"type":"function","name":"isApprovedForAll","inputs":[{"name":"owner","type":"address","internalType":"address"},{"name":"operator","type":"address","internalType":"address"}],"outputs":[{"name":"","type":"bool","internalType":"bool"}],"stateMutability":"view"},{"type":"function","name":"mint","inputs":[{"name":"to","type":"address","internalType":"address"},{"name":"tier","type":"uint8","internalType":"uint8"},{"name":"element","type":"uint8","internalType":"uint8"}],"outputs":[],"stateMutability":"nonpayable"},{"type":"function","name":"name","inputs":[],"outputs":[{"name":"","type":"string","internalType":"string"}],"stateMutability":"view"},{"type":"function","name":"ownerOf","inputs":[{"name":"tokenId","type":"uint256","internalType":"uint256"}],"outputs":[{"name":"","type":"address","internalType":"address"}],"stateMutability":"view"},{"type":"function","name":"publicMint","inputs":[{"name":"element","type":"uint8","internalType":"uint8"}],"outputs":[],"stateMutability":"payable"},{"type":"function","name":"renounceRole","inputs":[{"name":"role","type":"bytes32","internalType":"bytes32"},{"name":"callerConfirmation","type":"address","internalType":"address"}],"outputs":[],"stateMutability":"nonpayable"},{"type":"function","name":"revokeRole","inputs":[{"name":"role","type":"bytes32","internalType":"bytes32"},{"name":"account","type":"address","internalType":"address"}],"outputs":[],"stateMutability":"nonpayable"},{"type":"function","name":"safeTransferFrom","inputs":[{"name":"from","type":"address","internalType":"address"},{"name":"to","type":"address","internalType":"address"},{"name":"tokenId","type":"uint256","internalType":"uint256"}],"outputs":[],"stateMutability":"nonpayable"},{"type":"function","name":"safeTransferFrom","inputs":[{"name":"from","type":"address","internalType":"address"},{"name":"to","type":"address","internalType":"address"},{"name":"tokenId","type":"uint256","internalType":"uint256"},{"name":"data","type":"bytes","internalType":"bytes"}],"outputs":[],"stateMutability":"nonpayable"},{"type":"function","name":"setApprovalForAll","inputs":[{"name":"operator","type":"address","internalType":"address"},{"name":"approved","type":"bool","internalType":"bool"}],"outputs":[],"stateMutability":"nonpayable"},{"type":"function","name":"supportsInterface","inputs":[{"name":"interfaceId","type":"bytes4","internalType":"bytes4"}],"outputs":[{"name":"","type":"bool","internalType":"bool"}],"stateMutability":"view"},{"type":"function","name":"symbol","inputs":[],"outputs":[{"name":"","type":"string","internalType":"string"}],"stateMutability":"view"},{"type":"function","name":"tokenByIndex","inputs":[{"name":"index","type":"uint256","internalType":"uint256"}],"outputs":[{"name":"","type":"uint256","internalType":"uint256"}],"stateMutability":"view"},{"type":"function","name":"tokenOfOwnerByIndex","inputs":[{"name":"owner","type":"address","internalType":"address"},{"name":"index","type":"uint256","internalType":"uint256"}],"outputs":[{"name":"","type":"uint256","internalType":"uint256"}],"stateMutability":"view"},{"type":"function","name":"tokenURI","inputs":[{"name":"tokenId","type":"uint256","internalType":"uint256"}],"outputs":[{"name":"","type":"string","internalType":"string"}],"stateMutability":"view"},{"type":"function","name":"totalSupply","inputs":[],"outputs":[{"name":"","type":"uint256","internalType":"uint256"}],"stateMutability":"view"},{"type":"function","name":"transferFrom","inputs":[{"name":"from","type":"address","internalType":"address"},{"name":"to","type":"address","internalType":"address"},{"name":"tokenId","type":"uint256","internalType":"uint256"}],"outputs":[],"stateMutability":"nonpayable"},{"type":"function","name":"withdrawEth","inputs":[],"outputs":[],"stateMutability":"nonpayable"},{"type":"event","name":"Approval","inputs":[{"name":"owner","type":"address","indexed":true,"internalType":"address"},{"name":"approved","type":"address","indexed":true,"internalType":"address"},{"name":"tokenId","type":"uint256","indexed":true,"internalType":"uint256"}],"anonymous":false},{"type":"event","name":"ApprovalForAll","inputs":[{"name":"owner","type":"address","indexed":true,"internalType":"address"},{"name":"operator","type":"address","indexed":true,"internalType":"address"},{"name":"approved","type":"bool","indexed":false,"internalType":"bool"}],"anonymous":false},{"type":"event","name":"RoleAdminChanged","inputs":[{"name":"role","type":"bytes32","indexed":true,"internalType":"bytes32"},{"name":"previousAdminRole","type":"bytes32","indexed":true,"internalType":"bytes32"},{"name":"newAdminRole","type":"bytes32","indexed":true,"internalType":"bytes32"}],"anonymous":false},{"type":"event","name":"RoleGranted","inputs":[{"name":"role","type":"bytes32","indexed":true,"internalType":"bytes32"},{"name":"account","type":"address","indexed":true,"internalType":"address"},{"name":"sender","type":"address","indexed":true,"internalType":"address"}],"anonymous":false},{"type":"event","name":"RoleRevoked","inputs":[{"name":"role","type":"bytes32","indexed":true,"internalType":"bytes32"},{"name":"account","type":"address","indexed":true,"internalType":"address"},{"name":"sender","type":"address","indexed":true,"internalType":"address"}],"anonymous":false},{"type":"event","name":"Transfer","inputs":[{"name":"from","type":"address","indexed":true,"internalType":"address"},{"name":"to","type":"address","indexed":true,"internalType":"address"},{"name":"tokenId","type":"uint256","indexed":true,"internalType":"uint256"}],"anonymous":false},{"type":"error","name":"AccessControlBadConfirmation","inputs":[]},{"type":"error","name":"AccessControlUnauthorizedAccount","inputs":[{"name":"account","type":"address","internalType":"address"},{"name":"neededRole","type":"bytes32","internalType":"bytes32"}]},{"type":"error","name":"ERC721EnumerableForbiddenBatchMint","inputs":[]},{"type":"error","name":"ERC721IncorrectOwner","inputs":[{"name":"sender","type":"address","internalType":"address"},{"name":"tokenId","type":"uint256","internalType":"uint256"},{"name":"owner","type":"address","internalType":"address"}]},{"type":"error","name":"ERC721InsufficientApproval","inputs":[{"name":"operator","type":"address","internalType":"address"},{"name":"tokenId","type":"uint256","internalType":"uint256"}]},{"type":"error","name":"ERC721InvalidApprover","inputs":[{"name":"approver","type":"address","internalType":"address"}]},{"type":"error","name":"ERC721InvalidOperator","inputs":[{"name":"operator","type":"address","internalType":"address"}]},{"type":"error","name":"ERC721InvalidOwner","inputs":[{"name":"owner","type":"address","internalType":"address"}]},{"type":"error","name":"ERC721InvalidReceiver","inputs":[{"name":"receiver","type":"address","internalType":"address"}]},{"type":"error","name":"ERC721InvalidSender","inputs":[{"name":"sender","type":"address","internalType":"address"}]},{"type":"error","name":"ERC721NonexistentToken","inputs":[{"name":"tokenId","type":"uint256","internalType":"uint256"}]},{"type":"error","name":"ERC721OutOfBoundsIndex","inputs":[{"name":"owner","type":"address","internalType":"address"},{"name":"index","type":"uint256","internalType":"uint256"}]}],"bytecode":{"object":"0x60806040523461031f57604080519081016001600160401b03811182821017610235576040908152601082526f416c6368656d7920456c656d656e747360801b602083015280519081016001600160401b03811182821017610235576040526004815263454c454d60e01b602082015281516001600160401b038111610235575f54600181811c91168015610315575b602082101461021757601f81116102b3575b50602092601f821160011461025457928192935f92610249575b50508160011b915f199060031b1c1916175f555b80516001600160401b03811161023557600154600181811c9116801561022b575b602082101461021757601f81116101b4575b50602091601f8211600114610154579181925f92610149575b50508160011b915f199060031b1c1916176001555b61013933610323565b5060405161189f90816103ad8239f35b015190505f8061011b565b601f1982169260015f52805f20915f5b85811061019c57508360019510610184575b505050811b01600155610130565b01515f1960f88460031b161c191690555f8080610176565b91926020600181928685015181550194019201610164565b60015f527fb10e2d527612073b26eecdfd717e6a320cf44b4afac2b0732d9fcbe2b7fa0cf6601f830160051c8101916020841061020d575b601f0160051c01905b8181106102025750610102565b5f81556001016101f5565b90915081906101ec565b634e487b7160e01b5f52602260045260245ffd5b90607f16906100f0565b634e487b7160e01b5f52604160045260245ffd5b015190505f806100bb565b601f198216935f8052805f20915f5b86811061029b5750836001959610610283575b505050811b015f556100cf565b01515f1960f88460031b161c191690555f8080610276565b91926020600181928685015181550194019201610263565b5f80527f290decd9548b62a8d60345a988386fc84ba6bc95484008f6362f93160ef3e563601f830160051c8101916020841061030b575b601f0160051c01905b81811061030057506100a1565b5f81556001016102f3565b90915081906102ea565b90607f169061008f565b5f80fd5b6001600160a01b0381165f9081525f516020611c4c5f395f51905f52602052604090205460ff166103a7576001600160a01b03165f8181525f516020611c4c5f395f51905f5260205260408120805460ff191660011790553391907f2f8788117e7eff1d82e926ec794901d17c78024a50270940304540a733656f0d8180a4600190565b505f9056fe6080806040526004361015610012575f80fd5b5f905f3560e01c90816301ffc9a714610f695750806306fdde0314610eb1578063081812fc14610e75578063095ea7b314610d8b57806318160ddd14610d6e57806323b872dd14610d57578063248a9ca314610d2c578063282c51f314610cf25780632f2ff15d14610cb45780632f745c5914610c42578063352926a814610b6257806336568abe14610b1e57806342842e0e14610af557806342966c68146108445780634f6ccce7146107f65780636352211e146107c657806370a082311461079b578063852d650c1461076e578063858e83b51461067257806385f438c11461063857806391d14854146105ef57806395d89b41146104e7578063a0ef91df14610419578063a217fddf146103ff578063a22cb46514610364578063b88d4fde146102da578063c26b265f146102ad578063c87b56dd14610250578063d539139314610215578063d547741f146101cd5763e985e9c514610173575f80fd5b346101ca5760403660031901126101ca57604061018e61102c565b91610197611042565b9260018060a01b031681526005602052209060018060a01b03165f52602052602060ff60405f2054166040519015158152f35b80fd5b50346101ca5760403660031901126101ca576102116004356101ed611042565b9061020c610207825f52600a602052600160405f20015490565b611540565b6117e5565b5080f35b50346101ca57806003193601126101ca5760206040517f9f2df0fed2c77648de5860a4cc508cd0818c85b8b8a1ab4ceeef8d981c8956a68152f35b346102a95760203660031901126102a95761026c60043561151e565b505f60405161027c602082611092565b526102a560405161028e602082611092565b5f8152604051918291602083526020830190611008565b0390f35b5f80fd5b346102a95760203660031901126102a9576004355f52600d602052602060ff60405f205416604051908152f35b346102a95760803660031901126102a9576102f361102c565b6102fb611042565b6064359167ffffffffffffffff83116102a957366023840112156102a957826004013591610328836110b4565b926103366040519485611092565b80845236602482870101116102a9576020815f9260246103629801838801378501015260443591611405565b005b346102a95760403660031901126102a95761037d61102c565b602435908115158092036102a9576001600160a01b03169081156103ec57335f52600560205260405f20825f5260205260405f2060ff1981541660ff83161790556040519081527f17307eab39ab6107e8899845ad3d59bd9653f200f220920489ca2b5937696c3160203392a3005b50630b61174360e31b5f5260045260245ffd5b346102a9575f3660031901126102a95760206040515f8152f35b346102a9575f3660031901126102a957335f9081527ffc1222ca4ee6369ff1c1d4caae6e8c89dadd8316205198a91f1796435eccb940602052604090205460ff16156104b0575f80808047335af161046f6113d6565b501561047757005b60405162461bcd60e51b815260206004820152601160248201527015da5d1a191c985dd85b0819985a5b1959607a1b6044820152606490fd5b63e2517d3f60e01b5f52336004527f10dac8c06a04bec0b551627dad28bc00d6516b0caacd1c7b345fcdb5211334e460245260445ffd5b346102a9575f3660031901126102a9576040515f6001548060011c906001811680156105e5575b6020831081146105d1578285529081156105ad575060011461054f575b6102a58361053b81850382611092565b604051918291602083526020830190611008565b91905060015f527fb10e2d527612073b26eecdfd717e6a320cf44b4afac2b0732d9fcbe2b7fa0cf6915f905b8082106105935750909150810160200161053b61052b565b91926001816020925483858801015201910190929161057b565b60ff191660208086019190915291151560051b8401909101915061053b905061052b565b634e487b7160e01b5f52602260045260245ffd5b91607f169161050e565b346102a95760403660031901126102a957610608611042565b6004355f52600a60205260405f209060018060a01b03165f52602052602060ff60405f2054166040519015158152f35b346102a9575f3660031901126102a95760206040517f10dac8c06a04bec0b551627dad28bc00d6516b0caacd1c7b345fcdb5211334e48152f35b60203660031901126102a95760043560ff81168091036102a95766071afd498d0000341061073257600581116106ed576106dd90600b5490815f52600d60205260405f20600160ff19825416179055815f52600c60205260405f209060ff1982541617905533611606565b6106e8600b5461136b565b600b55005b60405162461bcd60e51b815260206004820152601a60248201527f496e76616c696420656c656d656e7420666f72205469657220310000000000006044820152606490fd5b60405162461bcd60e51b8152602060048201526014602482015273125b9cdd59999a58da595b9d081c185e5b595b9d60621b6044820152606490fd5b346102a95760203660031901126102a9576004355f52600c602052602060ff60405f205416604051908152f35b346102a95760203660031901126102a95760206107be6107b961102c565b6113a5565b604051908152f35b346102a95760203660031901126102a95760206107e460043561151e565b6040516001600160a01b039091168152f35b346102a95760203660031901126102a95760043560085481101561082e5761081f602091611379565b90549060031b1c604051908152f35b63295f44f760e21b5f525f60045260245260445ffd5b346102a95760203660031901126102a957335f9081527fe6ab19f8253506371de76613330f4bd39624affbf1f03032d6f1b9e37416aeba60205260409020546004359060ff1615610abe575f818152600260205260409020546001600160a01b0316801590811580610a8b575b5f84815260026020526040812080546001600160a01b03191690558490837fddf252ad1be2c89b69c2b068fc378daa952ba7f163c4a11628f55a4df523b3ef8280a48215610a105750600854835f5260096020528060405f2055600160401b8110156109fc578361092b8260016109439401600855611379565b90919082549060031b91821b915f19901b1916179055565b6008545f1981019081116109e857835f52600960205261096760405f205491611379565b90549060031b1c61097b8161092b84611379565b5f52600960205260405f2055825f5260096020525f604081205560085480156109d4575f19016109aa81611379565b8154905f199060031b1b19169055600855506109c257005b637e27328960e01b5f5260045260245ffd5b634e487b7160e01b5f52603160045260245ffd5b634e487b7160e01b5f52601160045260245ffd5b634e487b7160e01b5f52604160045260245ffd5b1561094357610a1e816113a5565b835f52600760205260405f205490825f52600660205260405f2091818103610a60575b50845f5260076020525f60408120555f526020525f6040812055610943565b815f528260205260405f2054815f52836020528060405f20555f52600760205260405f205585610a41565b5f84815260046020526040902080546001600160a01b0319169055815f52600360205260405f205f1981540190556108b1565b63e2517d3f60e01b5f52336004527f3c11d16cbaffd01df69ce1c404f6340ee057498f5f00246190ea54220576a84860245260445ffd5b346102a957610362610b0636611058565b9060405192610b16602085611092565b5f8452611405565b346102a95760403660031901126102a957610b37611042565b336001600160a01b03821603610b5357610362906004356117e5565b63334bd91960e11b5f5260045ffd5b346102a95760603660031901126102a957610b7b61102c565b60243560ff811681036102a9576044359160ff831683036102a957335f9081527faa1d7351356c4ddc11907b1ee0660f579cfdf507235af2ae01ecd22a4b7ceaae602052604090205460ff1615610c0b576106dd92600b5492835f52600d60205260ff60405f20911660ff19825416179055825f52600c60205260ff60405f20911660ff19825416179055611606565b63e2517d3f60e01b5f52336004527f9f2df0fed2c77648de5860a4cc508cd0818c85b8b8a1ab4ceeef8d981c8956a660245260445ffd5b346102a95760403660031901126102a957610c5b61102c565b60243590610c68816113a5565b821015610c975760018060a01b03165f52600660205260405f20905f52602052602060405f2054604051908152f35b63295f44f760e21b5f5260018060a01b031660045260245260445ffd5b346102a95760403660031901126102a957610362600435610cd3611042565b90610ced610207825f52600a602052600160405f20015490565b61157a565b346102a9575f3660031901126102a95760206040517f3c11d16cbaffd01df69ce1c404f6340ee057498f5f00246190ea54220576a8488152f35b346102a95760203660031901126102a95760206107be6004355f52600a602052600160405f20015490565b346102a957610362610d6836611058565b916110d0565b346102a9575f3660031901126102a9576020600854604051908152f35b346102a95760403660031901126102a957610da461102c565b602435610db08161151e565b33151580610e62575b80610e35575b610e225781906001600160a01b0384811691167f8c5be1e5ebec7d5bd14f71427d1e84f3dd0314c0f7b2291e5b200ac8c7c3b9255f80a45f90815260046020526040902080546001600160a01b0319166001600160a01b03909216919091179055005b63a9fbf51f60e01b5f523360045260245ffd5b506001600160a01b0381165f90815260056020908152604080832033845290915290205460ff1615610dbf565b506001600160a01b038116331415610db9565b346102a95760203660031901126102a957600435610e928161151e565b505f526004602052602060018060a01b0360405f205416604051908152f35b346102a9575f3660031901126102a9576040515f5f548060011c90600181168015610f5f575b6020831081146105d1578285529081156105ad5750600114610f03576102a58361053b81850382611092565b5f8080527f290decd9548b62a8d60345a988386fc84ba6bc95484008f6362f93160ef3e563939250905b808210610f455750909150810160200161053b61052b565b919260018160209254838588010152019101909291610f2d565b91607f1691610ed7565b346102a95760203660031901126102a9576004359063ffffffff60e01b82168092036102a957602091637965db0b60e01b8114908115610fab575b5015158152f35b63780e9d6360e01b811491508115610fc5575b5083610fa4565b6380ac58cd60e01b811491508115610ff7575b8115610fe6575b5083610fbe565b6301ffc9a760e01b14905083610fdf565b635b5e139f60e01b81149150610fd8565b805180835260209291819084018484015e5f828201840152601f01601f1916010190565b600435906001600160a01b03821682036102a957565b602435906001600160a01b03821682036102a957565b60609060031901126102a9576004356001600160a01b03811681036102a957906024356001600160a01b03811681036102a9579060443590565b90601f8019910116810190811067ffffffffffffffff8211176109fc57604052565b67ffffffffffffffff81116109fc57601f01601f191660200190565b9091906001600160a01b0383168015611358575f838152600260205260409020546001600160a01b031693331515806112c8575b5084158015611295575b825f52600360205260405f2060018154019055845f52600260205260405f20836bffffffffffffffffffffffff60a01b8254161790558483877fddf252ad1be2c89b69c2b068fc378daa952ba7f163c4a11628f55a4df523b3ef5f80a41561121857600854845f5260096020528060405f2055600160401b8110156109fc578461092b8260016111a19401600855611379565b8185036111d8575b50506001600160a01b03168083036111c057505050565b6364283d7b60e01b5f5260045260245260445260645ffd5b6111e1906113a5565b5f198101919082116109e8575f52600660205260405f20815f526020528260405f2055825f52600760205260405f20555f806111a9565b8482146111a157611228856113a5565b845f52600760205260405f205490865f52600660205260405f209181810361126a575b50855f5260076020525f60408120555f526020525f60408120556111a1565b815f528260205260405f2054815f52836020528060405f20555f52600760205260405f20555f61124b565b5f85815260046020526040902080546001600160a01b0319169055855f52600360205260405f205f19815401905561110e565b80611307575b156112d9575f611104565b83856112f157637e27328960e01b5f5260045260245ffd5b63177e802f60e01b5f523360045260245260445ffd5b503385148015611336575b806112ce57505f848152600460205260409020546001600160a01b031633146112ce565b505f85815260056020908152604080832033845290915290205460ff16611312565b633250574960e11b5f525f60045260245ffd5b5f1981146109e85760010190565b6008548110156113915760085f5260205f2001905f90565b634e487b7160e01b5f52603260045260245ffd5b6001600160a01b031680156113c3575f52600360205260405f205490565b6322718ad960e21b5f525f60045260245ffd5b3d15611400573d906113e7826110b4565b916113f56040519384611092565b82523d5f602084013e565b606090565b92916114128183866110d0565b813b61141f575b50505050565b604051630a85bd0160e11b81523360048201526001600160a01b039485166024820152604481019190915260806064820152921691906020908290819061146a906084830190611008565b03815f865af15f91816114d9575b506114a657506114866113d6565b805190816114a15782633250574960e11b5f5260045260245ffd5b602001fd5b6001600160e01b03191663757a42ff60e11b016114c757505f808080611419565b633250574960e11b5f5260045260245ffd5b9091506020813d602011611516575b816114f560209383611092565b810103126102a957516001600160e01b0319811681036102a957905f611478565b3d91506114e8565b5f818152600260205260409020546001600160a01b03169081156109c2575090565b5f818152600a6020908152604080832033845290915290205460ff16156115645750565b63e2517d3f60e01b5f523360045260245260445ffd5b5f818152600a602090815260408083206001600160a01b038616845290915290205460ff16611600575f818152600a602090815260408083206001600160a01b0395909516808452949091528120805460ff19166001179055339291907f2f8788117e7eff1d82e926ec794901d17c78024a50270940304540a733656f0d9080a4600190565b50505f90565b906001600160a01b0382168015611358575f828152600260205260409020546001600160a01b0316801580159491939190856117b2575b835f52600360205260405f2060018154019055825f52600260205260405f20846bffffffffffffffffffffffff60a01b8254161790558284867fddf252ad1be2c89b69c2b068fc378daa952ba7f163c4a11628f55a4df523b3ef5f80a41561173557600854825f5260096020528060405f2055600160401b8110156109fc578261092b8260016116d09401600855611379565b8284036116f5575b505050506116e257565b6339e3563760e11b5f525f60045260245ffd5b6116fe906113a5565b5f198101929083116109e8575f52600660205260405f20825f526020528060405f20555f52600760205260405f20555f80806116d8565b8383146116d057611745846113a5565b825f52600760205260405f205490855f52600660205260405f2091818103611787575b50835f5260076020525f60408120555f526020525f60408120556116d0565b815f528260205260405f2054815f52836020528060405f20555f52600760205260405f20555f611768565b5f83815260046020526040902080546001600160a01b0319169055845f52600360205260405f205f19815401905561163d565b5f818152600a602090815260408083206001600160a01b038616845290915290205460ff1615611600575f818152600a602090815260408083206001600160a01b0395909516808452949091528120805460ff19169055339291907ff6391f5c32d9c69d2a47ea670b442974b53935d1edc7fd64eb21e047a839171b9080a460019056fea2646970667358221220019847ad57e29b9a44b2a87459f165d27e5d10fb07f67f149267c406f1d0ffb164736f6c634300081e003313da86008ba1c6922daee3e07db95305ef49ebced9f5467a0b8613fcc6b343e3","linkReferences":{}},"methodIdentifiers":{"BURNER_ROLE()":"282c51f3","DEFAULT_ADMIN_ROLE()":"a217fddf","MINTER_ROLE()":"d5391393","WITHDRAWER_ROLE()":"85f438c1","approve(address,uint256)":"095ea7b3","balanceOf(address)":"70a08231","burn(uint256)":"42966c68","getApproved(uint256)":"081812fc","getRoleAdmin(bytes32)":"248a9ca3","getTokenElement(uint256)":"852d650c","getTokenTier(uint256)":"c26b265f","grantRole(bytes32,address)":"2f2ff15d","hasRole(bytes32,address)":"91d14854","isApprovedForAll(address,address)":"e985e9c5","mint(address,uint8,uint8)":"352926a8","name()":"06fdde03","ownerOf(uint256)":"6352211e","publicMint(uint8)":"858e83b5","renounceRole(bytes32,address)":"36568abe","revokeRole(bytes32,address)":"d547741f","safeTransferFrom(address,address,uint256)":"42842e0e","safeTransferFrom(address,address,uint256,bytes)":"b88d4fde","setApprovalForAll(address,bool)":"a22cb465","supportsInterface(bytes4)":"01ffc9a7","symbol()":"95d89b41","tokenByIndex(uint256)":"4f6ccce7","tokenOfOwnerByIndex(address,uint256)":"2f745c59","tokenURI(uint256)":"c87b56dd","totalSupply()":"18160ddd","transferFrom(address,address,uint256)":"23b872dd","withdrawEth()":"a0ef91df"},"id":70}