{"abi":[{"type":"constructor","inputs":[],"stateMutability":"nonpayable"},{"type":"function","name":"BURNER_ROLE","inputs":[],"outputs":[{"name":"","type":"bytes32","internalType":"bytes32"}],"stateMutability":"view"},{"type":"function","name":"DEFAULT_ADMIN_ROLE","inputs":[],"outputs":[{"name":"","type":"bytes32","internalType":"bytes32"}],"stateMutability":"view"},{"type":"function","name":"MINTER_ROLE","inputs":[],"outputs":[{"name":"","type":"bytes32","internalType":"bytes32"}],"stateMutability":"view"},{"type":"function","name":"WITHDRAWER_ROLE","inputs":[],"outputs":[{"name":"","type":"bytes32","internalType":"bytes32"}],"stateMutability":"view"},{"type":"function","name":"approve","inputs":[{"name":"to","type":"address","internalType":"address"},{"name":"tokenId","type":"uint256","internalType":"uint256"}],"outputs":[],"stateMutability":"nonpayable"},{"type":"function","name":"balanceOf","inputs":[{"name":"owner","type":"address","internalType":"address"}],"outputs":[{"name":"","type":"uint256","internalType":"uint256"}],"stateMutability":"view"},{"type":"function","name":"burn","inputs":[{"name":"tokenId","type":"uint256","internalType":"uint256"}],"outputs":[],"stateMutability":"nonpayable"},{"type":"function","name":"getApproved","inputs":[{"name":"tokenId","type":"uint256","internalType":"uint256"}],"outputs":[{"name":"","type":"address","internalType":"address"}],"stateMutability":"view"},{"type":"function","name":"getRoleAdmin","inputs":[{"name":"role","type":"bytes32","internalType":"bytes32"}],"outputs":[{"name":"","type":"bytes32","internalType":"bytes32"}],"stateMutability":"view"},{"type":"function","name":"getTokenElement","inputs":[{"name":"tokenId","type":"uint256","internalType":"uint256"}],"outputs":[{"name":"","type":"uint8","internalType":"uint8"}],"stateMutability":"view"},{"type":"function","name":"getTokenTier","inputs":[{"name":"tokenId","type":"uint256","internalType":"uint256"}],"outputs":[{"name":"","type":"uint8","internalType":"uint8"}],"stateMutability":"view"},{"type":"function","name":"grantRole","inputs":[{"name":"role","type":"bytes32","internalType":"bytes32"},{"name":"account","type":"address","internalType":"address"}],"outputs":[],"stateMutability":"nonpayable"},{"type":"function","name":"hasRole","inputs":[{"name":"role","type":"bytes32","internalType":"bytes32"},{"name":"account","type":"address","internalType":"address"}],"outputs":[{"name":"","type":"bool","internalType":"bool"}],"stateMutability":"view"},{"type":"function","name":"isApprovedForAll","inputs":[{"name":"owner","type":"address","internalType":"address"},{"name":"operator","type":"address","internalType":"address"}],"outputs":[{"name":"","type":"bool","internalType":"bool"}],"stateMutability":"view"},{"type":"function","name":"mint","inputs":[{"name":"to","type":"address","internalType":"address"},{"name":"tier","type":"uint8","internalType":"uint8"},{"name":"element","type":"uint8","internalType":"uint8"}],"outputs":[],"stateMutability":"nonpayable"},{"type":"function","name":"name","inputs":[],"outputs":[{"name":"","type":"string","internalType":"string"}],"stateMutability":"view"},{"type":"function","name":"ownerOf","inputs":[{"name":"tokenId","type":"uint256","internalType":"uint256"}],"outputs":[{"name":"","type":"address","internalType":"address"}],"stateMutability":"view"},{"type":"function","name":"publicMint","inputs":[{"name":"element","type":"uint8","internalType":"uint8"}],"outputs":[],"stateMutability":"payable"},{"type":"function","name":"renounceRole","inputs":[{"name":"role","type":"bytes32","internalType":"bytes32"},{"name":"callerConfirmation","type":"address","internalType":"address"}],"outputs":[],"stateMutability":"nonpayable"},{"type":"function","name":"revokeRole","inputs":[{"name":"role","type":"bytes32","internalType":"bytes32"},{"name":"account","type":"address","internalType":"address"}],"outputs":[],"stateMutability":"nonpayable"},{"type":"function","name":"safeTransferFrom","inputs":[{"name":"from","type":"address","internalType":"address"},{"name":"to","type":"address","internalType":"address"},{"name":"tokenId","type":"uint256","internalType":"uint256"}],"outputs":[],"stateMutability":"nonpayable"},{"type":"function","name":"safeTransferFrom","inputs":[{"name":"from","type":"address","internalType":"address"},{"name":"to","type":"address","internalType":"address"},{"name":"tokenId","type":"uint256","internalType":"uint256"},{"name":"data","type":"bytes","internalType":"bytes"}],"outputs":[],"stateMutability":"nonpayable"},{"type":"function","name":"setApprovalForAll","inputs":[{"name":"operator","type":"address","internalType":"address"},{"name":"approved","type":"bool","internalType":"bool"}],"outputs":[],"stateMutability":"nonpayable"},{"type":"function","name":"supportsInterface","inputs":[{"name":"interfaceId","type":"bytes4","internalType":"bytes4"}],"outputs":[{"name":"","type":"bool","internalType":"bool"}],"stateMutability":"view"},{"type":"function","name":"symbol","inputs":[],"outputs":[{"name":"","type":"string","internalType":"string"}],"stateMutability":"view"},{"type":"function","name":"tokenByIndex","inputs":[{"name":"index","type":"uint256","internalType":"uint256"}],"outputs":[{"name":"","type":"uint256","internalType":"uint256"}],"stateMutability":"view"},{"type":"function","name":"tokenOfOwnerByIndex","inputs":[{"name":"owner","type":"address","internalType":"address"},{"name":"index","type":"uint256","internalType":"uint256"}],"outputs":[{"name":"","type":"uint256","internalType":"uint256"}],"stateMutability":"view"},{"type":"function","name":"tokenURI","inputs":[{"name":"tokenId","type":"uint256","internalType":"uint256"}],"outputs":[{"name":"","type":"string","internalType":"string"}],"stateMutability":"view"},{"type":"function","name":"totalSupply","inputs":[],"outputs":[{"name":"","type":"uint256","internalType":"uint256"}],"stateMutability":"view"},{"type":"function","name":"transferFrom","inputs":[{"name":"from","type":"address","internalType":"address"},{"name":"to","type":"address","internalType":"address"},{"name":"tokenId","type":"uint256","internalType":"uint256"}],"outputs":[],"stateMutability":"nonpayable"},{"type":"function","name":"withdrawEth","inputs":[],"outputs":[],"stateMutability":"nonpayable"},{"type":"event","name":"Approval","inputs":[{"name":"owner","type":"address","indexed":true,"internalType":"address"},{"name":"approved","type":"address","indexed":true,"internalType":"address"},{"name":"tokenId","type":"uint256","indexed":true,"internalType":"uint256"}],"anonymous":false},{"type":"event","name":"ApprovalForAll","inputs":[{"name":"owner","type":"address","indexed":true,"internalType":"address"},{"name":"operator","type":"address","indexed":true,"internalType":"address"},{"name":"approved","type":"bool","indexed":false,"internalType":"bool"}],"anonymous":false},{"type":"event","name":"RoleAdminChanged","inputs":[{"name":"role","type":"bytes32","indexed":true,"internalType":"bytes32"},{"name":"previousAdminRole","type":"bytes32","indexed":true,"internalType":"bytes32"},{"name":"newAdminRole","type":"bytes32","indexed":true,"internalType":"bytes32"}],"anonymous":false},{"type":"event","name":"RoleGranted","inputs":[{"name":"role","type":"bytes32","indexed":true,"internalType":"bytes32"},{"name":"account","type":"address","indexed":true,"internalType":"address"},{"name":"sender","type":"address","indexed":true,"internalType":"address"}],"anonymous":false},{"type":"event","name":"RoleRevoked","inputs":[{"name":"role","type":"bytes32","indexed":true,"internalType":"bytes32"},{"name":"account","type":"address","indexed":true,"internalType":"address"},{"name":"sender","type":"address","indexed":true,"internalType":"address"}],"anonymous":false},{"type":"event","name":"Transfer","inputs":[{"name":"from","type":"address","indexed":true,"internalType":"address"},{"name":"to","type":"address","indexed":true,"internalType":"address"},{"name":"tokenId","type":"uint256","indexed":true,"internalType":"uint256"}],"anonymous":false},{"type":"error","name":"AccessControlBadConfirmation","inputs":[]},{"type":"error","name":"AccessControlUnauthorizedAccount","inputs":[{"name":"account","type":"address","internalType":"address"},{"name":"neededRole","type":"bytes32","internalType":"bytes32"}]},{"type":"error","name":"ERC721EnumerableForbiddenBatchMint","inputs":[]},{"type":"error","name":"ERC721IncorrectOwner","inputs":[{"name":"sender","type":"address","internalType":"address"},{"name":"tokenId","type":"uint256","internalType":"uint256"},{"name":"owner","type":"address","internalType":"address"}]},{"type":"error","name":"ERC721InsufficientApproval","inputs":[{"name":"operator","type":"address","internalType":"address"},{"name":"tokenId","type":"uint256","internalType":"uint256"}]},{"type":"error","name":"ERC721InvalidApprover","inputs":[{"name":"approver","type":"address","internalType":"address"}]},{"type":"error","name":"ERC721InvalidOperator","inputs":[{"name":"operator","type":"address","internalType":"address"}]},{"type":"error","name":"ERC721InvalidOwner","inputs":[{"name":"owner","type":"address","internalType":"address"}]},{"type":"error","name":"ERC721InvalidReceiver","inputs":[{"name":"receiver","type":"address","internalType":"address"}]},{"type":"error","name":"ERC721InvalidSender","inputs":[{"name":"sender","type":"address","internalType":"address"}]},{"type":"error","name":"ERC721NonexistentToken","inputs":[{"name":"tokenId","type":"uint256","internalType":"uint256"}]},{"type":"error","name":"ERC721OutOfBoundsIndex","inputs":[{"name":"owner","type":"address","internalType":"address"},{"name":"index","type":"uint256","internalType":"uint256"}]}],"bytecode":{"object":"0x60806040523461062657610013604061062a565b601081526f416c6368656d7920456c656d656e747360801b602082015261003a604061062a565b6004815263454c454d60e01b602082015281516001600160401b0381116104b8576100655f5461064f565b601f81116105d9575b50602092601f821160011461057a5761009f929382915f92610409575b50508160011b915f199060031b1c19161790565b5f555b80516001600160401b0381116104b8576100bd60015461064f565b601f811161052c575b50602091601f82116001146104cc576100f4925f91836104095750508160011b915f199060031b1c19161790565b6001555b60405161024081016001600160401b038111828210176104b85760405261011f604061062a565b600581526408ac2e4e8d60db1b6020820152815261013d604061062a565b60058152642bb0ba32b960d91b6020820152602082015261015e604061062a565b600481526315da5b9960e21b6020820152604082015261017e604061062a565b60048152634669726560e01b6020820152606082015261019e604061062a565b600381526249636560e81b602082015260808201526101bd604061062a565b60098152684c696768746e696e6760b81b602082015260a08201526101e2604061062a565b6006815265506c61736d6160d01b602082015260c0820152610204604061062a565b6007815266546f726e61646f60c81b602082015260e0820152610227604061062a565b6008815267109b1a5e9e985c9960c21b602082015261010082015261024c604061062a565b60078152665473756e616d6960c81b6020820152610120820152610270604061062a565b60058152645175616b6560d81b6020820152610140820152610292604061062a565b6007815266496e6665726e6f60c81b60208201526101608201526102b6604061062a565b6004815263486f6c7960e01b60208201526101808201526102d7604061062a565b60048152634461726b60e01b60208201526101a08201526102f8604061062a565b60078152664772617669747960c81b60208201526101c082015261031c604061062a565b600481526354696d6560e01b60208201526101e082015261033d604061062a565b600381526242696f60e81b602082015261020082015261035d604061062a565b600681526514dc1a5c9a5d60d21b6020820152610220820152600e905f905b6012821061039d5761038d3361069d565b5060405161224e90816107278239f35b80518051906001600160401b0382116104b8576103ba855461064f565b601f811161047d575b50602090601f831160011461041457926103fa836001959460209487965f926104095750508160011b915f199060031b1c19161790565b86555b0193019101909161037c565b015190505f8061008b565b90601f19831691865f52815f20925f5b818110610465575093602093600196938796938388951061044d575b505050811b0186556103fd565b01515f1960f88460031b161c191690555f8080610440565b82840151855560019094019360209384019301610424565b6104a890865f5260205f20601f850160051c810191602086106104ae575b601f0160051c0190610687565b5f6103c3565b909150819061049b565b634e487b7160e01b5f52604160045260245ffd5b601f1982169260015f52805f20915f5b858110610514575083600195106104fc575b505050811b016001556100f8565b01515f1960f88460031b161c191690555f80806104ee565b919260206001819286850151815501940192016104dc565b60015f52610574907fb10e2d527612073b26eecdfd717e6a320cf44b4afac2b0732d9fcbe2b7fa0cf6601f840160051c810191602085106104ae57601f0160051c0190610687565b5f6100c6565b601f198216935f8052805f20915f5b8681106105c157508360019596106105a9575b505050811b015f556100a2565b01515f1960f88460031b161c191690555f808061059c565b91926020600181928685015181550194019201610589565b5f8052610620907f290decd9548b62a8d60345a988386fc84ba6bc95484008f6362f93160ef3e563601f840160051c810191602085106104ae57601f0160051c0190610687565b5f61006e565b5f80fd5b6040519190601f01601f191682016001600160401b038111838210176104b857604052565b90600182811c9216801561067d575b602083101461066957565b634e487b7160e01b5f52602260045260245ffd5b91607f169161065e565b818110610692575050565b5f8155600101610687565b6001600160a01b0381165f9081525f5160206129755f395f51905f52602052604090205460ff16610721576001600160a01b03165f8181525f5160206129755f395f51905f5260205260408120805460ff191660011790553391907f2f8788117e7eff1d82e926ec794901d17c78024a50270940304540a733656f0d8180a4600190565b505f9056fe6080806040526004361015610012575f80fd5b5f3560e01c90816301ffc9a71461173f5750806306fdde0314611687578063081812fc1461164b578063095ea7b31461156157806318160ddd1461154457806323b872dd1461152d578063248a9ca314611502578063282c51f3146114c85780632f2ff15d1461148a5780632f745c5914611418578063352926a81461133857806336568abe146112f457806342842e0e146112cb57806342966c681461101a5780634f6ccce714610fcc5780636352211e14610f9c57806370a0823114610f71578063852d650c14610f44578063858e83b514610e4857806385f438c114610e0e57806391d1485414610dc557806395d89b4114610cd1578063a0ef91df14610c03578063a217fddf14610be9578063a22cb46514610b4e578063b88d4fde14610ac6578063c26b265f14610a99578063c87b56dd1461024b578063d539139314610211578063d547741f146101cc5763e985e9c514610171575f80fd5b346101c85760403660031901126101c85761018a611802565b610192611818565b9060018060a01b03165f52600560205260405f209060018060a01b03165f52602052602060ff60405f2054166040519015158152f35b5f80fd5b346101c85760403660031901126101c85761020f6004356101eb611818565b9061020a610205825f52600a602052600160405f20015490565b611dba565b61205f565b005b346101c8575f3660031901126101c85760206040517f9f2df0fed2c77648de5860a4cc508cd0818c85b8b8a1ab4ceeef8d981c8956a68152f35b346101c85760203660031901126101c85760043561026881611d98565b50805f52600c60205260ff60405f20541660128110156109fb5761028e90600e016118a6565b90805f52600d60205260ff60405f2054169182915f9272184f03e93ff9f4daa797ed6e38ed64bf6a1f0160401b851015610a76575b806d04ee2d6d415b85acef8100000000600a921015610a5b575b662386f26fc10000811015610a47575b6305f5e100811015610a36575b612710811015610a27575b6064811015610a19575b1015610a0f575b6001830193600a602161034161032b8861188a565b97610339604051998a611868565b80895261188a565b602088019690601f19013688378701015b5f1901916f181899199a1a9b1b9c1cb0b131b232b360811b8282061a835304801561038057600a9091610352565b5050805f52600d60205260ff60405f205416905f52600c60205260ff60405f2054169260128410156109fb57602a61073b600260286108e994602760206109349960836109489d610740849e61073b600d603d9f607d9060688a6103e78197600e016118a6565b600384149384156109a557604051610400604082611868565b60078152660234646443730360cc1b84820152945b1561094c575061013f8260405161042d604082611868565b600481526311dbdb1960e21b82820152925b604080517f3c73766720786d6c6e733d22687474703a2f2f7777772e77332e6f72672f32308d8201527f30302f73766722207072657365727665417370656374526174696f3d22784d69918101919091527f6e594d696e206d656574222076696577426f783d223020302033353020333530606082015261111f60f11b60808201527f3c7374796c653e2e62617365207b2066696c6c3a2077686974653b20666f6e7460828201527f2d66616d696c793a2073657269663b20666f6e742d73697a653a20323470783b60a282015269103e9e17b9ba3cb6329f60b11b60c28201527f3c726563742077696474683d223130302522206865696768743d22313030252260cc82015271103334b6361e91119830983098309110179f60711b60ec8201527f3c7265637420783d2231302220793d223130222077696474683d22333330222060fe8201527f6865696768743d22333330222066696c6c3d226e6f6e6522207374726f6b653d61011e820152601160f91b61013e8201528751909b8c98829101858a015e87019074111039ba3937b5b296bbb4b23a341e911a9110179f60591b848301527f3c7465787420783d223530252220793d223430252220636c6173733d226261736101548301527f652220646f6d696e616e742d626173656c696e653d226d6964646c6522207465610174830152723c3a16b0b731b437b91e9136b4b2323632911f60691b6101948301528051928391016101a783015e010190661e17ba32bc3a1f60c91b848301527f3c7465787420783d223530252220793d223630252220636c6173733d22626173606f8301527f652220646f6d696e616e742d626173656c696e653d226d6964646c6522207465608f8301527f78742d616e63686f723d226d6964646c652220666f6e742d73697a653d22313860af830152750383c11103334b6361e91119c1c1c111f2a34b2b91d160551b60cf83015280519283910160e583015e0101661e17ba32bc3a1f60c91b83820152651e17b9bb339f60d11b60848201520301601219810184520182611868565b6120e3565b926040519a8b97693d913730b6b2911d101160b11b878a0152825193878401948086858d015e61088b60f21b908b01848101919091527f226465736372697074696f6e223a2022416e20416c6368656d6963616c20456c602c8201527f656d656e74207573656420666f72207472616e736d75746174696f6e20696e20604c820152701d1a1948165a595b1915985d5b1d0b888b607a1b606c8201526e2261747472696275746573223a205b60881b607d8201527f7b2274726169745f74797065223a202254696572222c202276616c7565223a20608c820152601160f91b60ac820152905191829060ad83015e01019062089f4b60ea1b848301527f7b2274726169745f74797065223a2022456c656d656e74222c202276616c7565608683015263111d101160e11b60a683015251809260aa83015e01019061227d60f01b8483015261174b60f21b60298301527f22696d616765223a2022646174613a696d6167652f7376672b786d6c3b626173602b83015263194d8d0b60e21b604b830152805192839101604f83015e010161227d60f01b838201520301601d19810184520182611868565b6040519384917f646174613a6170706c69636174696f6e2f6a736f6e3b6261736536342c000000828401528051918291018484015e81015f838201520301601f198101835282611868565b6040519182916020835260208301906117de565b0390f35b60020361097e5761013f82604051610965604082611868565b600681526529b4b63b32b960d11b828201525b9261043f565b61013f82604051610990604082611868565b60048152631319585960e21b82820152610978565b600281036109d5576040516109bb604082611868565b60078152660234330433043360cc1b848201525b94610415565b6040516109e3604082611868565b600781526611a1a21ba3199960c91b848201526109cf565b634e487b7160e01b5f52603260045260245ffd5b9160010191610316565b60646002910494019361030f565b61271060049104940193610305565b6305f5e100600891049401936102fa565b662386f26fc10000601091049401936102ed565b6d04ee2d6d415b85acef8100000000602091049401936102dd565b506040925072184f03e93ff9f4daa797ed6e38ed64bf6a1f0160401b84046102c3565b346101c85760203660031901126101c8576004355f52600d602052602060ff60405f205416604051908152f35b346101c85760803660031901126101c857610adf611802565b610ae7611818565b6064359167ffffffffffffffff83116101c857366023840112156101c857826004013591610b148361188a565b92610b226040519485611868565b80845236602482870101116101c8576020815f92602461020f9801838801378501015260443591611c7f565b346101c85760403660031901126101c857610b67611802565b602435908115158092036101c8576001600160a01b0316908115610bd657335f52600560205260405f20825f5260205260405f2060ff1981541660ff83161790556040519081527f17307eab39ab6107e8899845ad3d59bd9653f200f220920489ca2b5937696c3160203392a3005b50630b61174360e31b5f5260045260245ffd5b346101c8575f3660031901126101c85760206040515f8152f35b346101c8575f3660031901126101c857335f9081527ffc1222ca4ee6369ff1c1d4caae6e8c89dadd8316205198a91f1796435eccb940602052604090205460ff1615610c9a575f80808047335af1610c59611c50565b5015610c6157005b60405162461bcd60e51b815260206004820152601160248201527015da5d1a191c985dd85b0819985a5b1959607a1b6044820152606490fd5b63e2517d3f60e01b5f52336004527f10dac8c06a04bec0b551627dad28bc00d6516b0caacd1c7b345fcdb5211334e460245260445ffd5b346101c8575f3660031901126101c8576040515f6001548060011c90600181168015610dbb575b602083108114610da757828552908115610d835750600114610d25575b6109488361093481850382611868565b60015f9081527fb10e2d527612073b26eecdfd717e6a320cf44b4afac2b0732d9fcbe2b7fa0cf6939250905b808210610d6957509091508101602001610934610d15565b919260018160209254838588010152019101909291610d51565b60ff191660208086019190915291151560051b840190910191506109349050610d15565b634e487b7160e01b5f52602260045260245ffd5b91607f1691610cf8565b346101c85760403660031901126101c857610dde611818565b6004355f52600a60205260405f209060018060a01b03165f52602052602060ff60405f2054166040519015158152f35b346101c8575f3660031901126101c85760206040517f10dac8c06a04bec0b551627dad28bc00d6516b0caacd1c7b345fcdb5211334e48152f35b60203660031901126101c85760043560ff81168091036101c85766071afd498d00003410610f085760058111610ec357610eb390600b5490815f52600d60205260405f20600160ff19825416179055815f52600c60205260405f209060ff1982541617905533611e80565b610ebe600b54611bf9565b600b55005b60405162461bcd60e51b815260206004820152601a60248201527f496e76616c696420656c656d656e7420666f72205469657220310000000000006044820152606490fd5b60405162461bcd60e51b8152602060048201526014602482015273125b9cdd59999a58da595b9d081c185e5b595b9d60621b6044820152606490fd5b346101c85760203660031901126101c8576004355f52600c602052602060ff60405f205416604051908152f35b346101c85760203660031901126101c8576020610f94610f8f611802565b611c1f565b604051908152f35b346101c85760203660031901126101c8576020610fba600435611d98565b6040516001600160a01b039091168152f35b346101c85760203660031901126101c85760043560085481101561100457610ff5602091611c07565b90549060031b1c604051908152f35b63295f44f760e21b5f525f60045260245260445ffd5b346101c85760203660031901126101c857335f9081527fe6ab19f8253506371de76613330f4bd39624affbf1f03032d6f1b9e37416aeba60205260409020546004359060ff1615611294575f818152600260205260409020546001600160a01b0316801590811580611261575b5f84815260026020526040812080546001600160a01b03191690558490837fddf252ad1be2c89b69c2b068fc378daa952ba7f163c4a11628f55a4df523b3ef8280a482156111e65750600854835f5260096020528060405f2055600160401b8110156111d257836111018260016111199401600855611c07565b90919082549060031b91821b915f19901b1916179055565b6008545f1981019081116111be57835f52600960205261113d60405f205491611c07565b90549060031b1c6111518161110184611c07565b5f52600960205260405f2055825f5260096020525f604081205560085480156111aa575f190161118081611c07565b8154905f199060031b1b191690556008555061119857005b637e27328960e01b5f5260045260245ffd5b634e487b7160e01b5f52603160045260245ffd5b634e487b7160e01b5f52601160045260245ffd5b634e487b7160e01b5f52604160045260245ffd5b15611119576111f481611c1f565b835f52600760205260405f205490825f52600660205260405f2091818103611236575b50845f5260076020525f60408120555f526020525f6040812055611119565b815f528260205260405f2054815f52836020528060405f20555f52600760205260405f205585611217565b5f84815260046020526040902080546001600160a01b0319169055815f52600360205260405f205f198154019055611087565b63e2517d3f60e01b5f52336004527f3c11d16cbaffd01df69ce1c404f6340ee057498f5f00246190ea54220576a84860245260445ffd5b346101c85761020f6112dc3661182e565b90604051926112ec602085611868565b5f8452611c7f565b346101c85760403660031901126101c85761130d611818565b336001600160a01b038216036113295761020f9060043561205f565b63334bd91960e11b5f5260045ffd5b346101c85760603660031901126101c857611351611802565b60243560ff811681036101c8576044359160ff831683036101c857335f9081527faa1d7351356c4ddc11907b1ee0660f579cfdf507235af2ae01ecd22a4b7ceaae602052604090205460ff16156113e157610eb392600b5492835f52600d60205260ff60405f20911660ff19825416179055825f52600c60205260ff60405f20911660ff19825416179055611e80565b63e2517d3f60e01b5f52336004527f9f2df0fed2c77648de5860a4cc508cd0818c85b8b8a1ab4ceeef8d981c8956a660245260445ffd5b346101c85760403660031901126101c857611431611802565b6024359061143e81611c1f565b82101561146d5760018060a01b03165f52600660205260405f20905f52602052602060405f2054604051908152f35b63295f44f760e21b5f5260018060a01b031660045260245260445ffd5b346101c85760403660031901126101c85761020f6004356114a9611818565b906114c3610205825f52600a602052600160405f20015490565b611df4565b346101c8575f3660031901126101c85760206040517f3c11d16cbaffd01df69ce1c404f6340ee057498f5f00246190ea54220576a8488152f35b346101c85760203660031901126101c8576020610f946004355f52600a602052600160405f20015490565b346101c85761020f61153e3661182e565b9161195e565b346101c8575f3660031901126101c8576020600854604051908152f35b346101c85760403660031901126101c85761157a611802565b60243561158681611d98565b33151580611638575b8061160b575b6115f85781906001600160a01b0384811691167f8c5be1e5ebec7d5bd14f71427d1e84f3dd0314c0f7b2291e5b200ac8c7c3b9255f80a45f90815260046020526040902080546001600160a01b0319166001600160a01b03909216919091179055005b63a9fbf51f60e01b5f523360045260245ffd5b506001600160a01b0381165f90815260056020908152604080832033845290915290205460ff1615611595565b506001600160a01b03811633141561158f565b346101c85760203660031901126101c85760043561166881611d98565b505f526004602052602060018060a01b0360405f205416604051908152f35b346101c8575f3660031901126101c8576040515f5f548060011c90600181168015611735575b602083108114610da757828552908115610d8357506001146116d9576109488361093481850382611868565b5f8080527f290decd9548b62a8d60345a988386fc84ba6bc95484008f6362f93160ef3e563939250905b80821061171b57509091508101602001610934610d15565b919260018160209254838588010152019101909291611703565b91607f16916116ad565b346101c85760203660031901126101c8576004359063ffffffff60e01b82168092036101c857602091637965db0b60e01b8114908115611781575b5015158152f35b63780e9d6360e01b81149150811561179b575b508361177a565b6380ac58cd60e01b8114915081156117cd575b81156117bc575b5083611794565b6301ffc9a760e01b149050836117b5565b635b5e139f60e01b811491506117ae565b805180835260209291819084018484015e5f828201840152601f01601f1916010190565b600435906001600160a01b03821682036101c857565b602435906001600160a01b03821682036101c857565b60609060031901126101c8576004356001600160a01b03811681036101c857906024356001600160a01b03811681036101c8579060443590565b90601f8019910116810190811067ffffffffffffffff8211176111d257604052565b67ffffffffffffffff81116111d257601f01601f191660200190565b90604051915f8154908160011c9260018316928315611954575b602085108414610da757848752869390811561193257506001146118ee575b506118ec92500383611868565b565b90505f9291925260205f20905f915b8183106119165750509060206118ec928201015f6118df565b60209193508060019154838589010152019101909184926118fd565b9050602092506118ec94915060ff191682840152151560051b8201015f6118df565b93607f16936118c0565b9091906001600160a01b0383168015611be6575f838152600260205260409020546001600160a01b03169333151580611b56575b5084158015611b23575b825f52600360205260405f2060018154019055845f52600260205260405f20836bffffffffffffffffffffffff60a01b8254161790558483877fddf252ad1be2c89b69c2b068fc378daa952ba7f163c4a11628f55a4df523b3ef5f80a415611aa657600854845f5260096020528060405f2055600160401b8110156111d25784611101826001611a2f9401600855611c07565b818503611a66575b50506001600160a01b0316808303611a4e57505050565b6364283d7b60e01b5f5260045260245260445260645ffd5b611a6f90611c1f565b5f198101919082116111be575f52600660205260405f20815f526020528260405f2055825f52600760205260405f20555f80611a37565b848214611a2f57611ab685611c1f565b845f52600760205260405f205490865f52600660205260405f2091818103611af8575b50855f5260076020525f60408120555f526020525f6040812055611a2f565b815f528260205260405f2054815f52836020528060405f20555f52600760205260405f20555f611ad9565b5f85815260046020526040902080546001600160a01b0319169055855f52600360205260405f205f19815401905561199c565b80611b95575b15611b67575f611992565b8385611b7f57637e27328960e01b5f5260045260245ffd5b63177e802f60e01b5f523360045260245260445ffd5b503385148015611bc4575b80611b5c57505f848152600460205260409020546001600160a01b03163314611b5c565b505f85815260056020908152604080832033845290915290205460ff16611ba0565b633250574960e11b5f525f60045260245ffd5b5f1981146111be5760010190565b6008548110156109fb5760085f5260205f2001905f90565b6001600160a01b03168015611c3d575f52600360205260405f205490565b6322718ad960e21b5f525f60045260245ffd5b3d15611c7a573d90611c618261188a565b91611c6f6040519384611868565b82523d5f602084013e565b606090565b9291611c8c81838661195e565b813b611c99575b50505050565b604051630a85bd0160e11b81523360048201526001600160a01b0394851660248201526044810191909152608060648201529216919060209082908190611ce49060848301906117de565b03815f865af15f9181611d53575b50611d205750611d00611c50565b80519081611d1b5782633250574960e11b5f5260045260245ffd5b602001fd5b6001600160e01b03191663757a42ff60e11b01611d4157505f808080611c93565b633250574960e11b5f5260045260245ffd5b9091506020813d602011611d90575b81611d6f60209383611868565b810103126101c857516001600160e01b0319811681036101c857905f611cf2565b3d9150611d62565b5f818152600260205260409020546001600160a01b0316908115611198575090565b5f818152600a6020908152604080832033845290915290205460ff1615611dde5750565b63e2517d3f60e01b5f523360045260245260445ffd5b5f818152600a602090815260408083206001600160a01b038616845290915290205460ff16611e7a575f818152600a602090815260408083206001600160a01b0395909516808452949091528120805460ff19166001179055339291907f2f8788117e7eff1d82e926ec794901d17c78024a50270940304540a733656f0d9080a4600190565b50505f90565b906001600160a01b0382168015611be6575f828152600260205260409020546001600160a01b03168015801594919391908561202c575b835f52600360205260405f2060018154019055825f52600260205260405f20846bffffffffffffffffffffffff60a01b8254161790558284867fddf252ad1be2c89b69c2b068fc378daa952ba7f163c4a11628f55a4df523b3ef5f80a415611faf57600854825f5260096020528060405f2055600160401b8110156111d25782611101826001611f4a9401600855611c07565b828403611f6f575b50505050611f5c57565b6339e3563760e11b5f525f60045260245ffd5b611f7890611c1f565b5f198101929083116111be575f52600660205260405f20825f526020528060405f20555f52600760205260405f20555f8080611f52565b838314611f4a57611fbf84611c1f565b825f52600760205260405f205490855f52600660205260405f2091818103612001575b50835f5260076020525f60408120555f526020525f6040812055611f4a565b815f528260205260405f2054815f52836020528060405f20555f52600760205260405f20555f611fe2565b5f83815260046020526040902080546001600160a01b0319169055845f52600360205260405f205f198154019055611eb7565b5f818152600a602090815260408083206001600160a01b038616845290915290205460ff1615611e7a575f818152600a602090815260408083206001600160a01b0395909516808452949091528120805460ff19169055339291907ff6391f5c32d9c69d2a47ea670b442974b53935d1edc7fd64eb21e047a839171b9080a4600190565b90815115612202578151600281018091116111be5760039004600281901b91906001600160fe1b038116036111be57604051917f4142434445464748494a4b4c4d4e4f505152535455565758595a616263646566601f527f6768696a6b6c6d6e6f707172737475767778797a303132333435363738392b2f603f52602083018480518101602081018051915f82525b8089106121c657506020959697509060039291525106806001146121b1576002146121a4575b50808452830101604052565b603d905f1901535f612198565b50603d90815f1982015360011901535f612198565b939760036004910198603f8a51818160121c165183538181600c1c16516001840153818160061c16516002840153165160038201530193612172565b9050604051612212602082611868565b5f81529056fea26469706673582212207aa505773bdc5e40f74de7905b26c97e100f251f11038fd0516bd3624f05f30b64736f6c634300081e003313da86008ba1c6922daee3e07db95305ef49ebced9f5467a0b8613fcc6b343e3","linkReferences":{}},"methodIdentifiers":{"BURNER_ROLE()":"282c51f3","DEFAULT_ADMIN_ROLE()":"a217fddf","MINTER_ROLE()":"d5391393","WITHDRAWER_ROLE()":"85f438c1","approve(address,uint256)":"095ea7b3","balanceOf(address)":"70a08231","burn(uint256)":"42966c68","getApproved(uint256)":"081812fc","getRoleAdmin(bytes32)":"248a9ca3","getTokenElement(uint256)":"852d650c","getTokenTier(uint256)":"c26b265f","grantRole(bytes32,address)":"2f2ff15d","hasRole(bytes32,address)":"91d14854","isApprovedForAll(address,address)":"e985e9c5","mint(address,uint8,uint8)":"352926a8","name()":"06fdde03","ownerOf(uint256)":"6352211e","publicMint(uint8)":"858e83b5","renounceRole(bytes32,address)":"36568abe","revokeRole(bytes32,address)":"d547741f","safeTransferFrom(address,address,uint256)":"42842e0e","safeTransferFrom(address,address,uint256,bytes)":"b88d4fde","setApprovalForAll(address,bool)":"a22cb465","supportsInterface(bytes4)":"01ffc9a7","symbol()":"95d89b41","tokenByIndex(uint256)":"4f6ccce7","tokenOfOwnerByIndex(address,uint256)":"2f745c59","tokenURI(uint256)":"c87b56dd","totalSupply()":"18160ddd","transferFrom(address,address,uint256)":"23b872dd","withdrawEth()":"a0ef91df"},"id":66}