{"abi":[{"type":"constructor","inputs":[{"name":"_treasury","type":"address","internalType":"address"}],"stateMutability":"nonpayable"},{"type":"function","name":"BURNER_ROLE","inputs":[],"outputs":[{"name":"","type":"bytes32","internalType":"bytes32"}],"stateMutability":"view"},{"type":"function","name":"DEFAULT_ADMIN_ROLE","inputs":[],"outputs":[{"name":"","type":"bytes32","internalType":"bytes32"}],"stateMutability":"view"},{"type":"function","name":"MINTER_ROLE","inputs":[],"outputs":[{"name":"","type":"bytes32","internalType":"bytes32"}],"stateMutability":"view"},{"type":"function","name":"TREASURY","inputs":[],"outputs":[{"name":"","type":"address","internalType":"address"}],"stateMutability":"view"},{"type":"function","name":"WITHDRAWER_ROLE","inputs":[],"outputs":[{"name":"","type":"bytes32","internalType":"bytes32"}],"stateMutability":"view"},{"type":"function","name":"approve","inputs":[{"name":"to","type":"address","internalType":"address"},{"name":"tokenId","type":"uint256","internalType":"uint256"}],"outputs":[],"stateMutability":"nonpayable"},{"type":"function","name":"balanceOf","inputs":[{"name":"owner","type":"address","internalType":"address"}],"outputs":[{"name":"","type":"uint256","internalType":"uint256"}],"stateMutability":"view"},{"type":"function","name":"burn","inputs":[{"name":"tokenId","type":"uint256","internalType":"uint256"}],"outputs":[],"stateMutability":"nonpayable"},{"type":"function","name":"getApproved","inputs":[{"name":"tokenId","type":"uint256","internalType":"uint256"}],"outputs":[{"name":"","type":"address","internalType":"address"}],"stateMutability":"view"},{"type":"function","name":"getRoleAdmin","inputs":[{"name":"role","type":"bytes32","internalType":"bytes32"}],"outputs":[{"name":"","type":"bytes32","internalType":"bytes32"}],"stateMutability":"view"},{"type":"function","name":"getTokenElement","inputs":[{"name":"tokenId","type":"uint256","internalType":"uint256"}],"outputs":[{"name":"","type":"uint8","internalType":"uint8"}],"stateMutability":"view"},{"type":"function","name":"getTokenTier","inputs":[{"name":"tokenId","type":"uint256","internalType":"uint256"}],"outputs":[{"name":"","type":"uint8","internalType":"uint8"}],"stateMutability":"view"},{"type":"function","name":"grantRole","inputs":[{"name":"role","type":"bytes32","internalType":"bytes32"},{"name":"account","type":"address","internalType":"address"}],"outputs":[],"stateMutability":"nonpayable"},{"type":"function","name":"hasRole","inputs":[{"name":"role","type":"bytes32","internalType":"bytes32"},{"name":"account","type":"address","internalType":"address"}],"outputs":[{"name":"","type":"bool","internalType":"bool"}],"stateMutability":"view"},{"type":"function","name":"isApprovedForAll","inputs":[{"name":"owner","type":"address","internalType":"address"},{"name":"operator","type":"address","internalType":"address"}],"outputs":[{"name":"","type":"bool","internalType":"bool"}],"stateMutability":"view"},{"type":"function","name":"mint","inputs":[{"name":"to","type":"address","internalType":"address"},{"name":"tier","type":"uint8","internalType":"uint8"},{"name":"element","type":"uint8","internalType":"uint8"}],"outputs":[],"stateMutability":"nonpayable"},{"type":"function","name":"name","inputs":[],"outputs":[{"name":"","type":"string","internalType":"string"}],"stateMutability":"view"},{"type":"function","name":"ownerOf","inputs":[{"name":"tokenId","type":"uint256","internalType":"uint256"}],"outputs":[{"name":"","type":"address","internalType":"address"}],"stateMutability":"view"},{"type":"function","name":"publicMint","inputs":[{"name":"element","type":"uint8","internalType":"uint8"}],"outputs":[],"stateMutability":"payable"},{"type":"function","name":"renounceRole","inputs":[{"name":"role","type":"bytes32","internalType":"bytes32"},{"name":"callerConfirmation","type":"address","internalType":"address"}],"outputs":[],"stateMutability":"nonpayable"},{"type":"function","name":"revokeRole","inputs":[{"name":"role","type":"bytes32","internalType":"bytes32"},{"name":"account","type":"address","internalType":"address"}],"outputs":[],"stateMutability":"nonpayable"},{"type":"function","name":"safeTransferFrom","inputs":[{"name":"from","type":"address","internalType":"address"},{"name":"to","type":"address","internalType":"address"},{"name":"tokenId","type":"uint256","internalType":"uint256"}],"outputs":[],"stateMutability":"nonpayable"},{"type":"function","name":"safeTransferFrom","inputs":[{"name":"from","type":"address","internalType":"address"},{"name":"to","type":"address","internalType":"address"},{"name":"tokenId","type":"uint256","internalType":"uint256"},{"name":"data","type":"bytes","internalType":"bytes"}],"outputs":[],"stateMutability":"nonpayable"},{"type":"function","name":"setApprovalForAll","inputs":[{"name":"operator","type":"address","internalType":"address"},{"name":"approved","type":"bool","internalType":"bool"}],"outputs":[],"stateMutability":"nonpayable"},{"type":"function","name":"supportsInterface","inputs":[{"name":"interfaceId","type":"bytes4","internalType":"bytes4"}],"outputs":[{"name":"","type":"bool","internalType":"bool"}],"stateMutability":"view"},{"type":"function","name":"symbol","inputs":[],"outputs":[{"name":"","type":"string","internalType":"string"}],"stateMutability":"view"},{"type":"function","name":"tokenByIndex","inputs":[{"name":"index","type":"uint256","internalType":"uint256"}],"outputs":[{"name":"","type":"uint256","internalType":"uint256"}],"stateMutability":"view"},{"type":"function","name":"tokenOfOwnerByIndex","inputs":[{"name":"owner","type":"address","internalType":"address"},{"name":"index","type":"uint256","internalType":"uint256"}],"outputs":[{"name":"","type":"uint256","internalType":"uint256"}],"stateMutability":"view"},{"type":"function","name":"tokenURI","inputs":[{"name":"tokenId","type":"uint256","internalType":"uint256"}],"outputs":[{"name":"","type":"string","internalType":"string"}],"stateMutability":"view"},{"type":"function","name":"totalSupply","inputs":[],"outputs":[{"name":"","type":"uint256","internalType":"uint256"}],"stateMutability":"view"},{"type":"function","name":"transferFrom","inputs":[{"name":"from","type":"address","internalType":"address"},{"name":"to","type":"address","internalType":"address"},{"name":"tokenId","type":"uint256","internalType":"uint256"}],"outputs":[],"stateMutability":"nonpayable"},{"type":"function","name":"withdrawEth","inputs":[],"outputs":[],"stateMutability":"nonpayable"},{"type":"event","name":"Approval","inputs":[{"name":"owner","type":"address","indexed":true,"internalType":"address"},{"name":"approved","type":"address","indexed":true,"internalType":"address"},{"name":"tokenId","type":"uint256","indexed":true,"internalType":"uint256"}],"anonymous":false},{"type":"event","name":"ApprovalForAll","inputs":[{"name":"owner","type":"address","indexed":true,"internalType":"address"},{"name":"operator","type":"address","indexed":true,"internalType":"address"},{"name":"approved","type":"bool","indexed":false,"internalType":"bool"}],"anonymous":false},{"type":"event","name":"RoleAdminChanged","inputs":[{"name":"role","type":"bytes32","indexed":true,"internalType":"bytes32"},{"name":"previousAdminRole","type":"bytes32","indexed":true,"internalType":"bytes32"},{"name":"newAdminRole","type":"bytes32","indexed":true,"internalType":"bytes32"}],"anonymous":false},{"type":"event","name":"RoleGranted","inputs":[{"name":"role","type":"bytes32","indexed":true,"internalType":"bytes32"},{"name":"account","type":"address","indexed":true,"internalType":"address"},{"name":"sender","type":"address","indexed":true,"internalType":"address"}],"anonymous":false},{"type":"event","name":"RoleRevoked","inputs":[{"name":"role","type":"bytes32","indexed":true,"internalType":"bytes32"},{"name":"account","type":"address","indexed":true,"internalType":"address"},{"name":"sender","type":"address","indexed":true,"internalType":"address"}],"anonymous":false},{"type":"event","name":"Transfer","inputs":[{"name":"from","type":"address","indexed":true,"internalType":"address"},{"name":"to","type":"address","indexed":true,"internalType":"address"},{"name":"tokenId","type":"uint256","indexed":true,"internalType":"uint256"}],"anonymous":false},{"type":"error","name":"AccessControlBadConfirmation","inputs":[]},{"type":"error","name":"AccessControlUnauthorizedAccount","inputs":[{"name":"account","type":"address","internalType":"address"},{"name":"neededRole","type":"bytes32","internalType":"bytes32"}]},{"type":"error","name":"ERC721EnumerableForbiddenBatchMint","inputs":[]},{"type":"error","name":"ERC721IncorrectOwner","inputs":[{"name":"sender","type":"address","internalType":"address"},{"name":"tokenId","type":"uint256","internalType":"uint256"},{"name":"owner","type":"address","internalType":"address"}]},{"type":"error","name":"ERC721InsufficientApproval","inputs":[{"name":"operator","type":"address","internalType":"address"},{"name":"tokenId","type":"uint256","internalType":"uint256"}]},{"type":"error","name":"ERC721InvalidApprover","inputs":[{"name":"approver","type":"address","internalType":"address"}]},{"type":"error","name":"ERC721InvalidOperator","inputs":[{"name":"operator","type":"address","internalType":"address"}]},{"type":"error","name":"ERC721InvalidOwner","inputs":[{"name":"owner","type":"address","internalType":"address"}]},{"type":"error","name":"ERC721InvalidReceiver","inputs":[{"name":"receiver","type":"address","internalType":"address"}]},{"type":"error","name":"ERC721InvalidSender","inputs":[{"name":"sender","type":"address","internalType":"address"}]},{"type":"error","name":"ERC721NonexistentToken","inputs":[{"name":"tokenId","type":"uint256","internalType":"uint256"}]},{"type":"error","name":"ERC721OutOfBoundsIndex","inputs":[{"name":"owner","type":"address","internalType":"address"},{"name":"index","type":"uint256","internalType":"uint256"}]}],"bytecode":{"object":"0x60a06040523461067457612aad6020813803918261001c81610678565b93849283398101031261067457516001600160a01b0381168103610674576100446040610678565b90601082526f416c6368656d7920456c656d656e747360801b602083015261006c6040610678565b6004815263454c454d60e01b602082015282519091906001600160401b0381116105035761009a5f5461069d565b601f8111610627575b506020601f82116001146105c65781906100d49394955f92610454575b50508160011b915f199060031b1c19161790565b5f555b81516001600160401b038111610503576100f260015461069d565b601f8111610578575b50602092601f82116001146105175761012b929382915f926104545750508160011b915f199060031b1c19161790565b6001555b60405161024081016001600160401b03811182821017610503576040526101566040610678565b600581526408ac2e4e8d60db1b602082015281526101746040610678565b60058152642bb0ba32b960d91b602082015260208201526101956040610678565b600481526315da5b9960e21b602082015260408201526101b56040610678565b60048152634669726560e01b602082015260608201526101d56040610678565b600381526249636560e81b602082015260808201526101f46040610678565b60098152684c696768746e696e6760b81b602082015260a08201526102196040610678565b6006815265506c61736d6160d01b602082015260c082015261023b6040610678565b6007815266546f726e61646f60c81b602082015260e082015261025e6040610678565b6008815267109b1a5e9e985c9960c21b60208201526101008201526102836040610678565b60078152665473756e616d6960c81b60208201526101208201526102a76040610678565b60058152645175616b6560d81b60208201526101408201526102c96040610678565b6007815266496e6665726e6f60c81b60208201526101608201526102ed6040610678565b6004815263486f6c7960e01b602082015261018082015261030e6040610678565b60048152634461726b60e01b60208201526101a082015261032f6040610678565b60078152664772617669747960c81b60208201526101c08201526103536040610678565b600481526354696d6560e01b60208201526101e08201526103746040610678565b600381526242696f60e81b60208201526102008201526103946040610678565b600681526514dc1a5c9a5d60d21b6020820152610220820152600e905f905b601282106103e857836103c5336106eb565b5060805260405161231890816107758239608051818181610e8a01526115630152f35b80518051906001600160401b03821161050357610405855461069d565b601f81116104c8575b50602090601f831160011461045f5792610445836001959460209487965f926104545750508160011b915f199060031b1c19161790565b86555b019301910190916103b3565b015190505f806100c0565b90601f19831691865f52815f20925f5b8181106104b05750936020936001969387969383889510610498575b505050811b018655610448565b01515f1960f88460031b161c191690555f808061048b565b9293602060018192878601518155019501930161046f565b6104f390865f5260205f20601f850160051c810191602086106104f9575b601f0160051c01906106d5565b5f61040e565b90915081906104e6565b634e487b7160e01b5f52604160045260245ffd5b601f1982169360015f52805f20915f5b8681106105605750836001959610610548575b505050811b0160015561012f565b01515f1960f88460031b161c191690555f808061053a565b91926020600181928685015181550194019201610527565b60015f526105c0907fb10e2d527612073b26eecdfd717e6a320cf44b4afac2b0732d9fcbe2b7fa0cf6601f840160051c810191602085106104f957601f0160051c01906106d5565b5f6100fb565b601f198216905f8052805f20915f5b81811061060f575095836001959697106105f7575b505050811b015f556100d7565b01515f1960f88460031b161c191690555f80806105ea565b9192602060018192868b0151815501940192016105d5565b5f805261066e907f290decd9548b62a8d60345a988386fc84ba6bc95484008f6362f93160ef3e563601f840160051c810191602085106104f957601f0160051c01906106d5565b5f6100a3565b5f80fd5b6040519190601f01601f191682016001600160401b0381118382101761050357604052565b90600182811c921680156106cb575b60208310146106b757565b634e487b7160e01b5f52602260045260245ffd5b91607f16916106ac565b8181106106e0575050565b5f81556001016106d5565b6001600160a01b0381165f9081525f516020612a8d5f395f51905f52602052604090205460ff1661076f576001600160a01b03165f8181525f516020612a8d5f395f51905f5260205260408120805460ff191660011790553391907f2f8788117e7eff1d82e926ec794901d17c78024a50270940304540a733656f0d8180a4600190565b505f9056fe6080806040526004361015610012575f80fd5b5f3560e01c90816301ffc9a7146118095750806306fdde0314611751578063081812fc14611715578063095ea7b31461162b57806318160ddd1461160e57806323b872dd146115f7578063248a9ca3146115cc578063282c51f3146115925780632d2c55651461154e5780632f2ff15d146115105780632f745c591461149e578063352926a8146113be57806336568abe1461137a57806342842e0e1461135157806342966c68146110a05780634f6ccce7146110525780636352211e1461102257806370a0823114610ff7578063852d650c14610fca578063858e83b514610e5357806385f438c114610e1957806391d1485414610dd057806395d89b4114610cdc578063a0ef91df14610c0e578063a217fddf14610bf4578063a22cb46514610b59578063b88d4fde14610ad1578063c26b265f14610aa4578063c87b56dd14610256578063d53913931461021c578063d547741f146101d75763e985e9c51461017c575f80fd5b346101d35760403660031901126101d3576101956118cc565b61019d6118e2565b9060018060a01b03165f52600560205260405f209060018060a01b03165f52602052602060ff60405f2054166040519015158152f35b5f80fd5b346101d35760403660031901126101d35761021a6004356101f66118e2565b90610215610210825f52600a602052600160405f20015490565b611e84565b612129565b005b346101d3575f3660031901126101d35760206040517f9f2df0fed2c77648de5860a4cc508cd0818c85b8b8a1ab4ceeef8d981c8956a68152f35b346101d35760203660031901126101d35760043561027381611e62565b50805f52600c60205260ff60405f2054166012811015610a065761029990600e01611970565b90805f52600d60205260ff60405f2054169182915f9272184f03e93ff9f4daa797ed6e38ed64bf6a1f0160401b851015610a81575b806d04ee2d6d415b85acef8100000000600a921015610a66575b662386f26fc10000811015610a52575b6305f5e100811015610a41575b612710811015610a32575b6064811015610a24575b1015610a1a575b6001830193600a602161034c61033688611954565b97610344604051998a611932565b808952611954565b602088019690601f19013688378701015b5f1901916f181899199a1a9b1b9c1cb0b131b232b360811b8282061a835304801561038b57600a909161035d565b5050805f52600d60205260ff60405f205416905f52600c60205260ff60405f205416926012841015610a0657602a610746600260286108f4946027602061093f9960836109539d61074b849e610746600d603d9f607d9060688a6103f28197600e01611970565b600384149384156109b05760405161040b604082611932565b60078152660234646443730360cc1b84820152945b15610957575061013f82604051610438604082611932565b600481526311dbdb1960e21b82820152925b604080517f3c73766720786d6c6e733d22687474703a2f2f7777772e77332e6f72672f32308d8201527f30302f73766722207072657365727665417370656374526174696f3d22784d69918101919091527f6e594d696e206d656574222076696577426f783d223020302033353020333530606082015261111f60f11b60808201527f3c7374796c653e2e62617365207b2066696c6c3a2077686974653b20666f6e7460828201527f2d66616d696c793a2073657269663b20666f6e742d73697a653a20323470783b60a282015269103e9e17b9ba3cb6329f60b11b60c28201527f3c726563742077696474683d223130302522206865696768743d22313030252260cc82015271103334b6361e91119830983098309110179f60711b60ec8201527f3c7265637420783d2231302220793d223130222077696474683d22333330222060fe8201527f6865696768743d22333330222066696c6c3d226e6f6e6522207374726f6b653d61011e820152601160f91b61013e8201528751909b8c98829101858a015e87019074111039ba3937b5b296bbb4b23a341e911a9110179f60591b848301527f3c7465787420783d223530252220793d223430252220636c6173733d226261736101548301527f652220646f6d696e616e742d626173656c696e653d226d6964646c6522207465610174830152723c3a16b0b731b437b91e9136b4b2323632911f60691b6101948301528051928391016101a783015e010190661e17ba32bc3a1f60c91b848301527f3c7465787420783d223530252220793d223630252220636c6173733d22626173606f8301527f652220646f6d696e616e742d626173656c696e653d226d6964646c6522207465608f8301527f78742d616e63686f723d226d6964646c652220666f6e742d73697a653d22313860af830152750383c11103334b6361e91119c1c1c111f2a34b2b91d160551b60cf83015280519283910160e583015e0101661e17ba32bc3a1f60c91b83820152651e17b9bb339f60d11b60848201520301601219810184520182611932565b6121ad565b926040519a8b97693d913730b6b2911d101160b11b878a0152825193878401948086858d015e61088b60f21b908b01848101919091527f226465736372697074696f6e223a2022416e20416c6368656d6963616c20456c602c8201527f656d656e74207573656420666f72207472616e736d75746174696f6e20696e20604c820152701d1a1948165a595b1915985d5b1d0b888b607a1b606c8201526e2261747472696275746573223a205b60881b607d8201527f7b2274726169745f74797065223a202254696572222c202276616c7565223a20608c820152601160f91b60ac820152905191829060ad83015e01019062089f4b60ea1b848301527f7b2274726169745f74797065223a2022456c656d656e74222c202276616c7565608683015263111d101160e11b60a683015251809260aa83015e01019061227d60f01b8483015261174b60f21b60298301527f22696d616765223a2022646174613a696d6167652f7376672b786d6c3b626173602b83015263194d8d0b60e21b604b830152805192839101604f83015e010161227d60f01b838201520301601d19810184520182611932565b6040519384917f646174613a6170706c69636174696f6e2f6a736f6e3b6261736536342c000000828401528051918291018484015e81015f838201520301601f198101835282611932565b6040519182916020835260208301906118a8565b0390f35b6002036109895761013f82604051610970604082611932565b600681526529b4b63b32b960d11b828201525b9261044a565b61013f8260405161099b604082611932565b60048152631319585960e21b82820152610983565b600281036109e0576040516109c6604082611932565b60078152660234330433043360cc1b848201525b94610420565b6040516109ee604082611932565b600781526611a1a21ba3199960c91b848201526109da565b634e487b7160e01b5f52603260045260245ffd5b9160010191610321565b60646002910494019361031a565b61271060049104940193610310565b6305f5e10060089104940193610305565b662386f26fc10000601091049401936102f8565b6d04ee2d6d415b85acef8100000000602091049401936102e8565b506040925072184f03e93ff9f4daa797ed6e38ed64bf6a1f0160401b84046102ce565b346101d35760203660031901126101d3576004355f52600d602052602060ff60405f205416604051908152f35b346101d35760803660031901126101d357610aea6118cc565b610af26118e2565b6064359167ffffffffffffffff83116101d357366023840112156101d357826004013591610b1f83611954565b92610b2d6040519485611932565b80845236602482870101116101d3576020815f92602461021a9801838801378501015260443591611d49565b346101d35760403660031901126101d357610b726118cc565b602435908115158092036101d3576001600160a01b0316908115610be157335f52600560205260405f20825f5260205260405f2060ff1981541660ff83161790556040519081527f17307eab39ab6107e8899845ad3d59bd9653f200f220920489ca2b5937696c3160203392a3005b50630b61174360e31b5f5260045260245ffd5b346101d3575f3660031901126101d35760206040515f8152f35b346101d3575f3660031901126101d357335f9081527ffc1222ca4ee6369ff1c1d4caae6e8c89dadd8316205198a91f1796435eccb940602052604090205460ff1615610ca5575f80808047335af1610c64611d1a565b5015610c6c57005b60405162461bcd60e51b815260206004820152601160248201527015da5d1a191c985dd85b0819985a5b1959607a1b6044820152606490fd5b63e2517d3f60e01b5f52336004527f10dac8c06a04bec0b551627dad28bc00d6516b0caacd1c7b345fcdb5211334e460245260445ffd5b346101d3575f3660031901126101d3576040515f6001548060011c90600181168015610dc6575b602083108114610db257828552908115610d8e5750600114610d30575b6109538361093f81850382611932565b60015f9081527fb10e2d527612073b26eecdfd717e6a320cf44b4afac2b0732d9fcbe2b7fa0cf6939250905b808210610d745750909150810160200161093f610d20565b919260018160209254838588010152019101909291610d5c565b60ff191660208086019190915291151560051b8401909101915061093f9050610d20565b634e487b7160e01b5f52602260045260245ffd5b91607f1691610d03565b346101d35760403660031901126101d357610de96118e2565b6004355f52600a60205260405f209060018060a01b03165f52602052602060ff60405f2054166040519015158152f35b346101d3575f3660031901126101d35760206040517f10dac8c06a04bec0b551627dad28bc00d6516b0caacd1c7b345fcdb5211334e48152f35b60203660031901126101d35760043560ff81168091036101d35766071afd498d00003410610f8e5760058111610f49575f808080347f00000000000000000000000000000000000000000000000000000000000000005af1610eb3611d1a565b5015610f0457610ef490600b5490815f52600d60205260405f20600160ff19825416179055815f52600c60205260405f209060ff1982541617905533611f4a565b610eff600b54611cc3565b600b55005b60405162461bcd60e51b815260206004820152601860248201527f5472656173757279207472616e73666572206661696c656400000000000000006044820152606490fd5b60405162461bcd60e51b815260206004820152601a60248201527f496e76616c696420656c656d656e7420666f72205469657220310000000000006044820152606490fd5b60405162461bcd60e51b8152602060048201526014602482015273125b9cdd59999a58da595b9d081c185e5b595b9d60621b6044820152606490fd5b346101d35760203660031901126101d3576004355f52600c602052602060ff60405f205416604051908152f35b346101d35760203660031901126101d357602061101a6110156118cc565b611ce9565b604051908152f35b346101d35760203660031901126101d3576020611040600435611e62565b6040516001600160a01b039091168152f35b346101d35760203660031901126101d35760043560085481101561108a5761107b602091611cd1565b90549060031b1c604051908152f35b63295f44f760e21b5f525f60045260245260445ffd5b346101d35760203660031901126101d357335f9081527fe6ab19f8253506371de76613330f4bd39624affbf1f03032d6f1b9e37416aeba60205260409020546004359060ff161561131a575f818152600260205260409020546001600160a01b03168015908115806112e7575b5f84815260026020526040812080546001600160a01b03191690558490837fddf252ad1be2c89b69c2b068fc378daa952ba7f163c4a11628f55a4df523b3ef8280a4821561126c5750600854835f5260096020528060405f2055600160401b811015611258578361118782600161119f9401600855611cd1565b90919082549060031b91821b915f19901b1916179055565b6008545f19810190811161124457835f5260096020526111c360405f205491611cd1565b90549060031b1c6111d78161118784611cd1565b5f52600960205260405f2055825f5260096020525f60408120556008548015611230575f190161120681611cd1565b8154905f199060031b1b191690556008555061121e57005b637e27328960e01b5f5260045260245ffd5b634e487b7160e01b5f52603160045260245ffd5b634e487b7160e01b5f52601160045260245ffd5b634e487b7160e01b5f52604160045260245ffd5b1561119f5761127a81611ce9565b835f52600760205260405f205490825f52600660205260405f20918181036112bc575b50845f5260076020525f60408120555f526020525f604081205561119f565b815f528260205260405f2054815f52836020528060405f20555f52600760205260405f20558561129d565b5f84815260046020526040902080546001600160a01b0319169055815f52600360205260405f205f19815401905561110d565b63e2517d3f60e01b5f52336004527f3c11d16cbaffd01df69ce1c404f6340ee057498f5f00246190ea54220576a84860245260445ffd5b346101d35761021a611362366118f8565b9060405192611372602085611932565b5f8452611d49565b346101d35760403660031901126101d3576113936118e2565b336001600160a01b038216036113af5761021a90600435612129565b63334bd91960e11b5f5260045ffd5b346101d35760603660031901126101d3576113d76118cc565b60243560ff811681036101d3576044359160ff831683036101d357335f9081527faa1d7351356c4ddc11907b1ee0660f579cfdf507235af2ae01ecd22a4b7ceaae602052604090205460ff161561146757610ef492600b5492835f52600d60205260ff60405f20911660ff19825416179055825f52600c60205260ff60405f20911660ff19825416179055611f4a565b63e2517d3f60e01b5f52336004527f9f2df0fed2c77648de5860a4cc508cd0818c85b8b8a1ab4ceeef8d981c8956a660245260445ffd5b346101d35760403660031901126101d3576114b76118cc565b602435906114c481611ce9565b8210156114f35760018060a01b03165f52600660205260405f20905f52602052602060405f2054604051908152f35b63295f44f760e21b5f5260018060a01b031660045260245260445ffd5b346101d35760403660031901126101d35761021a60043561152f6118e2565b90611549610210825f52600a602052600160405f20015490565b611ebe565b346101d3575f3660031901126101d3576040517f00000000000000000000000000000000000000000000000000000000000000006001600160a01b03168152602090f35b346101d3575f3660031901126101d35760206040517f3c11d16cbaffd01df69ce1c404f6340ee057498f5f00246190ea54220576a8488152f35b346101d35760203660031901126101d357602061101a6004355f52600a602052600160405f20015490565b346101d35761021a611608366118f8565b91611a28565b346101d3575f3660031901126101d3576020600854604051908152f35b346101d35760403660031901126101d3576116446118cc565b60243561165081611e62565b33151580611702575b806116d5575b6116c25781906001600160a01b0384811691167f8c5be1e5ebec7d5bd14f71427d1e84f3dd0314c0f7b2291e5b200ac8c7c3b9255f80a45f90815260046020526040902080546001600160a01b0319166001600160a01b03909216919091179055005b63a9fbf51f60e01b5f523360045260245ffd5b506001600160a01b0381165f90815260056020908152604080832033845290915290205460ff161561165f565b506001600160a01b038116331415611659565b346101d35760203660031901126101d35760043561173281611e62565b505f526004602052602060018060a01b0360405f205416604051908152f35b346101d3575f3660031901126101d3576040515f5f548060011c906001811680156117ff575b602083108114610db257828552908115610d8e57506001146117a3576109538361093f81850382611932565b5f8080527f290decd9548b62a8d60345a988386fc84ba6bc95484008f6362f93160ef3e563939250905b8082106117e55750909150810160200161093f610d20565b9192600181602092548385880101520191019092916117cd565b91607f1691611777565b346101d35760203660031901126101d3576004359063ffffffff60e01b82168092036101d357602091637965db0b60e01b811490811561184b575b5015158152f35b63780e9d6360e01b811491508115611865575b5083611844565b6380ac58cd60e01b811491508115611897575b8115611886575b508361185e565b6301ffc9a760e01b1490508361187f565b635b5e139f60e01b81149150611878565b805180835260209291819084018484015e5f828201840152601f01601f1916010190565b600435906001600160a01b03821682036101d357565b602435906001600160a01b03821682036101d357565b60609060031901126101d3576004356001600160a01b03811681036101d357906024356001600160a01b03811681036101d3579060443590565b90601f8019910116810190811067ffffffffffffffff82111761125857604052565b67ffffffffffffffff811161125857601f01601f191660200190565b90604051915f8154908160011c9260018316928315611a1e575b602085108414610db25784875286939081156119fc57506001146119b8575b506119b692500383611932565b565b90505f9291925260205f20905f915b8183106119e05750509060206119b6928201015f6119a9565b60209193508060019154838589010152019101909184926119c7565b9050602092506119b694915060ff191682840152151560051b8201015f6119a9565b93607f169361198a565b9091906001600160a01b0383168015611cb0575f838152600260205260409020546001600160a01b03169333151580611c20575b5084158015611bed575b825f52600360205260405f2060018154019055845f52600260205260405f20836bffffffffffffffffffffffff60a01b8254161790558483877fddf252ad1be2c89b69c2b068fc378daa952ba7f163c4a11628f55a4df523b3ef5f80a415611b7057600854845f5260096020528060405f2055600160401b8110156112585784611187826001611af99401600855611cd1565b818503611b30575b50506001600160a01b0316808303611b1857505050565b6364283d7b60e01b5f5260045260245260445260645ffd5b611b3990611ce9565b5f19810191908211611244575f52600660205260405f20815f526020528260405f2055825f52600760205260405f20555f80611b01565b848214611af957611b8085611ce9565b845f52600760205260405f205490865f52600660205260405f2091818103611bc2575b50855f5260076020525f60408120555f526020525f6040812055611af9565b815f528260205260405f2054815f52836020528060405f20555f52600760205260405f20555f611ba3565b5f85815260046020526040902080546001600160a01b0319169055855f52600360205260405f205f198154019055611a66565b80611c5f575b15611c31575f611a5c565b8385611c4957637e27328960e01b5f5260045260245ffd5b63177e802f60e01b5f523360045260245260445ffd5b503385148015611c8e575b80611c2657505f848152600460205260409020546001600160a01b03163314611c26565b505f85815260056020908152604080832033845290915290205460ff16611c6a565b633250574960e11b5f525f60045260245ffd5b5f1981146112445760010190565b600854811015610a065760085f5260205f2001905f90565b6001600160a01b03168015611d07575f52600360205260405f205490565b6322718ad960e21b5f525f60045260245ffd5b3d15611d44573d90611d2b82611954565b91611d396040519384611932565b82523d5f602084013e565b606090565b9291611d56818386611a28565b813b611d63575b50505050565b604051630a85bd0160e11b81523360048201526001600160a01b0394851660248201526044810191909152608060648201529216919060209082908190611dae9060848301906118a8565b03815f865af15f9181611e1d575b50611dea5750611dca611d1a565b80519081611de55782633250574960e11b5f5260045260245ffd5b602001fd5b6001600160e01b03191663757a42ff60e11b01611e0b57505f808080611d5d565b633250574960e11b5f5260045260245ffd5b9091506020813d602011611e5a575b81611e3960209383611932565b810103126101d357516001600160e01b0319811681036101d357905f611dbc565b3d9150611e2c565b5f818152600260205260409020546001600160a01b031690811561121e575090565b5f818152600a6020908152604080832033845290915290205460ff1615611ea85750565b63e2517d3f60e01b5f523360045260245260445ffd5b5f818152600a602090815260408083206001600160a01b038616845290915290205460ff16611f44575f818152600a602090815260408083206001600160a01b0395909516808452949091528120805460ff19166001179055339291907f2f8788117e7eff1d82e926ec794901d17c78024a50270940304540a733656f0d9080a4600190565b50505f90565b906001600160a01b0382168015611cb0575f828152600260205260409020546001600160a01b0316801580159491939190856120f6575b835f52600360205260405f2060018154019055825f52600260205260405f20846bffffffffffffffffffffffff60a01b8254161790558284867fddf252ad1be2c89b69c2b068fc378daa952ba7f163c4a11628f55a4df523b3ef5f80a41561207957600854825f5260096020528060405f2055600160401b81101561125857826111878260016120149401600855611cd1565b828403612039575b5050505061202657565b6339e3563760e11b5f525f60045260245ffd5b61204290611ce9565b5f19810192908311611244575f52600660205260405f20825f526020528060405f20555f52600760205260405f20555f808061201c565b8383146120145761208984611ce9565b825f52600760205260405f205490855f52600660205260405f20918181036120cb575b50835f5260076020525f60408120555f526020525f6040812055612014565b815f528260205260405f2054815f52836020528060405f20555f52600760205260405f20555f6120ac565b5f83815260046020526040902080546001600160a01b0319169055845f52600360205260405f205f198154019055611f81565b5f818152600a602090815260408083206001600160a01b038616845290915290205460ff1615611f44575f818152600a602090815260408083206001600160a01b0395909516808452949091528120805460ff19169055339291907ff6391f5c32d9c69d2a47ea670b442974b53935d1edc7fd64eb21e047a839171b9080a4600190565b908151156122cc578151600281018091116112445760039004600281901b91906001600160fe1b0381160361124457604051917f4142434445464748494a4b4c4d4e4f505152535455565758595a616263646566601f527f6768696a6b6c6d6e6f707172737475767778797a303132333435363738392b2f603f52602083018480518101602081018051915f82525b808910612290575060209596975090600392915251068060011461227b5760021461226e575b50808452830101604052565b603d905f1901535f612262565b50603d90815f1982015360011901535f612262565b939760036004910198603f8a51818160121c165183538181600c1c16516001840153818160061c1651600284015316516003820153019361223c565b90506040516122dc602082611932565b5f81529056fea264697066735822122003317a3bf3697a42c4bc3405b62f29ee63dc3619c57fc5c84a9658b0b03a0ca064736f6c634300081e003313da86008ba1c6922daee3e07db95305ef49ebced9f5467a0b8613fcc6b343e3","linkReferences":{}},"methodIdentifiers":{"BURNER_ROLE()":"282c51f3","DEFAULT_ADMIN_ROLE()":"a217fddf","MINTER_ROLE()":"d5391393","TREASURY()":"2d2c5565","WITHDRAWER_ROLE()":"85f438c1","approve(address,uint256)":"095ea7b3","balanceOf(address)":"70a08231","burn(uint256)":"42966c68","getApproved(uint256)":"081812fc","getRoleAdmin(bytes32)":"248a9ca3","getTokenElement(uint256)":"852d650c","getTokenTier(uint256)":"c26b265f","grantRole(bytes32,address)":"2f2ff15d","hasRole(bytes32,address)":"91d14854","isApprovedForAll(address,address)":"e985e9c5","mint(address,uint8,uint8)":"352926a8","name()":"06fdde03","ownerOf(uint256)":"6352211e","publicMint(uint8)":"858e83b5","renounceRole(bytes32,address)":"36568abe","revokeRole(bytes32,address)":"d547741f","safeTransferFrom(address,address,uint256)":"42842e0e","safeTransferFrom(address,address,uint256,bytes)":"b88d4fde","setApprovalForAll(address,bool)":"a22cb465","supportsInterface(bytes4)":"01ffc9a7","symbol()":"95d89b41","tokenByIndex(uint256)":"4f6ccce7","tokenOfOwnerByIndex(address,uint256)":"2f745c59","tokenURI(uint256)":"c87b56dd","totalSupply()":"18160ddd","transferFrom(address,address,uint256)":"23b872dd","withdrawEth()":"a0ef91df"},"id":85}