{"abi":[{"type":"constructor","inputs":[{"name":"_entryPoint","type":"address","internalType":"contract IEntryPoint"},{"name":"_owner","type":"address","internalType":"address"}],"stateMutability":"nonpayable"},{"type":"receive","stateMutability":"payable"},{"type":"function","name":"MIN_FEE","inputs":[],"outputs":[{"name":"","type":"uint256","internalType":"uint256"}],"stateMutability":"view"},{"type":"function","name":"deposit","inputs":[],"outputs":[],"stateMutability":"payable"},{"type":"function","name":"entryPoint","inputs":[],"outputs":[{"name":"","type":"address","internalType":"contract IEntryPoint"}],"stateMutability":"view"},{"type":"function","name":"getDeposit","inputs":[],"outputs":[{"name":"","type":"uint256","internalType":"uint256"}],"stateMutability":"view"},{"type":"function","name":"owner","inputs":[],"outputs":[{"name":"","type":"address","internalType":"address"}],"stateMutability":"view"},{"type":"function","name":"postOp","inputs":[{"name":"mode","type":"uint8","internalType":"enum IPaymaster.PostOpMode"},{"name":"context","type":"bytes","internalType":"bytes"},{"name":"actualGasCost","type":"uint256","internalType":"uint256"},{"name":"actualUserOpFeePerGas","type":"uint256","internalType":"uint256"}],"outputs":[],"stateMutability":"nonpayable"},{"type":"function","name":"renounceOwnership","inputs":[],"outputs":[],"stateMutability":"nonpayable"},{"type":"function","name":"setSponsoredContract","inputs":[{"name":"target","type":"address","internalType":"address"},{"name":"allowed","type":"bool","internalType":"bool"}],"outputs":[],"stateMutability":"nonpayable"},{"type":"function","name":"sponsoredContracts","inputs":[{"name":"","type":"address","internalType":"address"}],"outputs":[{"name":"","type":"bool","internalType":"bool"}],"stateMutability":"view"},{"type":"function","name":"transferOwnership","inputs":[{"name":"newOwner","type":"address","internalType":"address"}],"outputs":[],"stateMutability":"nonpayable"},{"type":"function","name":"validatePaymasterUserOp","inputs":[{"name":"userOp","type":"tuple","internalType":"struct PackedUserOperation","components":[{"name":"sender","type":"address","internalType":"address"},{"name":"nonce","type":"uint256","internalType":"uint256"},{"name":"initCode","type":"bytes","internalType":"bytes"},{"name":"callData","type":"bytes","internalType":"bytes"},{"name":"accountGasLimits","type":"bytes32","internalType":"bytes32"},{"name":"preVerificationGas","type":"uint256","internalType":"uint256"},{"name":"gasFees","type":"bytes32","internalType":"bytes32"},{"name":"paymasterAndData","type":"bytes","internalType":"bytes"},{"name":"signature","type":"bytes","internalType":"bytes"}]},{"name":"userOpHash","type":"bytes32","internalType":"bytes32"},{"name":"maxCost","type":"uint256","internalType":"uint256"}],"outputs":[{"name":"context","type":"bytes","internalType":"bytes"},{"name":"validationData","type":"uint256","internalType":"uint256"}],"stateMutability":"nonpayable"},{"type":"function","name":"withdrawERC20","inputs":[{"name":"token","type":"address","internalType":"address"},{"name":"to","type":"address","internalType":"address"},{"name":"amount","type":"uint256","internalType":"uint256"}],"outputs":[],"stateMutability":"nonpayable"},{"type":"function","name":"withdrawTo","inputs":[{"name":"withdrawAddress","type":"address","internalType":"address payable"},{"name":"amount","type":"uint256","internalType":"uint256"}],"outputs":[],"stateMutability":"nonpayable"},{"type":"event","name":"ContractSponsored","inputs":[{"name":"target","type":"address","indexed":true,"internalType":"address"},{"name":"allowed","type":"bool","indexed":false,"internalType":"bool"}],"anonymous":false},{"type":"event","name":"OwnershipTransferred","inputs":[{"name":"previousOwner","type":"address","indexed":true,"internalType":"address"},{"name":"newOwner","type":"address","indexed":true,"internalType":"address"}],"anonymous":false},{"type":"event","name":"TransactionSponsored","inputs":[{"name":"sender","type":"address","indexed":true,"internalType":"address"},{"name":"target","type":"address","indexed":true,"internalType":"address"},{"name":"cost","type":"uint256","indexed":false,"internalType":"uint256"}],"anonymous":false},{"type":"error","name":"OwnableInvalidOwner","inputs":[{"name":"owner","type":"address","internalType":"address"}]},{"type":"error","name":"OwnableUnauthorizedAccount","inputs":[{"name":"account","type":"address","internalType":"address"}]},{"type":"error","name":"SafeERC20FailedOperation","inputs":[{"name":"token","type":"address","internalType":"address"}]}],"bytecode":{"object":"0x60a060405234801561000f575f5ffd5b50604051610c5c380380610c5c83398101604081905261002e916100de565b806001600160a01b03811661005c57604051631e4fbdf760e01b81525f600482015260240160405180910390fd5b61006581610078565b50506001600160a01b0316608052610116565b5f80546001600160a01b038381166001600160a01b0319831681178455604051919092169283917f8be0079c531659141344cd1fd0a4f28419497f9722a3daafe3b4186f6b6457e09190a35050565b6001600160a01b03811681146100db575f5ffd5b50565b5f5f604083850312156100ef575f5ffd5b82516100fa816100c7565b602084015190925061010b816100c7565b809150509250929050565b608051610b1261014a5f395f818161023e015281816102b0015281816103420152818161047701526105b80152610b125ff3fe6080604052600436106100c2575f3560e01c80637c627b211161007c578063b0d691fe11610057578063b0d691fe1461022d578063c399ec8814610260578063d0e30db014610274578063f2fde38b1461027c575f5ffd5b80637c627b21146101bf5780638da5cb5b146101de57806396bf16b91461020e575f5ffd5b80630d3447f8146100d5578063205c28781461011857806344004cc11461013757806352b7512c14610156578063715018a61461018357806376c7a3c714610197575f5ffd5b366100d1576100cf61029b565b005b5f5ffd5b3480156100e0575f5ffd5b506101036100ef366004610823565b60016020525f908152604090205460ff1681565b60405190151581526020015b60405180910390f35b348015610123575f5ffd5b506100cf610132366004610845565b610314565b348015610142575f5ffd5b506100cf61015136600461086f565b61039d565b348015610161575f5ffd5b506101756101703660046108ad565b6103be565b60405161010f9291906108fc565b34801561018e575f5ffd5b506100cf6103e0565b3480156101a2575f5ffd5b506101b166071afd498d000081565b60405190815260200161010f565b3480156101ca575f5ffd5b506100cf6101d9366004610938565b6103f3565b3480156101e9575f5ffd5b505f546001600160a01b03165b6040516001600160a01b03909116815260200161010f565b348015610219575f5ffd5b506100cf6102283660046109cc565b6103fb565b348015610238575f5ffd5b506101f67f000000000000000000000000000000000000000000000000000000000000000081565b34801561026b575f5ffd5b506101b1610460565b6100cf61029b565b348015610287575f5ffd5b506100cf610296366004610823565b6104ed565b60405163b760faf960e01b81523060048201527f00000000000000000000000000000000000000000000000000000000000000006001600160a01b03169063b760faf99034906024015f604051808303818588803b1580156102fb575f5ffd5b505af115801561030d573d5f5f3e3d5ffd5b5050505050565b61031c61052f565b60405163040b850f60e31b81526001600160a01b038381166004830152602482018390527f0000000000000000000000000000000000000000000000000000000000000000169063205c2878906044015f604051808303815f87803b158015610383575f5ffd5b505af1158015610395573d5f5f3e3d5ffd5b505050505050565b6103a561052f565b6103b96001600160a01b038416838361055b565b505050565b60605f6103c96105ad565b6103d485858561061d565b91509150935093915050565b6103e861052f565b6103f15f61071b565b565b61030d6105ad565b61040361052f565b6001600160a01b0382165f81815260016020908152604091829020805460ff191685151590811790915591519182527e414954b48620536d2020ba4faaf80b5e6f37f5a24c753f0f727523d3cf7934910160405180910390a25050565b6040516370a0823160e01b81523060048201525f907f00000000000000000000000000000000000000000000000000000000000000006001600160a01b0316906370a0823190602401602060405180830381865afa1580156104c4573d5f5f3e3d5ffd5b505050506040513d601f19601f820116820180604052508101906104e89190610a07565b905090565b6104f561052f565b6001600160a01b03811661052357604051631e4fbdf760e01b81525f60048201526024015b60405180910390fd5b61052c8161071b565b50565b5f546001600160a01b031633146103f15760405163118cdaa760e01b815233600482015260240161051a565b604080516001600160a01b038416602482015260448082018490528251808303909101815260649091019091526020810180516001600160e01b031663a9059cbb60e01b1790526103b990849061076a565b336001600160a01b037f000000000000000000000000000000000000000000000000000000000000000016146103f15760405162461bcd60e51b815260206004820152601560248201527414d95b99195c881b9bdd08115b9d1c9e541bda5b9d605a1b604482015260640161051a565b60605f8061062d86840187610a1e565b61063c91602491601091610a68565b61064591610a8f565b60601c5f8181526001602052604090205490915060ff1661069f5760405162461bcd60e51b815260206004820152601460248201527315185c99d95d081b9bdd081cdc1bdb9cdbdc995960621b604482015260640161051a565b836106a8610460565b10156106f65760405162461bcd60e51b815260206004820152601f60248201527f5061796d61737465723a20696e73756666696369656e74206465706f73697400604482015260640161051a565b6107015f5f5f6107dc565b60408051602081019091525f815297909650945050505050565b5f80546001600160a01b038381166001600160a01b0319831681178455604051919092169283917f8be0079c531659141344cd1fd0a4f28419497f9722a3daafe3b4186f6b6457e09190a35050565b5f5f60205f8451602086015f885af180610789576040513d5f823e3d81fd5b50505f513d915081156107a05780600114156107ad565b6001600160a01b0384163b155b156107d657604051635274afe760e01b81526001600160a01b038516600482015260240161051a565b50505050565b5f60d08265ffffffffffff16901b60a08465ffffffffffff16901b85610802575f610805565b60015b1717949350505050565b6001600160a01b038116811461052c575f5ffd5b5f60208284031215610833575f5ffd5b813561083e8161080f565b9392505050565b5f5f60408385031215610856575f5ffd5b82356108618161080f565b946020939093013593505050565b5f5f5f60608486031215610881575f5ffd5b833561088c8161080f565b9250602084013561089c8161080f565b929592945050506040919091013590565b5f5f5f606084860312156108bf575f5ffd5b833567ffffffffffffffff8111156108d5575f5ffd5b840161012081870312156108e7575f5ffd5b95602085013595506040909401359392505050565b604081525f83518060408401528060208601606085015e5f606082850101526060601f19601f8301168401019150508260208301529392505050565b5f5f5f5f5f6080868803121561094c575f5ffd5b85356003811061095a575f5ffd5b9450602086013567ffffffffffffffff811115610975575f5ffd5b8601601f81018813610985575f5ffd5b803567ffffffffffffffff81111561099b575f5ffd5b8860208284010111156109ac575f5ffd5b959860209190910197509495604081013595606090910135945092505050565b5f5f604083850312156109dd575f5ffd5b82356109e88161080f565b9150602083013580151581146109fc575f5ffd5b809150509250929050565b5f60208284031215610a17575f5ffd5b5051919050565b5f5f8335601e19843603018112610a33575f5ffd5b83018035915067ffffffffffffffff821115610a4d575f5ffd5b602001915036819003821315610a61575f5ffd5b9250929050565b5f5f85851115610a76575f5ffd5b83861115610a82575f5ffd5b5050820193919092039150565b80356bffffffffffffffffffffffff198116906014841015610ad5576bffffffffffffffffffffffff196bffffffffffffffffffffffff198560140360031b1b82161691505b509291505056fea2646970667358221220536a6b5466f7e0954ef56d671f34a1f9e2a4e293e1839352c5aac69e7e1ca2e464736f6c634300081e0033","linkReferences":{}},"methodIdentifiers":{"MIN_FEE()":"76c7a3c7","deposit()":"d0e30db0","entryPoint()":"b0d691fe","getDeposit()":"c399ec88","owner()":"8da5cb5b","postOp(uint8,bytes,uint256,uint256)":"7c627b21","renounceOwnership()":"715018a6","setSponsoredContract(address,bool)":"96bf16b9","sponsoredContracts(address)":"0d3447f8","transferOwnership(address)":"f2fde38b","validatePaymasterUserOp((address,uint256,bytes,bytes,bytes32,uint256,bytes32,bytes,bytes),bytes32,uint256)":"52b7512c","withdrawERC20(address,address,uint256)":"44004cc1","withdrawTo(address,uint256)":"205c2878"},"id":58}