{"abi":[{"type":"constructor","inputs":[{"name":"nftAddress","type":"address","internalType":"address"},{"name":"_treasury","type":"address","internalType":"address"}],"stateMutability":"nonpayable"},{"type":"function","name":"DEFAULT_ADMIN_ROLE","inputs":[],"outputs":[{"name":"","type":"bytes32","internalType":"bytes32"}],"stateMutability":"view"},{"type":"function","name":"I_ELEMENT_NFT","inputs":[],"outputs":[{"name":"","type":"address","internalType":"contract ElementNFT"}],"stateMutability":"view"},{"type":"function","name":"TREASURY","inputs":[],"outputs":[{"name":"","type":"address","internalType":"address"}],"stateMutability":"view"},{"type":"function","name":"WITHDRAWER_ROLE","inputs":[],"outputs":[{"name":"","type":"bytes32","internalType":"bytes32"}],"stateMutability":"view"},{"type":"function","name":"craft","inputs":[{"name":"tokenIds","type":"uint256[3]","internalType":"uint256[3]"}],"outputs":[],"stateMutability":"payable"},{"type":"function","name":"getRoleAdmin","inputs":[{"name":"role","type":"bytes32","internalType":"bytes32"}],"outputs":[{"name":"","type":"bytes32","internalType":"bytes32"}],"stateMutability":"view"},{"type":"function","name":"grantRole","inputs":[{"name":"role","type":"bytes32","internalType":"bytes32"},{"name":"account","type":"address","internalType":"address"}],"outputs":[],"stateMutability":"nonpayable"},{"type":"function","name":"hasRole","inputs":[{"name":"role","type":"bytes32","internalType":"bytes32"},{"name":"account","type":"address","internalType":"address"}],"outputs":[{"name":"","type":"bool","internalType":"bool"}],"stateMutability":"view"},{"type":"function","name":"recepies","inputs":[{"name":"","type":"bytes32","internalType":"bytes32"}],"outputs":[{"name":"resultElement","type":"uint8","internalType":"enum AlchemistContract.ElementType"},{"name":"resultTier","type":"uint8","internalType":"uint8"}],"stateMutability":"view"},{"type":"function","name":"renounceRole","inputs":[{"name":"role","type":"bytes32","internalType":"bytes32"},{"name":"callerConfirmation","type":"address","internalType":"address"}],"outputs":[],"stateMutability":"nonpayable"},{"type":"function","name":"revokeRole","inputs":[{"name":"role","type":"bytes32","internalType":"bytes32"},{"name":"account","type":"address","internalType":"address"}],"outputs":[],"stateMutability":"nonpayable"},{"type":"function","name":"supportsInterface","inputs":[{"name":"interfaceId","type":"bytes4","internalType":"bytes4"}],"outputs":[{"name":"","type":"bool","internalType":"bool"}],"stateMutability":"view"},{"type":"function","name":"withdrawEth","inputs":[],"outputs":[],"stateMutability":"nonpayable"},{"type":"event","name":"RoleAdminChanged","inputs":[{"name":"role","type":"bytes32","indexed":true,"internalType":"bytes32"},{"name":"previousAdminRole","type":"bytes32","indexed":true,"internalType":"bytes32"},{"name":"newAdminRole","type":"bytes32","indexed":true,"internalType":"bytes32"}],"anonymous":false},{"type":"event","name":"RoleGranted","inputs":[{"name":"role","type":"bytes32","indexed":true,"internalType":"bytes32"},{"name":"account","type":"address","indexed":true,"internalType":"address"},{"name":"sender","type":"address","indexed":true,"internalType":"address"}],"anonymous":false},{"type":"event","name":"RoleRevoked","inputs":[{"name":"role","type":"bytes32","indexed":true,"internalType":"bytes32"},{"name":"account","type":"address","indexed":true,"internalType":"address"},{"name":"sender","type":"address","indexed":true,"internalType":"address"}],"anonymous":false},{"type":"error","name":"AccessControlBadConfirmation","inputs":[]},{"type":"error","name":"AccessControlUnauthorizedAccount","inputs":[{"name":"account","type":"address","internalType":"address"},{"name":"neededRole","type":"bytes32","internalType":"bytes32"}]},{"type":"error","name":"Alchemist__InsufficientETHSent","inputs":[]},{"type":"error","name":"Alchemist__InvalidRecepie","inputs":[]},{"type":"error","name":"Alchemist__NotTokenOwner","inputs":[]}],"bytecode":{"object":"0x60c0806040523461061f576040816111a6803803809161001f8285610652565b83398101031261061f5761003e602061003783610675565b9201610675565b9061004833610689565b5060018060a01b031660805260a052604051602081019060018252600560408201526005606082015260608152610080608082610652565b5190206040519061009082610623565b600682526020820190600282525f52600160205260405f20915190601282101561060b5760ff61ff008454925160081b1692169061ffff1916171790556040516020810190600282526002604082015260056060820152606081526100f6608082610652565b5190206040519061010682610623565b600782526020820190600282525f52600160205260405f20915190601282101561060b5760ff61ff008454925160081b1692169061ffff19161717905560405160208101906002825260046040820152600460608201526060815261016c608082610652565b5190206040519061017c82610623565b600882526020820190600282525f52600160205260405f20915190601282101561060b5760ff61ff008454925160081b1692169061ffff1916171790556040516020810190600182526001604082015260026060820152606081526101e2608082610652565b519020604051906101f282610623565b600982526020820190600282525f52600160205260405f20915190601282101561060b5760ff61ff008454925160081b1692169061ffff19161717905560405160208101905f82525f60408201526003606082015260608152610256608082610652565b5190206040519061026682610623565b600a82526020820190600282525f52600160205260405f20915190601282101561060b5760ff61ff008454925160081b1692169061ffff1916171790556040516020810190600282526003604082015260036060820152606081526102cc608082610652565b519020604051906102dc82610623565b600b82526020820190600282525f52600160205260405f20915190601282101561060b5760ff61ff008454925160081b1692169061ffff191617179055604051602081019060058252600660408201526006606082015260608152610342608082610652565b5190206040519061035282610623565b600c82526020820190600382525f52600160205260405f20915190601282101561060b5760ff61ff008454925160081b1692169061ffff1916171790556040516020810190600182526009604082015260096060820152606081526103b8608082610652565b519020604051906103c882610623565b600d82526020820190600382525f52600160205260405f20915190601282101561060b5760ff61ff008454925160081b1692169061ffff19161717905560405160208101905f8252600a6040820152600a60608201526060815261042d608082610652565b5190206040519061043d82610623565b600e82526020820190600382525f52600160205260405f20915190601282101561060b5760ff61ff008454925160081b1692169061ffff1916171790556040516020810190600282526007604082015260076060820152606081526104a3608082610652565b519020604051906104b382610623565b600f82526020820190600382525f52600160205260405f20915190601282101561060b5760ff61ff008454925160081b1692169061ffff191617179055604051602081019060048252600860408201526008606082015260608152610519608082610652565b5190206040519061052982610623565b601082526020820190600382525f52600160205260405f20915190601282101561060b5760ff61ff008454925160081b1692169061ffff191617179055604051602081019060038252600b6040820152600b60608201526060815261058f608082610652565b5190206040519061059f82610623565b601182526020820190600382525f52600160205260405f20915190601282101561060b5760ff61ff008454925160081b1692169061ffff191617179055604051610a73908161071382396080518181816101540152610696015260a05181818161010e01526107830152f35b634e487b7160e01b5f52602160045260245ffd5b5f80fd5b604081019081106001600160401b0382111761063e57604052565b634e487b7160e01b5f52604160045260245ffd5b601f909101601f19168101906001600160401b0382119082101761063e57604052565b51906001600160a01b038216820361061f57565b6001600160a01b0381165f9081525f5160206111865f395f51905f52602052604090205460ff1661070d576001600160a01b03165f8181525f5160206111865f395f51905f5260205260408120805460ff191660011790553391907f2f8788117e7eff1d82e926ec794901d17c78024a50270940304540a733656f0d8180a4600190565b505f9056fe6080806040526004361015610012575f80fd5b5f3560e01c90816301ffc9a7146107e457508063248a9ca3146107b25780632d2c55651461076e5780632f2ff15d1461073f57806336568abe14610709578063406c0d34146106c557806355bfd0b01461068157806385f438c11461064757806391d148541461060c578063a0ef91df1461053e578063a217fddf14610524578063b0ff1b5b146100e55763d547741f146100ab575f80fd5b346100e1576100df6100bc36610837565b906100da6100d5825f525f602052600160405f20015490565b6108fd565b6109bd565b005b5f80fd5b60603660031901126100e157366064116100e15766071afd498d00003410610515575f808080347f00000000000000000000000000000000000000000000000000000000000000005af161013761087f565b50156104d05760405163214b594360e21b815260048035908201527f00000000000000000000000000000000000000000000000000000000000000006001600160a01b031690602081602481855afa90811561030e575f916104b1575b50806040519063214b594360e21b82526024356004830152602082602481875afa91821561030e575f92610490575b5060405163214b594360e21b8152604435600482015282602082602481895afa91821561030e575f9261045f575b5081925f5b600381106103c1575060ff821660ff8216116103b5575b505060ff811660ff8416116103ac575b5060ff821660ff8416116103a4575b60ff9081604051938160208601961686521660408401521660608201526060815261025860808261085d565b5190205f52600160205260405f20604051906040820182811067ffffffffffffffff821117610390576040525460ff81169060128210156103195760ff91835260081c16602082019080825215610381575f5b6003811061032d575060ff9051169051601281101561031957823b156100e15760645f928360ff9560405196879586946306a524d560e31b865233600487015260248601521660448401525af1801561030e5761030457005b5f6100df9161085d565b6040513d5f823e3d90fd5b634e487b7160e01b5f52602160045260245ffd5b610336816108be565b3590843b156100e15760405191630852cd8d60e31b835260048301525f8260248183895af191821561030e57600192610371575b50016102ab565b5f61037b9161085d565b8561036a565b631a1f40ed60e11b5f5260045ffd5b634e487b7160e01b5f52604160045260245ffd5b90919061022c565b9190508461021d565b9094509250858061020d565b6103ca816108be565b6040516331a9108f60e11b8152903560048201526020816024818c5afa90811561030e575f9161041e575b50336001600160a01b039091160361040f576001016101f6565b63d8032c2160e01b5f5260045ffd5b90506020813d8211610457575b816104386020938361085d565b810103126100e157516001600160a01b03811681036100e157896103f5565b3d915061042b565b61048291925060203d602011610489575b61047a818361085d565b8101906108e4565b90866101f1565b503d610470565b6104aa91925060203d6020116104895761047a818361085d565b90846101c3565b6104ca915060203d6020116104895761047a818361085d565b82610194565b60405162461bcd60e51b815260206004820152601860248201527f5472656173757279207472616e73666572206661696c656400000000000000006044820152606490fd5b6357bfbdf160e11b5f5260045ffd5b346100e1575f3660031901126100e15760206040515f8152f35b346100e1575f3660031901126100e157335f9081527f10d7f32a6930100c7e03899d583513ff548ac958e569f497049662337b6f49b9602052604090205460ff16156105d5575f80808047335af161059461087f565b501561059c57005b60405162461bcd60e51b815260206004820152601160248201527015da5d1a191c985dd85b0819985a5b1959607a1b6044820152606490fd5b63e2517d3f60e01b5f52336004527f10dac8c06a04bec0b551627dad28bc00d6516b0caacd1c7b345fcdb5211334e460245260445ffd5b346100e15761061a36610837565b905f525f60205260405f209060018060a01b03165f52602052602060ff60405f2054166040519015158152f35b346100e1575f3660031901126100e15760206040517f10dac8c06a04bec0b551627dad28bc00d6516b0caacd1c7b345fcdb5211334e48152f35b346100e1575f3660031901126100e1576040517f00000000000000000000000000000000000000000000000000000000000000006001600160a01b03168152602090f35b346100e15760203660031901126100e1576004355f52600160205260405f205460ff81166040519060128110156103195760409260ff91835260081c166020820152f35b346100e15761071736610837565b336001600160a01b03821603610730576100df916109bd565b63334bd91960e11b5f5260045ffd5b346100e1576100df61075036610837565b906107696100d5825f525f602052600160405f20015490565b610935565b346100e1575f3660031901126100e1576040517f00000000000000000000000000000000000000000000000000000000000000006001600160a01b03168152602090f35b346100e15760203660031901126100e15760206107dc6004355f525f602052600160405f20015490565b604051908152f35b346100e15760203660031901126100e1576004359063ffffffff60e01b82168092036100e157602091637965db0b60e01b8114908115610826575b5015158152f35b6301ffc9a760e01b1490508361081f565b60409060031901126100e157600435906024356001600160a01b03811681036100e15790565b90601f8019910116810190811067ffffffffffffffff82111761039057604052565b3d156108b9573d9067ffffffffffffffff821161039057604051916108ae601f8201601f19166020018461085d565b82523d5f602084013e565b606090565b60038110156108d05760051b60040190565b634e487b7160e01b5f52603260045260245ffd5b908160209103126100e1575160ff811681036100e15790565b5f8181526020818152604080832033845290915290205460ff161561091f5750565b63e2517d3f60e01b5f523360045260245260445ffd5b5f818152602081815260408083206001600160a01b038616845290915290205460ff166109b7575f818152602081815260408083206001600160a01b0395909516808452949091528120805460ff19166001179055339291907f2f8788117e7eff1d82e926ec794901d17c78024a50270940304540a733656f0d9080a4600190565b50505f90565b5f818152602081815260408083206001600160a01b038616845290915290205460ff16156109b7575f818152602081815260408083206001600160a01b0395909516808452949091528120805460ff19169055339291907ff6391f5c32d9c69d2a47ea670b442974b53935d1edc7fd64eb21e047a839171b9080a460019056fea26469706673582212204680ca538a241d916d5435b332b2f9f69a790dfcbc7dd788efd3b182548372fe64736f6c634300081e0033ad3228b676f7d3cd4284a5443f17f1962b36e491b30a40b2405849e597ba5fb5","linkReferences":{}},"methodIdentifiers":{"DEFAULT_ADMIN_ROLE()":"a217fddf","I_ELEMENT_NFT()":"55bfd0b0","TREASURY()":"2d2c5565","WITHDRAWER_ROLE()":"85f438c1","craft(uint256[3])":"b0ff1b5b","getRoleAdmin(bytes32)":"248a9ca3","grantRole(bytes32,address)":"2f2ff15d","hasRole(bytes32,address)":"91d14854","recepies(bytes32)":"406c0d34","renounceRole(bytes32,address)":"36568abe","revokeRole(bytes32,address)":"d547741f","supportsInterface(bytes4)":"01ffc9a7","withdrawEth()":"a0ef91df"},"id":82}