{"abi":[{"type":"constructor","inputs":[{"name":"nftAddress","type":"address","internalType":"address"}],"stateMutability":"nonpayable"},{"type":"function","name":"DEFAULT_ADMIN_ROLE","inputs":[],"outputs":[{"name":"","type":"bytes32","internalType":"bytes32"}],"stateMutability":"view"},{"type":"function","name":"I_ELEMENT_NFT","inputs":[],"outputs":[{"name":"","type":"address","internalType":"contract ElementNFT"}],"stateMutability":"view"},{"type":"function","name":"WITHDRAWER_ROLE","inputs":[],"outputs":[{"name":"","type":"bytes32","internalType":"bytes32"}],"stateMutability":"view"},{"type":"function","name":"craft","inputs":[{"name":"tokenIds","type":"uint256[3]","internalType":"uint256[3]"}],"outputs":[],"stateMutability":"payable"},{"type":"function","name":"getRoleAdmin","inputs":[{"name":"role","type":"bytes32","internalType":"bytes32"}],"outputs":[{"name":"","type":"bytes32","internalType":"bytes32"}],"stateMutability":"view"},{"type":"function","name":"grantRole","inputs":[{"name":"role","type":"bytes32","internalType":"bytes32"},{"name":"account","type":"address","internalType":"address"}],"outputs":[],"stateMutability":"nonpayable"},{"type":"function","name":"hasRole","inputs":[{"name":"role","type":"bytes32","internalType":"bytes32"},{"name":"account","type":"address","internalType":"address"}],"outputs":[{"name":"","type":"bool","internalType":"bool"}],"stateMutability":"view"},{"type":"function","name":"recepies","inputs":[{"name":"","type":"bytes32","internalType":"bytes32"}],"outputs":[{"name":"resultElement","type":"uint8","internalType":"enum AlchemistContract.ElementType"},{"name":"resultTier","type":"uint8","internalType":"uint8"}],"stateMutability":"view"},{"type":"function","name":"renounceRole","inputs":[{"name":"role","type":"bytes32","internalType":"bytes32"},{"name":"callerConfirmation","type":"address","internalType":"address"}],"outputs":[],"stateMutability":"nonpayable"},{"type":"function","name":"revokeRole","inputs":[{"name":"role","type":"bytes32","internalType":"bytes32"},{"name":"account","type":"address","internalType":"address"}],"outputs":[],"stateMutability":"nonpayable"},{"type":"function","name":"supportsInterface","inputs":[{"name":"interfaceId","type":"bytes4","internalType":"bytes4"}],"outputs":[{"name":"","type":"bool","internalType":"bool"}],"stateMutability":"view"},{"type":"function","name":"withdrawEth","inputs":[],"outputs":[],"stateMutability":"nonpayable"},{"type":"event","name":"RoleAdminChanged","inputs":[{"name":"role","type":"bytes32","indexed":true,"internalType":"bytes32"},{"name":"previousAdminRole","type":"bytes32","indexed":true,"internalType":"bytes32"},{"name":"newAdminRole","type":"bytes32","indexed":true,"internalType":"bytes32"}],"anonymous":false},{"type":"event","name":"RoleGranted","inputs":[{"name":"role","type":"bytes32","indexed":true,"internalType":"bytes32"},{"name":"account","type":"address","indexed":true,"internalType":"address"},{"name":"sender","type":"address","indexed":true,"internalType":"address"}],"anonymous":false},{"type":"event","name":"RoleRevoked","inputs":[{"name":"role","type":"bytes32","indexed":true,"internalType":"bytes32"},{"name":"account","type":"address","indexed":true,"internalType":"address"},{"name":"sender","type":"address","indexed":true,"internalType":"address"}],"anonymous":false},{"type":"error","name":"AccessControlBadConfirmation","inputs":[]},{"type":"error","name":"AccessControlUnauthorizedAccount","inputs":[{"name":"account","type":"address","internalType":"address"},{"name":"neededRole","type":"bytes32","internalType":"bytes32"}]},{"type":"error","name":"Alchemist__InsufficientETHSent","inputs":[]},{"type":"error","name":"Alchemist__InvalidRecepie","inputs":[]},{"type":"error","name":"Alchemist__NotTokenOwner","inputs":[]}],"bytecode":{"object":"0x60a080604052346106015760208161109f803803809161001f8285610634565b83398101031261060157516001600160a01b038116908190036106015761004533610657565b50608052604051602081019060018252600560408201526005606082015260608152610072608082610634565b5190206040519061008282610605565b600682526020820190600282525f52600160205260405f2091519060128210156105ed5760ff61ff008454925160081b1692169061ffff1916171790556040516020810190600282526002604082015260056060820152606081526100e8608082610634565b519020604051906100f882610605565b600782526020820190600282525f52600160205260405f2091519060128210156105ed5760ff61ff008454925160081b1692169061ffff19161717905560405160208101906002825260046040820152600460608201526060815261015e608082610634565b5190206040519061016e82610605565b600882526020820190600282525f52600160205260405f2091519060128210156105ed5760ff61ff008454925160081b1692169061ffff1916171790556040516020810190600182526001604082015260026060820152606081526101d4608082610634565b519020604051906101e482610605565b600982526020820190600282525f52600160205260405f2091519060128210156105ed5760ff61ff008454925160081b1692169061ffff19161717905560405160208101905f82525f60408201526003606082015260608152610248608082610634565b5190206040519061025882610605565b600a82526020820190600282525f52600160205260405f2091519060128210156105ed5760ff61ff008454925160081b1692169061ffff1916171790556040516020810190600282526003604082015260036060820152606081526102be608082610634565b519020604051906102ce82610605565b600b82526020820190600282525f52600160205260405f2091519060128210156105ed5760ff61ff008454925160081b1692169061ffff191617179055604051602081019060058252600660408201526006606082015260608152610334608082610634565b5190206040519061034482610605565b600c82526020820190600382525f52600160205260405f2091519060128210156105ed5760ff61ff008454925160081b1692169061ffff1916171790556040516020810190600182526009604082015260096060820152606081526103aa608082610634565b519020604051906103ba82610605565b600d82526020820190600382525f52600160205260405f2091519060128210156105ed5760ff61ff008454925160081b1692169061ffff19161717905560405160208101905f8252600a6040820152600a60608201526060815261041f608082610634565b5190206040519061042f82610605565b600e82526020820190600382525f52600160205260405f2091519060128210156105ed5760ff61ff008454925160081b1692169061ffff191617179055604051602081019060028252600760408201526007606082015260608152610495608082610634565b519020604051906104a582610605565b600f82526020820190600382525f52600160205260405f2091519060128210156105ed5760ff61ff008454925160081b1692169061ffff19161717905560405160208101906004825260086040820152600860608201526060815261050b608082610634565b5190206040519061051b82610605565b601082526020820190600382525f52600160205260405f2091519060128210156105ed5760ff61ff008454925160081b1692169061ffff191617179055604051602081019060038252600b6040820152600b606082015260608152610581608082610634565b5190206040519061059182610605565b601182526020820190600382525f52600160205260405f2091519060128210156105ed5760ff61ff008454925160081b1692169061ffff19161717905560405161099e90816106e1823960805181818161011301526106440152f35b634e487b7160e01b5f52602160045260245ffd5b5f80fd5b604081019081106001600160401b0382111761062057604052565b634e487b7160e01b5f52604160045260245ffd5b601f909101601f19168101906001600160401b0382119082101761062057604052565b6001600160a01b0381165f9081525f51602061107f5f395f51905f52602052604090205460ff166106db576001600160a01b03165f8181525f51602061107f5f395f51905f5260205260408120805460ff191660011790553391907f2f8788117e7eff1d82e926ec794901d17c78024a50270940304540a733656f0d8180a4600190565b505f9056fe6080806040526004361015610012575f80fd5b5f3560e01c90816301ffc9a71461074e57508063248a9ca31461071c5780632f2ff15d146106ed57806336568abe146106b7578063406c0d341461067357806355bfd0b01461062f57806385f438c1146105f557806391d14854146105ba578063a0ef91df146104b8578063a217fddf1461049e578063b0ff1b5b146100da5763d547741f146100a0575f80fd5b346100d6576100d46100b1366107a1565b906100cf6100ca825f525f602052600160405f20015490565b610828565b6108e8565b005b5f80fd5b60603660031901126100d657366064116100d65766071afd498d0000341061048f5760405163214b594360e21b815260048035908201527f00000000000000000000000000000000000000000000000000000000000000006001600160a01b031690602081602481855afa9081156102cd575f91610470575b50806040519063214b594360e21b82526024356004830152602082602481875afa9182156102cd575f9261044f575b5060405163214b594360e21b8152604435600482015282602082602481895afa9182156102cd575f9261041e575b5081925f5b60038110610380575060ff821660ff821611610374575b505060ff811660ff84161161036b575b5060ff821660ff841611610363575b60ff908160405193816020860196168652166040840152166060820152606081526102176080826107c7565b5190205f52600160205260405f20604051906040820182811067ffffffffffffffff82111761034f576040525460ff81169060128210156102d85760ff91835260081c16602082019080825215610340575f5b600381106102ec575060ff905116905160128110156102d857823b156100d65760645f928360ff9560405196879586946306a524d560e31b865233600487015260248601521660448401525af180156102cd576102c357005b5f6100d4916107c7565b6040513d5f823e3d90fd5b634e487b7160e01b5f52602160045260245ffd5b6102f5816107e9565b3590843b156100d65760405191630852cd8d60e31b835260048301525f8260248183895af19182156102cd57600192610330575b500161026a565b5f61033a916107c7565b85610329565b631a1f40ed60e11b5f5260045ffd5b634e487b7160e01b5f52604160045260245ffd5b9091906101eb565b919050846101dc565b909450925085806101cc565b610389816107e9565b6040516331a9108f60e11b8152903560048201526020816024818c5afa9081156102cd575f916103dd575b50336001600160a01b03909116036103ce576001016101b5565b63d8032c2160e01b5f5260045ffd5b90506020813d8211610416575b816103f7602093836107c7565b810103126100d657516001600160a01b03811681036100d657896103b4565b3d91506103ea565b61044191925060203d602011610448575b61043981836107c7565b81019061080f565b90866101b0565b503d61042f565b61046991925060203d6020116104485761043981836107c7565b9084610182565b610489915060203d6020116104485761043981836107c7565b82610153565b6357bfbdf160e11b5f5260045ffd5b346100d6575f3660031901126100d65760206040515f8152f35b346100d6575f3660031901126100d657335f9081527f10d7f32a6930100c7e03899d583513ff548ac958e569f497049662337b6f49b9602052604090205460ff1615610583575f80808047335af13d1561057e573d67ffffffffffffffff811161034f5760405190610534601f8201601f1916602001836107c7565b81525f60203d92013e5b1561054557005b60405162461bcd60e51b815260206004820152601160248201527015da5d1a191c985dd85b0819985a5b1959607a1b6044820152606490fd5b61053e565b63e2517d3f60e01b5f52336004527f10dac8c06a04bec0b551627dad28bc00d6516b0caacd1c7b345fcdb5211334e460245260445ffd5b346100d6576105c8366107a1565b905f525f60205260405f209060018060a01b03165f52602052602060ff60405f2054166040519015158152f35b346100d6575f3660031901126100d65760206040517f10dac8c06a04bec0b551627dad28bc00d6516b0caacd1c7b345fcdb5211334e48152f35b346100d6575f3660031901126100d6576040517f00000000000000000000000000000000000000000000000000000000000000006001600160a01b03168152602090f35b346100d65760203660031901126100d6576004355f52600160205260405f205460ff81166040519060128110156102d85760409260ff91835260081c166020820152f35b346100d6576106c5366107a1565b336001600160a01b038216036106de576100d4916108e8565b63334bd91960e11b5f5260045ffd5b346100d6576100d46106fe366107a1565b906107176100ca825f525f602052600160405f20015490565b610860565b346100d65760203660031901126100d65760206107466004355f525f602052600160405f20015490565b604051908152f35b346100d65760203660031901126100d6576004359063ffffffff60e01b82168092036100d657602091637965db0b60e01b8114908115610790575b5015158152f35b6301ffc9a760e01b14905083610789565b60409060031901126100d657600435906024356001600160a01b03811681036100d65790565b90601f8019910116810190811067ffffffffffffffff82111761034f57604052565b60038110156107fb5760051b60040190565b634e487b7160e01b5f52603260045260245ffd5b908160209103126100d6575160ff811681036100d65790565b5f8181526020818152604080832033845290915290205460ff161561084a5750565b63e2517d3f60e01b5f523360045260245260445ffd5b5f818152602081815260408083206001600160a01b038616845290915290205460ff166108e2575f818152602081815260408083206001600160a01b0395909516808452949091528120805460ff19166001179055339291907f2f8788117e7eff1d82e926ec794901d17c78024a50270940304540a733656f0d9080a4600190565b50505f90565b5f818152602081815260408083206001600160a01b038616845290915290205460ff16156108e2575f818152602081815260408083206001600160a01b0395909516808452949091528120805460ff19169055339291907ff6391f5c32d9c69d2a47ea670b442974b53935d1edc7fd64eb21e047a839171b9080a460019056fea2646970667358221220945bc6ac767679ca9b25023bc66ad6fa19d5564f3a34b4a692eeeb2bd38abbac64736f6c634300081e0033ad3228b676f7d3cd4284a5443f17f1962b36e491b30a40b2405849e597ba5fb5","linkReferences":{}},"methodIdentifiers":{"DEFAULT_ADMIN_ROLE()":"a217fddf","I_ELEMENT_NFT()":"55bfd0b0","WITHDRAWER_ROLE()":"85f438c1","craft(uint256[3])":"b0ff1b5b","getRoleAdmin(bytes32)":"248a9ca3","grantRole(bytes32,address)":"2f2ff15d","hasRole(bytes32,address)":"91d14854","recepies(bytes32)":"406c0d34","renounceRole(bytes32,address)":"36568abe","revokeRole(bytes32,address)":"d547741f","supportsInterface(bytes4)":"01ffc9a7","withdrawEth()":"a0ef91df"},"id":68}